{
	"contracts/6_AssetFactory.sol": {
		"AssetFactory": {
			"abi": [
				{
					"inputs": [],
					"stateMutability": "nonpayable",
					"type": "constructor"
				},
				{
					"inputs": [
						{
							"internalType": "uint256",
							"name": "",
							"type": "uint256"
						}
					],
					"name": "addr_index",
					"outputs": [
						{
							"internalType": "address",
							"name": "",
							"type": "address"
						}
					],
					"stateMutability": "view",
					"type": "function"
				},
				{
					"inputs": [
						{
							"internalType": "address",
							"name": "",
							"type": "address"
						}
					],
					"name": "addr_name",
					"outputs": [
						{
							"internalType": "string",
							"name": "",
							"type": "string"
						}
					],
					"stateMutability": "view",
					"type": "function"
				},
				{
					"inputs": [],
					"name": "index",
					"outputs": [
						{
							"internalType": "uint256",
							"name": "",
							"type": "uint256"
						}
					],
					"stateMutability": "view",
					"type": "function"
				},
				{
					"inputs": [
						{
							"internalType": "string",
							"name": "name",
							"type": "string"
						},
						{
							"internalType": "string",
							"name": "symbol",
							"type": "string"
						},
						{
							"internalType": "address",
							"name": "_receiver",
							"type": "address"
						}
					],
					"name": "newAssert",
					"outputs": [
						{
							"internalType": "address",
							"name": "",
							"type": "address"
						}
					],
					"stateMutability": "nonpayable",
					"type": "function"
				},
				{
					"inputs": [],
					"name": "owner",
					"outputs": [
						{
							"internalType": "address",
							"name": "",
							"type": "address"
						}
					],
					"stateMutability": "view",
					"type": "function"
				},
				{
					"inputs": [
						{
							"internalType": "address",
							"name": "",
							"type": "address"
						}
					],
					"name": "receiver_addr",
					"outputs": [
						{
							"internalType": "address",
							"name": "",
							"type": "address"
						}
					],
					"stateMutability": "view",
					"type": "function"
				}
			],
			"devdoc": {
				"kind": "dev",
				"methods": {},
				"version": 1
			},
			"evm": {
				"assembly": "    /* \"contracts/6_AssetFactory.sol\":101:1069  contract AssetFactory{... */\n  mstore(0x40, 0x80)\n    /* \"contracts/6_AssetFactory.sol\":152:153  0 */\n  0x00\n    /* \"contracts/6_AssetFactory.sol\":132:153  uint public index = 0 */\n  dup1\n  sstore\n    /* \"contracts/6_AssetFactory.sol\":445:492  constructor(){... */\n  callvalue\n  dup1\n  iszero\n  tag_1\n  jumpi\n  0x00\n  dup1\n  revert\ntag_1:\n  pop\n    /* \"contracts/6_AssetFactory.sol\":475:485  msg.sender */\n  caller\n    /* \"contracts/6_AssetFactory.sol\":468:473  owner */\n  0x04\n  0x00\n    /* \"contracts/6_AssetFactory.sol\":468:485  owner =msg.sender */\n  0x0100\n  exp\n  dup2\n  sload\n  dup2\n  0xffffffffffffffffffffffffffffffffffffffff\n  mul\n  not\n  and\n  swap1\n  dup4\n  0xffffffffffffffffffffffffffffffffffffffff\n  and\n  mul\n  or\n  swap1\n  sstore\n  pop\n    /* \"contracts/6_AssetFactory.sol\":101:1069  contract AssetFactory{... */\n  dataSize(sub_0)\n  dup1\n  dataOffset(sub_0)\n  0x00\n  codecopy\n  0x00\n  return\nstop\n\nsub_0: assembly {\n        /* \"contracts/6_AssetFactory.sol\":101:1069  contract AssetFactory{... */\n      mstore(0x40, 0x80)\n      callvalue\n      dup1\n      iszero\n      tag_1\n      jumpi\n      0x00\n      dup1\n      revert\n    tag_1:\n      pop\n      jumpi(tag_2, lt(calldatasize, 0x04))\n      shr(0xe0, calldataload(0x00))\n      dup1\n      0x2986c0e5\n      eq\n      tag_3\n      jumpi\n      dup1\n      0x2b70af9b\n      eq\n      tag_4\n      jumpi\n      dup1\n      0x4efe4227\n      eq\n      tag_5\n      jumpi\n      dup1\n      0x7790620e\n      eq\n      tag_6\n      jumpi\n      dup1\n      0x8da5cb5b\n      eq\n      tag_7\n      jumpi\n      dup1\n      0xf139f35c\n      eq\n      tag_8\n      jumpi\n    tag_2:\n      0x00\n      dup1\n      revert\n        /* \"contracts/6_AssetFactory.sol\":132:153  uint public index = 0 */\n    tag_3:\n      tag_9\n      tag_10\n      jump\t// in\n    tag_9:\n      mload(0x40)\n      tag_11\n      swap2\n      swap1\n      tag_12\n      jump\t// in\n    tag_11:\n      mload(0x40)\n      dup1\n      swap2\n      sub\n      swap1\n      return\n        /* \"contracts/6_AssetFactory.sol\":577:1066  function newAssert(string memory name,string memory symbol,address _receiver)public onlyOwner returns(address){... */\n    tag_4:\n      tag_13\n      0x04\n      dup1\n      calldatasize\n      sub\n      dup2\n      add\n      swap1\n      tag_14\n      swap2\n      swap1\n      tag_15\n      jump\t// in\n    tag_14:\n      tag_16\n      jump\t// in\n    tag_13:\n      mload(0x40)\n      tag_17\n      swap2\n      swap1\n      tag_18\n      jump\t// in\n    tag_17:\n      mload(0x40)\n      dup1\n      swap2\n      sub\n      swap1\n      return\n        /* \"contracts/6_AssetFactory.sol\":277:325  mapping(address => address) public receiver_addr */\n    tag_5:\n      tag_19\n      0x04\n      dup1\n      calldatasize\n      sub\n      dup2\n      add\n      swap1\n      tag_20\n      swap2\n      swap1\n      tag_21\n      jump\t// in\n    tag_20:\n      tag_22\n      jump\t// in\n    tag_19:\n      mload(0x40)\n      tag_23\n      swap2\n      swap1\n      tag_18\n      jump\t// in\n    tag_23:\n      mload(0x40)\n      dup1\n      swap2\n      sub\n      swap1\n      return\n        /* \"contracts/6_AssetFactory.sol\":334:376  mapping(uint => address) public addr_index */\n    tag_6:\n      tag_24\n      0x04\n      dup1\n      calldatasize\n      sub\n      dup2\n      add\n      swap1\n      tag_25\n      swap2\n      swap1\n      tag_26\n      jump\t// in\n    tag_25:\n      tag_27\n      jump\t// in\n    tag_24:\n      mload(0x40)\n      tag_28\n      swap2\n      swap1\n      tag_18\n      jump\t// in\n    tag_28:\n      mload(0x40)\n      dup1\n      swap2\n      sub\n      swap1\n      return\n        /* \"contracts/6_AssetFactory.sol\":418:438  address public owner */\n    tag_7:\n      tag_29\n      tag_30\n      jump\t// in\n    tag_29:\n      mload(0x40)\n      tag_31\n      swap2\n      swap1\n      tag_18\n      jump\t// in\n    tag_31:\n      mload(0x40)\n      dup1\n      swap2\n      sub\n      swap1\n      return\n        /* \"contracts/6_AssetFactory.sol\":189:232  mapping(address => string) public addr_name */\n    tag_8:\n      tag_32\n      0x04\n      dup1\n      calldatasize\n      sub\n      dup2\n      add\n      swap1\n      tag_33\n      swap2\n      swap1\n      tag_21\n      jump\t// in\n    tag_33:\n      tag_34\n      jump\t// in\n    tag_32:\n      mload(0x40)\n      tag_35\n      swap2\n      swap1\n      tag_36\n      jump\t// in\n    tag_35:\n      mload(0x40)\n      dup1\n      swap2\n      sub\n      swap1\n      return\n        /* \"contracts/6_AssetFactory.sol\":132:153  uint public index = 0 */\n    tag_10:\n      sload(0x00)\n      dup2\n      jump\t// out\n        /* \"contracts/6_AssetFactory.sol\":577:1066  function newAssert(string memory name,string memory symbol,address _receiver)public onlyOwner returns(address){... */\n    tag_16:\n        /* \"contracts/6_AssetFactory.sol\":679:686  address */\n      0x00\n        /* \"contracts/6_AssetFactory.sol\":548:553  owner */\n      0x04\n      0x00\n      swap1\n      sload\n      swap1\n      0x0100\n      exp\n      swap1\n      div\n      0xffffffffffffffffffffffffffffffffffffffff\n      and\n        /* \"contracts/6_AssetFactory.sol\":536:553  msg.sender==owner */\n      0xffffffffffffffffffffffffffffffffffffffff\n      and\n        /* \"contracts/6_AssetFactory.sol\":536:546  msg.sender */\n      caller\n        /* \"contracts/6_AssetFactory.sol\":536:553  msg.sender==owner */\n      0xffffffffffffffffffffffffffffffffffffffff\n      and\n      eq\n        /* \"contracts/6_AssetFactory.sol\":528:554  require(msg.sender==owner) */\n      tag_38\n      jumpi\n      0x00\n      dup1\n      revert\n    tag_38:\n        /* \"contracts/6_AssetFactory.sol\":739:740  0 */\n      0x00\n        /* \"contracts/6_AssetFactory.sol\":705:741  receiver_addr[_receiver]==address(0) */\n      0xffffffffffffffffffffffffffffffffffffffff\n      and\n        /* \"contracts/6_AssetFactory.sol\":705:718  receiver_addr */\n      0x02\n        /* \"contracts/6_AssetFactory.sol\":705:729  receiver_addr[_receiver] */\n      0x00\n        /* \"contracts/6_AssetFactory.sol\":719:728  _receiver */\n      dup5\n        /* \"contracts/6_AssetFactory.sol\":705:729  receiver_addr[_receiver] */\n      0xffffffffffffffffffffffffffffffffffffffff\n      and\n      0xffffffffffffffffffffffffffffffffffffffff\n      and\n      dup2\n      mstore\n      0x20\n      add\n      swap1\n      dup2\n      mstore\n      0x20\n      add\n      0x00\n      keccak256\n      0x00\n      swap1\n      sload\n      swap1\n      0x0100\n      exp\n      swap1\n      div\n      0xffffffffffffffffffffffffffffffffffffffff\n      and\n        /* \"contracts/6_AssetFactory.sol\":705:741  receiver_addr[_receiver]==address(0) */\n      0xffffffffffffffffffffffffffffffffffffffff\n      and\n      eq\n        /* \"contracts/6_AssetFactory.sol\":697:784  require(receiver_addr[_receiver]==address(0),\"this account has been created one asset\") */\n      tag_40\n      jumpi\n      mload(0x40)\n      0x08c379a000000000000000000000000000000000000000000000000000000000\n      dup2\n      mstore\n      0x04\n      add\n      tag_41\n      swap1\n      tag_42\n      jump\t// in\n    tag_41:\n      mload(0x40)\n      dup1\n      swap2\n      sub\n      swap1\n      revert\n    tag_40:\n        /* \"contracts/6_AssetFactory.sol\":794:805  Asset asset */\n      0x00\n        /* \"contracts/6_AssetFactory.sol\":818:822  name */\n      dup5\n        /* \"contracts/6_AssetFactory.sol\":823:829  symbol */\n      dup5\n        /* \"contracts/6_AssetFactory.sol\":808:830  new Asset(name,symbol) */\n      mload(0x40)\n      tag_43\n      swap1\n      tag_44\n      jump\t// in\n    tag_43:\n      tag_45\n      swap3\n      swap2\n      swap1\n      tag_46\n      jump\t// in\n    tag_45:\n      mload(0x40)\n      dup1\n      swap2\n      sub\n      swap1\n      0x00\n      create\n      dup1\n      iszero\n      dup1\n      iszero\n      tag_47\n      jumpi\n      returndatasize\n      0x00\n      dup1\n      returndatacopy\n      revert(0x00, returndatasize)\n    tag_47:\n      pop\n        /* \"contracts/6_AssetFactory.sol\":794:830  Asset asset = new Asset(name,symbol) */\n      swap1\n      pop\n        /* \"contracts/6_AssetFactory.sol\":840:861  address asset_address */\n      0x00\n        /* \"contracts/6_AssetFactory.sol\":872:877  asset */\n      dup2\n        /* \"contracts/6_AssetFactory.sol\":840:878  address asset_address = address(asset) */\n      swap1\n      pop\n        /* \"contracts/6_AssetFactory.sol\":915:919  name */\n      dup6\n        /* \"contracts/6_AssetFactory.sol\":888:897  addr_name */\n      0x01\n        /* \"contracts/6_AssetFactory.sol\":888:912  addr_name[asset_address] */\n      0x00\n        /* \"contracts/6_AssetFactory.sol\":898:911  asset_address */\n      dup4\n        /* \"contracts/6_AssetFactory.sol\":888:912  addr_name[asset_address] */\n      0xffffffffffffffffffffffffffffffffffffffff\n      and\n      0xffffffffffffffffffffffffffffffffffffffff\n      and\n      dup2\n      mstore\n      0x20\n      add\n      swap1\n      dup2\n      mstore\n      0x20\n      add\n      0x00\n      keccak256\n        /* \"contracts/6_AssetFactory.sol\":888:919  addr_name[asset_address] = name */\n      swap1\n      dup2\n      tag_48\n      swap2\n      swap1\n      tag_49\n      jump\t// in\n    tag_48:\n      pop\n        /* \"contracts/6_AssetFactory.sol\":949:962  asset_address */\n      dup1\n        /* \"contracts/6_AssetFactory.sol\":929:939  addr_index */\n      0x03\n        /* \"contracts/6_AssetFactory.sol\":929:946  addr_index[index] */\n      0x00\n        /* \"contracts/6_AssetFactory.sol\":940:945  index */\n      dup1\n      sload\n        /* \"contracts/6_AssetFactory.sol\":929:946  addr_index[index] */\n      dup2\n      mstore\n      0x20\n      add\n      swap1\n      dup2\n      mstore\n      0x20\n      add\n      0x00\n      keccak256\n      0x00\n        /* \"contracts/6_AssetFactory.sol\":929:962  addr_index[index] = asset_address */\n      0x0100\n      exp\n      dup2\n      sload\n      dup2\n      0xffffffffffffffffffffffffffffffffffffffff\n      mul\n      not\n      and\n      swap1\n      dup4\n      0xffffffffffffffffffffffffffffffffffffffff\n      and\n      mul\n      or\n      swap1\n      sstore\n      pop\n        /* \"contracts/6_AssetFactory.sol\":999:1012  asset_address */\n      dup1\n        /* \"contracts/6_AssetFactory.sol\":972:985  receiver_addr */\n      0x02\n        /* \"contracts/6_AssetFactory.sol\":972:996  receiver_addr[_receiver] */\n      0x00\n        /* \"contracts/6_AssetFactory.sol\":986:995  _receiver */\n      dup7\n        /* \"contracts/6_AssetFactory.sol\":972:996  receiver_addr[_receiver] */\n      0xffffffffffffffffffffffffffffffffffffffff\n      and\n      0xffffffffffffffffffffffffffffffffffffffff\n      and\n      dup2\n      mstore\n      0x20\n      add\n      swap1\n      dup2\n      mstore\n      0x20\n      add\n      0x00\n      keccak256\n      0x00\n        /* \"contracts/6_AssetFactory.sol\":972:1012  receiver_addr[_receiver] = asset_address */\n      0x0100\n      exp\n      dup2\n      sload\n      dup2\n      0xffffffffffffffffffffffffffffffffffffffff\n      mul\n      not\n      and\n      swap1\n      dup4\n      0xffffffffffffffffffffffffffffffffffffffff\n      and\n      mul\n      or\n      swap1\n      sstore\n      pop\n        /* \"contracts/6_AssetFactory.sol\":1022:1027  index */\n      0x00\n      dup1\n        /* \"contracts/6_AssetFactory.sol\":1022:1029  index++ */\n      dup2\n      sload\n      dup1\n      swap3\n      swap2\n      swap1\n      tag_50\n      swap1\n      tag_51\n      jump\t// in\n    tag_50:\n      swap2\n      swap1\n      pop\n      sstore\n      pop\n        /* \"contracts/6_AssetFactory.sol\":1046:1059  asset_address */\n      dup1\n        /* \"contracts/6_AssetFactory.sol\":1039:1059  return asset_address */\n      swap3\n      pop\n      pop\n      pop\n        /* \"contracts/6_AssetFactory.sol\":577:1066  function newAssert(string memory name,string memory symbol,address _receiver)public onlyOwner returns(address){... */\n      swap4\n      swap3\n      pop\n      pop\n      pop\n      jump\t// out\n        /* \"contracts/6_AssetFactory.sol\":277:325  mapping(address => address) public receiver_addr */\n    tag_22:\n      mstore(0x20, 0x02)\n      dup1\n      0x00\n      mstore\n      keccak256(0x00, 0x40)\n      0x00\n      swap2\n      pop\n      sload\n      swap1\n      0x0100\n      exp\n      swap1\n      div\n      0xffffffffffffffffffffffffffffffffffffffff\n      and\n      dup2\n      jump\t// out\n        /* \"contracts/6_AssetFactory.sol\":334:376  mapping(uint => address) public addr_index */\n    tag_27:\n      mstore(0x20, 0x03)\n      dup1\n      0x00\n      mstore\n      keccak256(0x00, 0x40)\n      0x00\n      swap2\n      pop\n      sload\n      swap1\n      0x0100\n      exp\n      swap1\n      div\n      0xffffffffffffffffffffffffffffffffffffffff\n      and\n      dup2\n      jump\t// out\n        /* \"contracts/6_AssetFactory.sol\":418:438  address public owner */\n    tag_30:\n      0x04\n      0x00\n      swap1\n      sload\n      swap1\n      0x0100\n      exp\n      swap1\n      div\n      0xffffffffffffffffffffffffffffffffffffffff\n      and\n      dup2\n      jump\t// out\n        /* \"contracts/6_AssetFactory.sol\":189:232  mapping(address => string) public addr_name */\n    tag_34:\n      mstore(0x20, 0x01)\n      dup1\n      0x00\n      mstore\n      keccak256(0x00, 0x40)\n      0x00\n      swap2\n      pop\n      swap1\n      pop\n      dup1\n      sload\n      tag_52\n      swap1\n      tag_53\n      jump\t// in\n    tag_52:\n      dup1\n      0x1f\n      add\n      0x20\n      dup1\n      swap2\n      div\n      mul\n      0x20\n      add\n      mload(0x40)\n      swap1\n      dup2\n      add\n      0x40\n      mstore\n      dup1\n      swap3\n      swap2\n      swap1\n      dup2\n      dup2\n      mstore\n      0x20\n      add\n      dup3\n      dup1\n      sload\n      tag_54\n      swap1\n      tag_53\n      jump\t// in\n    tag_54:\n      dup1\n      iszero\n      tag_55\n      jumpi\n      dup1\n      0x1f\n      lt\n      tag_56\n      jumpi\n      0x0100\n      dup1\n      dup4\n      sload\n      div\n      mul\n      dup4\n      mstore\n      swap2\n      0x20\n      add\n      swap2\n      jump(tag_55)\n    tag_56:\n      dup3\n      add\n      swap2\n      swap1\n      0x00\n      mstore\n      keccak256(0x00, 0x20)\n      swap1\n    tag_57:\n      dup2\n      sload\n      dup2\n      mstore\n      swap1\n      0x01\n      add\n      swap1\n      0x20\n      add\n      dup1\n      dup4\n      gt\n      tag_57\n      jumpi\n      dup3\n      swap1\n      sub\n      0x1f\n      and\n      dup3\n      add\n      swap2\n    tag_55:\n      pop\n      pop\n      pop\n      pop\n      pop\n      dup2\n      jump\t// out\n    tag_44:\n      dataSize(sub_0)\n      dup1\n      dataOffset(sub_0)\n      dup4\n      codecopy\n      add\n      swap1\n      jump\t// out\n        /* \"#utility.yul\":7:84   */\n    tag_58:\n        /* \"#utility.yul\":44:51   */\n      0x00\n        /* \"#utility.yul\":73:78   */\n      dup2\n        /* \"#utility.yul\":62:78   */\n      swap1\n      pop\n        /* \"#utility.yul\":7:84   */\n      swap2\n      swap1\n      pop\n      jump\t// out\n        /* \"#utility.yul\":90:208   */\n    tag_59:\n        /* \"#utility.yul\":177:201   */\n      tag_106\n        /* \"#utility.yul\":195:200   */\n      dup2\n        /* \"#utility.yul\":177:201   */\n      tag_58\n      jump\t// in\n    tag_106:\n        /* \"#utility.yul\":172:175   */\n      dup3\n        /* \"#utility.yul\":165:202   */\n      mstore\n        /* \"#utility.yul\":90:208   */\n      pop\n      pop\n      jump\t// out\n        /* \"#utility.yul\":214:436   */\n    tag_12:\n        /* \"#utility.yul\":307:311   */\n      0x00\n        /* \"#utility.yul\":345:347   */\n      0x20\n        /* \"#utility.yul\":334:343   */\n      dup3\n        /* \"#utility.yul\":330:348   */\n      add\n        /* \"#utility.yul\":322:348   */\n      swap1\n      pop\n        /* \"#utility.yul\":358:429   */\n      tag_108\n        /* \"#utility.yul\":426:427   */\n      0x00\n        /* \"#utility.yul\":415:424   */\n      dup4\n        /* \"#utility.yul\":411:428   */\n      add\n        /* \"#utility.yul\":402:408   */\n      dup5\n        /* \"#utility.yul\":358:429   */\n      tag_59\n      jump\t// in\n    tag_108:\n        /* \"#utility.yul\":214:436   */\n      swap3\n      swap2\n      pop\n      pop\n      jump\t// out\n        /* \"#utility.yul\":442:517   */\n    tag_60:\n        /* \"#utility.yul\":475:481   */\n      0x00\n        /* \"#utility.yul\":508:510   */\n      0x40\n        /* \"#utility.yul\":502:511   */\n      mload\n        /* \"#utility.yul\":492:511   */\n      swap1\n      pop\n        /* \"#utility.yul\":442:517   */\n      swap1\n      jump\t// out\n        /* \"#utility.yul\":523:640   */\n    tag_61:\n        /* \"#utility.yul\":632:633   */\n      0x00\n        /* \"#utility.yul\":629:630   */\n      dup1\n        /* \"#utility.yul\":622:634   */\n      revert\n        /* \"#utility.yul\":646:763   */\n    tag_62:\n        /* \"#utility.yul\":755:756   */\n      0x00\n        /* \"#utility.yul\":752:753   */\n      dup1\n        /* \"#utility.yul\":745:757   */\n      revert\n        /* \"#utility.yul\":769:886   */\n    tag_63:\n        /* \"#utility.yul\":878:879   */\n      0x00\n        /* \"#utility.yul\":875:876   */\n      dup1\n        /* \"#utility.yul\":868:880   */\n      revert\n        /* \"#utility.yul\":892:1009   */\n    tag_64:\n        /* \"#utility.yul\":1001:1002   */\n      0x00\n        /* \"#utility.yul\":998:999   */\n      dup1\n        /* \"#utility.yul\":991:1003   */\n      revert\n        /* \"#utility.yul\":1015:1117   */\n    tag_65:\n        /* \"#utility.yul\":1056:1062   */\n      0x00\n        /* \"#utility.yul\":1107:1109   */\n      0x1f\n        /* \"#utility.yul\":1103:1110   */\n      not\n        /* \"#utility.yul\":1098:1100   */\n      0x1f\n        /* \"#utility.yul\":1091:1096   */\n      dup4\n        /* \"#utility.yul\":1087:1101   */\n      add\n        /* \"#utility.yul\":1083:1111   */\n      and\n        /* \"#utility.yul\":1073:1111   */\n      swap1\n      pop\n        /* \"#utility.yul\":1015:1117   */\n      swap2\n      swap1\n      pop\n      jump\t// out\n        /* \"#utility.yul\":1123:1303   */\n    tag_66:\n        /* \"#utility.yul\":1171:1248   */\n      0x4e487b7100000000000000000000000000000000000000000000000000000000\n        /* \"#utility.yul\":1168:1169   */\n      0x00\n        /* \"#utility.yul\":1161:1249   */\n      mstore\n        /* \"#utility.yul\":1268:1272   */\n      0x41\n        /* \"#utility.yul\":1265:1266   */\n      0x04\n        /* \"#utility.yul\":1258:1273   */\n      mstore\n        /* \"#utility.yul\":1292:1296   */\n      0x24\n        /* \"#utility.yul\":1289:1290   */\n      0x00\n        /* \"#utility.yul\":1282:1297   */\n      revert\n        /* \"#utility.yul\":1309:1590   */\n    tag_67:\n        /* \"#utility.yul\":1392:1419   */\n      tag_117\n        /* \"#utility.yul\":1414:1418   */\n      dup3\n        /* \"#utility.yul\":1392:1419   */\n      tag_65\n      jump\t// in\n    tag_117:\n        /* \"#utility.yul\":1384:1390   */\n      dup2\n        /* \"#utility.yul\":1380:1420   */\n      add\n        /* \"#utility.yul\":1522:1528   */\n      dup2\n        /* \"#utility.yul\":1510:1520   */\n      dup2\n        /* \"#utility.yul\":1507:1529   */\n      lt\n        /* \"#utility.yul\":1486:1504   */\n      0xffffffffffffffff\n        /* \"#utility.yul\":1474:1484   */\n      dup3\n        /* \"#utility.yul\":1471:1505   */\n      gt\n        /* \"#utility.yul\":1468:1530   */\n      or\n        /* \"#utility.yul\":1465:1553   */\n      iszero\n      tag_118\n      jumpi\n        /* \"#utility.yul\":1533:1551   */\n      tag_119\n      tag_66\n      jump\t// in\n    tag_119:\n        /* \"#utility.yul\":1465:1553   */\n    tag_118:\n        /* \"#utility.yul\":1573:1583   */\n      dup1\n        /* \"#utility.yul\":1569:1571   */\n      0x40\n        /* \"#utility.yul\":1562:1584   */\n      mstore\n        /* \"#utility.yul\":1352:1590   */\n      pop\n        /* \"#utility.yul\":1309:1590   */\n      pop\n      pop\n      jump\t// out\n        /* \"#utility.yul\":1596:1725   */\n    tag_68:\n        /* \"#utility.yul\":1630:1636   */\n      0x00\n        /* \"#utility.yul\":1657:1677   */\n      tag_121\n      tag_60\n      jump\t// in\n    tag_121:\n        /* \"#utility.yul\":1647:1677   */\n      swap1\n      pop\n        /* \"#utility.yul\":1686:1719   */\n      tag_122\n        /* \"#utility.yul\":1714:1718   */\n      dup3\n        /* \"#utility.yul\":1706:1712   */\n      dup3\n        /* \"#utility.yul\":1686:1719   */\n      tag_67\n      jump\t// in\n    tag_122:\n        /* \"#utility.yul\":1596:1725   */\n      swap2\n      swap1\n      pop\n      jump\t// out\n        /* \"#utility.yul\":1731:2039   */\n    tag_69:\n        /* \"#utility.yul\":1793:1797   */\n      0x00\n        /* \"#utility.yul\":1883:1901   */\n      0xffffffffffffffff\n        /* \"#utility.yul\":1875:1881   */\n      dup3\n        /* \"#utility.yul\":1872:1902   */\n      gt\n        /* \"#utility.yul\":1869:1925   */\n      iszero\n      tag_124\n      jumpi\n        /* \"#utility.yul\":1905:1923   */\n      tag_125\n      tag_66\n      jump\t// in\n    tag_125:\n        /* \"#utility.yul\":1869:1925   */\n    tag_124:\n        /* \"#utility.yul\":1943:1972   */\n      tag_126\n        /* \"#utility.yul\":1965:1971   */\n      dup3\n        /* \"#utility.yul\":1943:1972   */\n      tag_65\n      jump\t// in\n    tag_126:\n        /* \"#utility.yul\":1935:1972   */\n      swap1\n      pop\n        /* \"#utility.yul\":2027:2031   */\n      0x20\n        /* \"#utility.yul\":2021:2025   */\n      dup2\n        /* \"#utility.yul\":2017:2032   */\n      add\n        /* \"#utility.yul\":2009:2032   */\n      swap1\n      pop\n        /* \"#utility.yul\":1731:2039   */\n      swap2\n      swap1\n      pop\n      jump\t// out\n        /* \"#utility.yul\":2045:2193   */\n    tag_70:\n        /* \"#utility.yul\":2143:2149   */\n      dup3\n        /* \"#utility.yul\":2138:2141   */\n      dup2\n        /* \"#utility.yul\":2133:2136   */\n      dup4\n        /* \"#utility.yul\":2120:2150   */\n      calldatacopy\n        /* \"#utility.yul\":2184:2185   */\n      0x00\n        /* \"#utility.yul\":2175:2181   */\n      dup4\n        /* \"#utility.yul\":2170:2173   */\n      dup4\n        /* \"#utility.yul\":2166:2182   */\n      add\n        /* \"#utility.yul\":2159:2186   */\n      mstore\n        /* \"#utility.yul\":2045:2193   */\n      pop\n      pop\n      pop\n      jump\t// out\n        /* \"#utility.yul\":2199:2624   */\n    tag_71:\n        /* \"#utility.yul\":2277:2282   */\n      0x00\n        /* \"#utility.yul\":2302:2368   */\n      tag_129\n        /* \"#utility.yul\":2318:2367   */\n      tag_130\n        /* \"#utility.yul\":2360:2366   */\n      dup5\n        /* \"#utility.yul\":2318:2367   */\n      tag_69\n      jump\t// in\n    tag_130:\n        /* \"#utility.yul\":2302:2368   */\n      tag_68\n      jump\t// in\n    tag_129:\n        /* \"#utility.yul\":2293:2368   */\n      swap1\n      pop\n        /* \"#utility.yul\":2391:2397   */\n      dup3\n        /* \"#utility.yul\":2384:2389   */\n      dup2\n        /* \"#utility.yul\":2377:2398   */\n      mstore\n        /* \"#utility.yul\":2429:2433   */\n      0x20\n        /* \"#utility.yul\":2422:2427   */\n      dup2\n        /* \"#utility.yul\":2418:2434   */\n      add\n        /* \"#utility.yul\":2467:2470   */\n      dup5\n        /* \"#utility.yul\":2458:2464   */\n      dup5\n        /* \"#utility.yul\":2453:2456   */\n      dup5\n        /* \"#utility.yul\":2449:2465   */\n      add\n        /* \"#utility.yul\":2446:2471   */\n      gt\n        /* \"#utility.yul\":2443:2555   */\n      iszero\n      tag_131\n      jumpi\n        /* \"#utility.yul\":2474:2553   */\n      tag_132\n      tag_64\n      jump\t// in\n    tag_132:\n        /* \"#utility.yul\":2443:2555   */\n    tag_131:\n        /* \"#utility.yul\":2564:2618   */\n      tag_133\n        /* \"#utility.yul\":2611:2617   */\n      dup5\n        /* \"#utility.yul\":2606:2609   */\n      dup3\n        /* \"#utility.yul\":2601:2604   */\n      dup6\n        /* \"#utility.yul\":2564:2618   */\n      tag_70\n      jump\t// in\n    tag_133:\n        /* \"#utility.yul\":2283:2624   */\n      pop\n        /* \"#utility.yul\":2199:2624   */\n      swap4\n      swap3\n      pop\n      pop\n      pop\n      jump\t// out\n        /* \"#utility.yul\":2644:2984   */\n    tag_72:\n        /* \"#utility.yul\":2700:2705   */\n      0x00\n        /* \"#utility.yul\":2749:2752   */\n      dup3\n        /* \"#utility.yul\":2742:2746   */\n      0x1f\n        /* \"#utility.yul\":2734:2740   */\n      dup4\n        /* \"#utility.yul\":2730:2747   */\n      add\n        /* \"#utility.yul\":2726:2753   */\n      slt\n        /* \"#utility.yul\":2716:2838   */\n      tag_135\n      jumpi\n        /* \"#utility.yul\":2757:2836   */\n      tag_136\n      tag_63\n      jump\t// in\n    tag_136:\n        /* \"#utility.yul\":2716:2838   */\n    tag_135:\n        /* \"#utility.yul\":2874:2880   */\n      dup2\n        /* \"#utility.yul\":2861:2881   */\n      calldataload\n        /* \"#utility.yul\":2899:2978   */\n      tag_137\n        /* \"#utility.yul\":2974:2977   */\n      dup5\n        /* \"#utility.yul\":2966:2972   */\n      dup3\n        /* \"#utility.yul\":2959:2963   */\n      0x20\n        /* \"#utility.yul\":2951:2957   */\n      dup7\n        /* \"#utility.yul\":2947:2964   */\n      add\n        /* \"#utility.yul\":2899:2978   */\n      tag_71\n      jump\t// in\n    tag_137:\n        /* \"#utility.yul\":2890:2978   */\n      swap2\n      pop\n        /* \"#utility.yul\":2706:2984   */\n      pop\n        /* \"#utility.yul\":2644:2984   */\n      swap3\n      swap2\n      pop\n      pop\n      jump\t// out\n        /* \"#utility.yul\":2990:3116   */\n    tag_73:\n        /* \"#utility.yul\":3027:3034   */\n      0x00\n        /* \"#utility.yul\":3067:3109   */\n      0xffffffffffffffffffffffffffffffffffffffff\n        /* \"#utility.yul\":3060:3065   */\n      dup3\n        /* \"#utility.yul\":3056:3110   */\n      and\n        /* \"#utility.yul\":3045:3110   */\n      swap1\n      pop\n        /* \"#utility.yul\":2990:3116   */\n      swap2\n      swap1\n      pop\n      jump\t// out\n        /* \"#utility.yul\":3122:3218   */\n    tag_74:\n        /* \"#utility.yul\":3159:3166   */\n      0x00\n        /* \"#utility.yul\":3188:3212   */\n      tag_140\n        /* \"#utility.yul\":3206:3211   */\n      dup3\n        /* \"#utility.yul\":3188:3212   */\n      tag_73\n      jump\t// in\n    tag_140:\n        /* \"#utility.yul\":3177:3212   */\n      swap1\n      pop\n        /* \"#utility.yul\":3122:3218   */\n      swap2\n      swap1\n      pop\n      jump\t// out\n        /* \"#utility.yul\":3224:3346   */\n    tag_75:\n        /* \"#utility.yul\":3297:3321   */\n      tag_142\n        /* \"#utility.yul\":3315:3320   */\n      dup2\n        /* \"#utility.yul\":3297:3321   */\n      tag_74\n      jump\t// in\n    tag_142:\n        /* \"#utility.yul\":3290:3295   */\n      dup2\n        /* \"#utility.yul\":3287:3322   */\n      eq\n        /* \"#utility.yul\":3277:3340   */\n      tag_143\n      jumpi\n        /* \"#utility.yul\":3336:3337   */\n      0x00\n        /* \"#utility.yul\":3333:3334   */\n      dup1\n        /* \"#utility.yul\":3326:3338   */\n      revert\n        /* \"#utility.yul\":3277:3340   */\n    tag_143:\n        /* \"#utility.yul\":3224:3346   */\n      pop\n      jump\t// out\n        /* \"#utility.yul\":3352:3491   */\n    tag_76:\n        /* \"#utility.yul\":3398:3403   */\n      0x00\n        /* \"#utility.yul\":3436:3442   */\n      dup2\n        /* \"#utility.yul\":3423:3443   */\n      calldataload\n        /* \"#utility.yul\":3414:3443   */\n      swap1\n      pop\n        /* \"#utility.yul\":3452:3485   */\n      tag_145\n        /* \"#utility.yul\":3479:3484   */\n      dup2\n        /* \"#utility.yul\":3452:3485   */\n      tag_75\n      jump\t// in\n    tag_145:\n        /* \"#utility.yul\":3352:3491   */\n      swap3\n      swap2\n      pop\n      pop\n      jump\t// out\n        /* \"#utility.yul\":3497:4476   */\n    tag_15:\n        /* \"#utility.yul\":3594:3600   */\n      0x00\n        /* \"#utility.yul\":3602:3608   */\n      dup1\n        /* \"#utility.yul\":3610:3616   */\n      0x00\n        /* \"#utility.yul\":3659:3661   */\n      0x60\n        /* \"#utility.yul\":3647:3656   */\n      dup5\n        /* \"#utility.yul\":3638:3645   */\n      dup7\n        /* \"#utility.yul\":3634:3657   */\n      sub\n        /* \"#utility.yul\":3630:3662   */\n      slt\n        /* \"#utility.yul\":3627:3746   */\n      iszero\n      tag_147\n      jumpi\n        /* \"#utility.yul\":3665:3744   */\n      tag_148\n      tag_61\n      jump\t// in\n    tag_148:\n        /* \"#utility.yul\":3627:3746   */\n    tag_147:\n        /* \"#utility.yul\":3813:3814   */\n      0x00\n        /* \"#utility.yul\":3802:3811   */\n      dup5\n        /* \"#utility.yul\":3798:3815   */\n      add\n        /* \"#utility.yul\":3785:3816   */\n      calldataload\n        /* \"#utility.yul\":3843:3861   */\n      0xffffffffffffffff\n        /* \"#utility.yul\":3835:3841   */\n      dup2\n        /* \"#utility.yul\":3832:3862   */\n      gt\n        /* \"#utility.yul\":3829:3946   */\n      iszero\n      tag_149\n      jumpi\n        /* \"#utility.yul\":3865:3944   */\n      tag_150\n      tag_62\n      jump\t// in\n    tag_150:\n        /* \"#utility.yul\":3829:3946   */\n    tag_149:\n        /* \"#utility.yul\":3970:4033   */\n      tag_151\n        /* \"#utility.yul\":4025:4032   */\n      dup7\n        /* \"#utility.yul\":4016:4022   */\n      dup3\n        /* \"#utility.yul\":4005:4014   */\n      dup8\n        /* \"#utility.yul\":4001:4023   */\n      add\n        /* \"#utility.yul\":3970:4033   */\n      tag_72\n      jump\t// in\n    tag_151:\n        /* \"#utility.yul\":3960:4033   */\n      swap4\n      pop\n        /* \"#utility.yul\":3756:4043   */\n      pop\n        /* \"#utility.yul\":4110:4112   */\n      0x20\n        /* \"#utility.yul\":4099:4108   */\n      dup5\n        /* \"#utility.yul\":4095:4113   */\n      add\n        /* \"#utility.yul\":4082:4114   */\n      calldataload\n        /* \"#utility.yul\":4141:4159   */\n      0xffffffffffffffff\n        /* \"#utility.yul\":4133:4139   */\n      dup2\n        /* \"#utility.yul\":4130:4160   */\n      gt\n        /* \"#utility.yul\":4127:4244   */\n      iszero\n      tag_152\n      jumpi\n        /* \"#utility.yul\":4163:4242   */\n      tag_153\n      tag_62\n      jump\t// in\n    tag_153:\n        /* \"#utility.yul\":4127:4244   */\n    tag_152:\n        /* \"#utility.yul\":4268:4331   */\n      tag_154\n        /* \"#utility.yul\":4323:4330   */\n      dup7\n        /* \"#utility.yul\":4314:4320   */\n      dup3\n        /* \"#utility.yul\":4303:4312   */\n      dup8\n        /* \"#utility.yul\":4299:4321   */\n      add\n        /* \"#utility.yul\":4268:4331   */\n      tag_72\n      jump\t// in\n    tag_154:\n        /* \"#utility.yul\":4258:4331   */\n      swap3\n      pop\n        /* \"#utility.yul\":4053:4341   */\n      pop\n        /* \"#utility.yul\":4380:4382   */\n      0x40\n        /* \"#utility.yul\":4406:4459   */\n      tag_155\n        /* \"#utility.yul\":4451:4458   */\n      dup7\n        /* \"#utility.yul\":4442:4448   */\n      dup3\n        /* \"#utility.yul\":4431:4440   */\n      dup8\n        /* \"#utility.yul\":4427:4449   */\n      add\n        /* \"#utility.yul\":4406:4459   */\n      tag_76\n      jump\t// in\n    tag_155:\n        /* \"#utility.yul\":4396:4459   */\n      swap2\n      pop\n        /* \"#utility.yul\":4351:4469   */\n      pop\n        /* \"#utility.yul\":3497:4476   */\n      swap3\n      pop\n      swap3\n      pop\n      swap3\n      jump\t// out\n        /* \"#utility.yul\":4482:4600   */\n    tag_77:\n        /* \"#utility.yul\":4569:4593   */\n      tag_157\n        /* \"#utility.yul\":4587:4592   */\n      dup2\n        /* \"#utility.yul\":4569:4593   */\n      tag_74\n      jump\t// in\n    tag_157:\n        /* \"#utility.yul\":4564:4567   */\n      dup3\n        /* \"#utility.yul\":4557:4594   */\n      mstore\n        /* \"#utility.yul\":4482:4600   */\n      pop\n      pop\n      jump\t// out\n        /* \"#utility.yul\":4606:4828   */\n    tag_18:\n        /* \"#utility.yul\":4699:4703   */\n      0x00\n        /* \"#utility.yul\":4737:4739   */\n      0x20\n        /* \"#utility.yul\":4726:4735   */\n      dup3\n        /* \"#utility.yul\":4722:4740   */\n      add\n        /* \"#utility.yul\":4714:4740   */\n      swap1\n      pop\n        /* \"#utility.yul\":4750:4821   */\n      tag_159\n        /* \"#utility.yul\":4818:4819   */\n      0x00\n        /* \"#utility.yul\":4807:4816   */\n      dup4\n        /* \"#utility.yul\":4803:4820   */\n      add\n        /* \"#utility.yul\":4794:4800   */\n      dup5\n        /* \"#utility.yul\":4750:4821   */\n      tag_77\n      jump\t// in\n    tag_159:\n        /* \"#utility.yul\":4606:4828   */\n      swap3\n      swap2\n      pop\n      pop\n      jump\t// out\n        /* \"#utility.yul\":4834:5163   */\n    tag_21:\n        /* \"#utility.yul\":4893:4899   */\n      0x00\n        /* \"#utility.yul\":4942:4944   */\n      0x20\n        /* \"#utility.yul\":4930:4939   */\n      dup3\n        /* \"#utility.yul\":4921:4928   */\n      dup5\n        /* \"#utility.yul\":4917:4940   */\n      sub\n        /* \"#utility.yul\":4913:4945   */\n      slt\n        /* \"#utility.yul\":4910:5029   */\n      iszero\n      tag_161\n      jumpi\n        /* \"#utility.yul\":4948:5027   */\n      tag_162\n      tag_61\n      jump\t// in\n    tag_162:\n        /* \"#utility.yul\":4910:5029   */\n    tag_161:\n        /* \"#utility.yul\":5068:5069   */\n      0x00\n        /* \"#utility.yul\":5093:5146   */\n      tag_163\n        /* \"#utility.yul\":5138:5145   */\n      dup5\n        /* \"#utility.yul\":5129:5135   */\n      dup3\n        /* \"#utility.yul\":5118:5127   */\n      dup6\n        /* \"#utility.yul\":5114:5136   */\n      add\n        /* \"#utility.yul\":5093:5146   */\n      tag_76\n      jump\t// in\n    tag_163:\n        /* \"#utility.yul\":5083:5146   */\n      swap2\n      pop\n        /* \"#utility.yul\":5039:5156   */\n      pop\n        /* \"#utility.yul\":4834:5163   */\n      swap3\n      swap2\n      pop\n      pop\n      jump\t// out\n        /* \"#utility.yul\":5169:5291   */\n    tag_78:\n        /* \"#utility.yul\":5242:5266   */\n      tag_165\n        /* \"#utility.yul\":5260:5265   */\n      dup2\n        /* \"#utility.yul\":5242:5266   */\n      tag_58\n      jump\t// in\n    tag_165:\n        /* \"#utility.yul\":5235:5240   */\n      dup2\n        /* \"#utility.yul\":5232:5267   */\n      eq\n        /* \"#utility.yul\":5222:5285   */\n      tag_166\n      jumpi\n        /* \"#utility.yul\":5281:5282   */\n      0x00\n        /* \"#utility.yul\":5278:5279   */\n      dup1\n        /* \"#utility.yul\":5271:5283   */\n      revert\n        /* \"#utility.yul\":5222:5285   */\n    tag_166:\n        /* \"#utility.yul\":5169:5291   */\n      pop\n      jump\t// out\n        /* \"#utility.yul\":5297:5436   */\n    tag_79:\n        /* \"#utility.yul\":5343:5348   */\n      0x00\n        /* \"#utility.yul\":5381:5387   */\n      dup2\n        /* \"#utility.yul\":5368:5388   */\n      calldataload\n        /* \"#utility.yul\":5359:5388   */\n      swap1\n      pop\n        /* \"#utility.yul\":5397:5430   */\n      tag_168\n        /* \"#utility.yul\":5424:5429   */\n      dup2\n        /* \"#utility.yul\":5397:5430   */\n      tag_78\n      jump\t// in\n    tag_168:\n        /* \"#utility.yul\":5297:5436   */\n      swap3\n      swap2\n      pop\n      pop\n      jump\t// out\n        /* \"#utility.yul\":5442:5771   */\n    tag_26:\n        /* \"#utility.yul\":5501:5507   */\n      0x00\n        /* \"#utility.yul\":5550:5552   */\n      0x20\n        /* \"#utility.yul\":5538:5547   */\n      dup3\n        /* \"#utility.yul\":5529:5536   */\n      dup5\n        /* \"#utility.yul\":5525:5548   */\n      sub\n        /* \"#utility.yul\":5521:5553   */\n      slt\n        /* \"#utility.yul\":5518:5637   */\n      iszero\n      tag_170\n      jumpi\n        /* \"#utility.yul\":5556:5635   */\n      tag_171\n      tag_61\n      jump\t// in\n    tag_171:\n        /* \"#utility.yul\":5518:5637   */\n    tag_170:\n        /* \"#utility.yul\":5676:5677   */\n      0x00\n        /* \"#utility.yul\":5701:5754   */\n      tag_172\n        /* \"#utility.yul\":5746:5753   */\n      dup5\n        /* \"#utility.yul\":5737:5743   */\n      dup3\n        /* \"#utility.yul\":5726:5735   */\n      dup6\n        /* \"#utility.yul\":5722:5744   */\n      add\n        /* \"#utility.yul\":5701:5754   */\n      tag_79\n      jump\t// in\n    tag_172:\n        /* \"#utility.yul\":5691:5754   */\n      swap2\n      pop\n        /* \"#utility.yul\":5647:5764   */\n      pop\n        /* \"#utility.yul\":5442:5771   */\n      swap3\n      swap2\n      pop\n      pop\n      jump\t// out\n        /* \"#utility.yul\":5777:5876   */\n    tag_80:\n        /* \"#utility.yul\":5829:5835   */\n      0x00\n        /* \"#utility.yul\":5863:5868   */\n      dup2\n        /* \"#utility.yul\":5857:5869   */\n      mload\n        /* \"#utility.yul\":5847:5869   */\n      swap1\n      pop\n        /* \"#utility.yul\":5777:5876   */\n      swap2\n      swap1\n      pop\n      jump\t// out\n        /* \"#utility.yul\":5882:6051   */\n    tag_81:\n        /* \"#utility.yul\":5966:5977   */\n      0x00\n        /* \"#utility.yul\":6000:6006   */\n      dup3\n        /* \"#utility.yul\":5995:5998   */\n      dup3\n        /* \"#utility.yul\":5988:6007   */\n      mstore\n        /* \"#utility.yul\":6040:6044   */\n      0x20\n        /* \"#utility.yul\":6035:6038   */\n      dup3\n        /* \"#utility.yul\":6031:6045   */\n      add\n        /* \"#utility.yul\":6016:6045   */\n      swap1\n      pop\n        /* \"#utility.yul\":5882:6051   */\n      swap3\n      swap2\n      pop\n      pop\n      jump\t// out\n        /* \"#utility.yul\":6057:6196   */\n    tag_82:\n        /* \"#utility.yul\":6146:6152   */\n      dup3\n        /* \"#utility.yul\":6141:6144   */\n      dup2\n        /* \"#utility.yul\":6136:6139   */\n      dup4\n        /* \"#utility.yul\":6130:6153   */\n      mcopy\n        /* \"#utility.yul\":6187:6188   */\n      0x00\n        /* \"#utility.yul\":6178:6184   */\n      dup4\n        /* \"#utility.yul\":6173:6176   */\n      dup4\n        /* \"#utility.yul\":6169:6185   */\n      add\n        /* \"#utility.yul\":6162:6189   */\n      mstore\n        /* \"#utility.yul\":6057:6196   */\n      pop\n      pop\n      pop\n      jump\t// out\n        /* \"#utility.yul\":6202:6579   */\n    tag_83:\n        /* \"#utility.yul\":6290:6293   */\n      0x00\n        /* \"#utility.yul\":6318:6357   */\n      tag_177\n        /* \"#utility.yul\":6351:6356   */\n      dup3\n        /* \"#utility.yul\":6318:6357   */\n      tag_80\n      jump\t// in\n    tag_177:\n        /* \"#utility.yul\":6373:6444   */\n      tag_178\n        /* \"#utility.yul\":6437:6443   */\n      dup2\n        /* \"#utility.yul\":6432:6435   */\n      dup6\n        /* \"#utility.yul\":6373:6444   */\n      tag_81\n      jump\t// in\n    tag_178:\n        /* \"#utility.yul\":6366:6444   */\n      swap4\n      pop\n        /* \"#utility.yul\":6453:6518   */\n      tag_179\n        /* \"#utility.yul\":6511:6517   */\n      dup2\n        /* \"#utility.yul\":6506:6509   */\n      dup6\n        /* \"#utility.yul\":6499:6503   */\n      0x20\n        /* \"#utility.yul\":6492:6497   */\n      dup7\n        /* \"#utility.yul\":6488:6504   */\n      add\n        /* \"#utility.yul\":6453:6518   */\n      tag_82\n      jump\t// in\n    tag_179:\n        /* \"#utility.yul\":6543:6572   */\n      tag_180\n        /* \"#utility.yul\":6565:6571   */\n      dup2\n        /* \"#utility.yul\":6543:6572   */\n      tag_65\n      jump\t// in\n    tag_180:\n        /* \"#utility.yul\":6538:6541   */\n      dup5\n        /* \"#utility.yul\":6534:6573   */\n      add\n        /* \"#utility.yul\":6527:6573   */\n      swap2\n      pop\n        /* \"#utility.yul\":6294:6579   */\n      pop\n        /* \"#utility.yul\":6202:6579   */\n      swap3\n      swap2\n      pop\n      pop\n      jump\t// out\n        /* \"#utility.yul\":6585:6898   */\n    tag_36:\n        /* \"#utility.yul\":6698:6702   */\n      0x00\n        /* \"#utility.yul\":6736:6738   */\n      0x20\n        /* \"#utility.yul\":6725:6734   */\n      dup3\n        /* \"#utility.yul\":6721:6739   */\n      add\n        /* \"#utility.yul\":6713:6739   */\n      swap1\n      pop\n        /* \"#utility.yul\":6785:6794   */\n      dup2\n        /* \"#utility.yul\":6779:6783   */\n      dup2\n        /* \"#utility.yul\":6775:6795   */\n      sub\n        /* \"#utility.yul\":6771:6772   */\n      0x00\n        /* \"#utility.yul\":6760:6769   */\n      dup4\n        /* \"#utility.yul\":6756:6773   */\n      add\n        /* \"#utility.yul\":6749:6796   */\n      mstore\n        /* \"#utility.yul\":6813:6891   */\n      tag_182\n        /* \"#utility.yul\":6886:6890   */\n      dup2\n        /* \"#utility.yul\":6877:6883   */\n      dup5\n        /* \"#utility.yul\":6813:6891   */\n      tag_83\n      jump\t// in\n    tag_182:\n        /* \"#utility.yul\":6805:6891   */\n      swap1\n      pop\n        /* \"#utility.yul\":6585:6898   */\n      swap3\n      swap2\n      pop\n      pop\n      jump\t// out\n        /* \"#utility.yul\":6904:7130   */\n    tag_84:\n        /* \"#utility.yul\":7044:7078   */\n      0x74686973206163636f756e7420686173206265656e2063726561746564206f6e\n        /* \"#utility.yul\":7040:7041   */\n      0x00\n        /* \"#utility.yul\":7032:7038   */\n      dup3\n        /* \"#utility.yul\":7028:7042   */\n      add\n        /* \"#utility.yul\":7021:7079   */\n      mstore\n        /* \"#utility.yul\":7113:7122   */\n      0x6520617373657400000000000000000000000000000000000000000000000000\n        /* \"#utility.yul\":7108:7110   */\n      0x20\n        /* \"#utility.yul\":7100:7106   */\n      dup3\n        /* \"#utility.yul\":7096:7111   */\n      add\n        /* \"#utility.yul\":7089:7123   */\n      mstore\n        /* \"#utility.yul\":6904:7130   */\n      pop\n      jump\t// out\n        /* \"#utility.yul\":7136:7502   */\n    tag_85:\n        /* \"#utility.yul\":7278:7281   */\n      0x00\n        /* \"#utility.yul\":7299:7366   */\n      tag_185\n        /* \"#utility.yul\":7363:7365   */\n      0x27\n        /* \"#utility.yul\":7358:7361   */\n      dup4\n        /* \"#utility.yul\":7299:7366   */\n      tag_81\n      jump\t// in\n    tag_185:\n        /* \"#utility.yul\":7292:7366   */\n      swap2\n      pop\n        /* \"#utility.yul\":7375:7468   */\n      tag_186\n        /* \"#utility.yul\":7464:7467   */\n      dup3\n        /* \"#utility.yul\":7375:7468   */\n      tag_84\n      jump\t// in\n    tag_186:\n        /* \"#utility.yul\":7493:7495   */\n      0x40\n        /* \"#utility.yul\":7488:7491   */\n      dup3\n        /* \"#utility.yul\":7484:7496   */\n      add\n        /* \"#utility.yul\":7477:7496   */\n      swap1\n      pop\n        /* \"#utility.yul\":7136:7502   */\n      swap2\n      swap1\n      pop\n      jump\t// out\n        /* \"#utility.yul\":7508:7927   */\n    tag_42:\n        /* \"#utility.yul\":7674:7678   */\n      0x00\n        /* \"#utility.yul\":7712:7714   */\n      0x20\n        /* \"#utility.yul\":7701:7710   */\n      dup3\n        /* \"#utility.yul\":7697:7715   */\n      add\n        /* \"#utility.yul\":7689:7715   */\n      swap1\n      pop\n        /* \"#utility.yul\":7761:7770   */\n      dup2\n        /* \"#utility.yul\":7755:7759   */\n      dup2\n        /* \"#utility.yul\":7751:7771   */\n      sub\n        /* \"#utility.yul\":7747:7748   */\n      0x00\n        /* \"#utility.yul\":7736:7745   */\n      dup4\n        /* \"#utility.yul\":7732:7749   */\n      add\n        /* \"#utility.yul\":7725:7772   */\n      mstore\n        /* \"#utility.yul\":7789:7920   */\n      tag_188\n        /* \"#utility.yul\":7915:7919   */\n      dup2\n        /* \"#utility.yul\":7789:7920   */\n      tag_85\n      jump\t// in\n    tag_188:\n        /* \"#utility.yul\":7781:7920   */\n      swap1\n      pop\n        /* \"#utility.yul\":7508:7927   */\n      swap2\n      swap1\n      pop\n      jump\t// out\n        /* \"#utility.yul\":7933:8447   */\n    tag_46:\n        /* \"#utility.yul\":8094:8098   */\n      0x00\n        /* \"#utility.yul\":8132:8134   */\n      0x40\n        /* \"#utility.yul\":8121:8130   */\n      dup3\n        /* \"#utility.yul\":8117:8135   */\n      add\n        /* \"#utility.yul\":8109:8135   */\n      swap1\n      pop\n        /* \"#utility.yul\":8181:8190   */\n      dup2\n        /* \"#utility.yul\":8175:8179   */\n      dup2\n        /* \"#utility.yul\":8171:8191   */\n      sub\n        /* \"#utility.yul\":8167:8168   */\n      0x00\n        /* \"#utility.yul\":8156:8165   */\n      dup4\n        /* \"#utility.yul\":8152:8169   */\n      add\n        /* \"#utility.yul\":8145:8192   */\n      mstore\n        /* \"#utility.yul\":8209:8287   */\n      tag_190\n        /* \"#utility.yul\":8282:8286   */\n      dup2\n        /* \"#utility.yul\":8273:8279   */\n      dup6\n        /* \"#utility.yul\":8209:8287   */\n      tag_83\n      jump\t// in\n    tag_190:\n        /* \"#utility.yul\":8201:8287   */\n      swap1\n      pop\n        /* \"#utility.yul\":8334:8343   */\n      dup2\n        /* \"#utility.yul\":8328:8332   */\n      dup2\n        /* \"#utility.yul\":8324:8344   */\n      sub\n        /* \"#utility.yul\":8319:8321   */\n      0x20\n        /* \"#utility.yul\":8308:8317   */\n      dup4\n        /* \"#utility.yul\":8304:8322   */\n      add\n        /* \"#utility.yul\":8297:8345   */\n      mstore\n        /* \"#utility.yul\":8362:8440   */\n      tag_191\n        /* \"#utility.yul\":8435:8439   */\n      dup2\n        /* \"#utility.yul\":8426:8432   */\n      dup5\n        /* \"#utility.yul\":8362:8440   */\n      tag_83\n      jump\t// in\n    tag_191:\n        /* \"#utility.yul\":8354:8440   */\n      swap1\n      pop\n        /* \"#utility.yul\":7933:8447   */\n      swap4\n      swap3\n      pop\n      pop\n      pop\n      jump\t// out\n        /* \"#utility.yul\":8453:8633   */\n    tag_86:\n        /* \"#utility.yul\":8501:8578   */\n      0x4e487b7100000000000000000000000000000000000000000000000000000000\n        /* \"#utility.yul\":8498:8499   */\n      0x00\n        /* \"#utility.yul\":8491:8579   */\n      mstore\n        /* \"#utility.yul\":8598:8602   */\n      0x22\n        /* \"#utility.yul\":8595:8596   */\n      0x04\n        /* \"#utility.yul\":8588:8603   */\n      mstore\n        /* \"#utility.yul\":8622:8626   */\n      0x24\n        /* \"#utility.yul\":8619:8620   */\n      0x00\n        /* \"#utility.yul\":8612:8627   */\n      revert\n        /* \"#utility.yul\":8639:8959   */\n    tag_53:\n        /* \"#utility.yul\":8683:8689   */\n      0x00\n        /* \"#utility.yul\":8720:8721   */\n      0x02\n        /* \"#utility.yul\":8714:8718   */\n      dup3\n        /* \"#utility.yul\":8710:8722   */\n      div\n        /* \"#utility.yul\":8700:8722   */\n      swap1\n      pop\n        /* \"#utility.yul\":8767:8768   */\n      0x01\n        /* \"#utility.yul\":8761:8765   */\n      dup3\n        /* \"#utility.yul\":8757:8769   */\n      and\n        /* \"#utility.yul\":8788:8806   */\n      dup1\n        /* \"#utility.yul\":8778:8859   */\n      tag_194\n      jumpi\n        /* \"#utility.yul\":8844:8848   */\n      0x7f\n        /* \"#utility.yul\":8836:8842   */\n      dup3\n        /* \"#utility.yul\":8832:8849   */\n      and\n        /* \"#utility.yul\":8822:8849   */\n      swap2\n      pop\n        /* \"#utility.yul\":8778:8859   */\n    tag_194:\n        /* \"#utility.yul\":8906:8908   */\n      0x20\n        /* \"#utility.yul\":8898:8904   */\n      dup3\n        /* \"#utility.yul\":8895:8909   */\n      lt\n        /* \"#utility.yul\":8875:8893   */\n      dup2\n        /* \"#utility.yul\":8872:8910   */\n      sub\n        /* \"#utility.yul\":8869:8953   */\n      tag_195\n      jumpi\n        /* \"#utility.yul\":8925:8943   */\n      tag_196\n      tag_86\n      jump\t// in\n    tag_196:\n        /* \"#utility.yul\":8869:8953   */\n    tag_195:\n        /* \"#utility.yul\":8690:8959   */\n      pop\n        /* \"#utility.yul\":8639:8959   */\n      swap2\n      swap1\n      pop\n      jump\t// out\n        /* \"#utility.yul\":8965:9106   */\n    tag_87:\n        /* \"#utility.yul\":9014:9018   */\n      0x00\n        /* \"#utility.yul\":9037:9040   */\n      dup2\n        /* \"#utility.yul\":9029:9040   */\n      swap1\n      pop\n        /* \"#utility.yul\":9060:9063   */\n      dup2\n        /* \"#utility.yul\":9057:9058   */\n      0x00\n        /* \"#utility.yul\":9050:9064   */\n      mstore\n        /* \"#utility.yul\":9094:9098   */\n      0x20\n        /* \"#utility.yul\":9091:9092   */\n      0x00\n        /* \"#utility.yul\":9081:9099   */\n      keccak256\n        /* \"#utility.yul\":9073:9099   */\n      swap1\n      pop\n        /* \"#utility.yul\":8965:9106   */\n      swap2\n      swap1\n      pop\n      jump\t// out\n        /* \"#utility.yul\":9112:9205   */\n    tag_88:\n        /* \"#utility.yul\":9149:9155   */\n      0x00\n        /* \"#utility.yul\":9196:9198   */\n      0x20\n        /* \"#utility.yul\":9191:9193   */\n      0x1f\n        /* \"#utility.yul\":9184:9189   */\n      dup4\n        /* \"#utility.yul\":9180:9194   */\n      add\n        /* \"#utility.yul\":9176:9199   */\n      div\n        /* \"#utility.yul\":9166:9199   */\n      swap1\n      pop\n        /* \"#utility.yul\":9112:9205   */\n      swap2\n      swap1\n      pop\n      jump\t// out\n        /* \"#utility.yul\":9211:9318   */\n    tag_89:\n        /* \"#utility.yul\":9255:9263   */\n      0x00\n        /* \"#utility.yul\":9305:9310   */\n      dup3\n        /* \"#utility.yul\":9299:9303   */\n      dup3\n        /* \"#utility.yul\":9295:9311   */\n      shl\n        /* \"#utility.yul\":9274:9311   */\n      swap1\n      pop\n        /* \"#utility.yul\":9211:9318   */\n      swap3\n      swap2\n      pop\n      pop\n      jump\t// out\n        /* \"#utility.yul\":9324:9717   */\n    tag_90:\n        /* \"#utility.yul\":9393:9399   */\n      0x00\n        /* \"#utility.yul\":9443:9444   */\n      0x08\n        /* \"#utility.yul\":9431:9441   */\n      dup4\n        /* \"#utility.yul\":9427:9445   */\n      mul\n        /* \"#utility.yul\":9466:9563   */\n      tag_201\n        /* \"#utility.yul\":9496:9562   */\n      0xffffffffffffffffffffffffffffffffffffffffffffffffffffffffffffffff\n        /* \"#utility.yul\":9485:9494   */\n      dup3\n        /* \"#utility.yul\":9466:9563   */\n      tag_89\n      jump\t// in\n    tag_201:\n        /* \"#utility.yul\":9584:9623   */\n      tag_202\n        /* \"#utility.yul\":9614:9622   */\n      dup7\n        /* \"#utility.yul\":9603:9612   */\n      dup4\n        /* \"#utility.yul\":9584:9623   */\n      tag_89\n      jump\t// in\n    tag_202:\n        /* \"#utility.yul\":9572:9623   */\n      swap6\n      pop\n        /* \"#utility.yul\":9656:9660   */\n      dup1\n        /* \"#utility.yul\":9652:9661   */\n      not\n        /* \"#utility.yul\":9645:9650   */\n      dup5\n        /* \"#utility.yul\":9641:9662   */\n      and\n        /* \"#utility.yul\":9632:9662   */\n      swap4\n      pop\n        /* \"#utility.yul\":9705:9709   */\n      dup1\n        /* \"#utility.yul\":9695:9703   */\n      dup7\n        /* \"#utility.yul\":9691:9710   */\n      and\n        /* \"#utility.yul\":9684:9689   */\n      dup5\n        /* \"#utility.yul\":9681:9711   */\n      or\n        /* \"#utility.yul\":9671:9711   */\n      swap3\n      pop\n        /* \"#utility.yul\":9400:9717   */\n      pop\n      pop\n        /* \"#utility.yul\":9324:9717   */\n      swap4\n      swap3\n      pop\n      pop\n      pop\n      jump\t// out\n        /* \"#utility.yul\":9723:9783   */\n    tag_91:\n        /* \"#utility.yul\":9751:9754   */\n      0x00\n        /* \"#utility.yul\":9772:9777   */\n      dup2\n        /* \"#utility.yul\":9765:9777   */\n      swap1\n      pop\n        /* \"#utility.yul\":9723:9783   */\n      swap2\n      swap1\n      pop\n      jump\t// out\n        /* \"#utility.yul\":9789:9931   */\n    tag_92:\n        /* \"#utility.yul\":9839:9848   */\n      0x00\n        /* \"#utility.yul\":9872:9925   */\n      tag_205\n        /* \"#utility.yul\":9890:9924   */\n      tag_206\n        /* \"#utility.yul\":9899:9923   */\n      tag_207\n        /* \"#utility.yul\":9917:9922   */\n      dup5\n        /* \"#utility.yul\":9899:9923   */\n      tag_58\n      jump\t// in\n    tag_207:\n        /* \"#utility.yul\":9890:9924   */\n      tag_91\n      jump\t// in\n    tag_206:\n        /* \"#utility.yul\":9872:9925   */\n      tag_58\n      jump\t// in\n    tag_205:\n        /* \"#utility.yul\":9859:9925   */\n      swap1\n      pop\n        /* \"#utility.yul\":9789:9931   */\n      swap2\n      swap1\n      pop\n      jump\t// out\n        /* \"#utility.yul\":9937:10012   */\n    tag_93:\n        /* \"#utility.yul\":9980:9983   */\n      0x00\n        /* \"#utility.yul\":10001:10006   */\n      dup2\n        /* \"#utility.yul\":9994:10006   */\n      swap1\n      pop\n        /* \"#utility.yul\":9937:10012   */\n      swap2\n      swap1\n      pop\n      jump\t// out\n        /* \"#utility.yul\":10018:10287   */\n    tag_94:\n        /* \"#utility.yul\":10128:10167   */\n      tag_210\n        /* \"#utility.yul\":10159:10166   */\n      dup4\n        /* \"#utility.yul\":10128:10167   */\n      tag_92\n      jump\t// in\n    tag_210:\n        /* \"#utility.yul\":10189:10280   */\n      tag_211\n        /* \"#utility.yul\":10238:10279   */\n      tag_212\n        /* \"#utility.yul\":10262:10278   */\n      dup3\n        /* \"#utility.yul\":10238:10279   */\n      tag_93\n      jump\t// in\n    tag_212:\n        /* \"#utility.yul\":10230:10236   */\n      dup5\n        /* \"#utility.yul\":10223:10227   */\n      dup5\n        /* \"#utility.yul\":10217:10228   */\n      sload\n        /* \"#utility.yul\":10189:10280   */\n      tag_90\n      jump\t// in\n    tag_211:\n        /* \"#utility.yul\":10183:10187   */\n      dup3\n        /* \"#utility.yul\":10176:10281   */\n      sstore\n        /* \"#utility.yul\":10094:10287   */\n      pop\n        /* \"#utility.yul\":10018:10287   */\n      pop\n      pop\n      pop\n      jump\t// out\n        /* \"#utility.yul\":10293:10366   */\n    tag_95:\n        /* \"#utility.yul\":10338:10341   */\n      0x00\n        /* \"#utility.yul\":10293:10366   */\n      swap1\n      jump\t// out\n        /* \"#utility.yul\":10372:10561   */\n    tag_96:\n        /* \"#utility.yul\":10449:10481   */\n      tag_215\n      tag_95\n      jump\t// in\n    tag_215:\n        /* \"#utility.yul\":10490:10555   */\n      tag_216\n        /* \"#utility.yul\":10548:10554   */\n      dup2\n        /* \"#utility.yul\":10540:10546   */\n      dup5\n        /* \"#utility.yul\":10534:10538   */\n      dup5\n        /* \"#utility.yul\":10490:10555   */\n      tag_94\n      jump\t// in\n    tag_216:\n        /* \"#utility.yul\":10425:10561   */\n      pop\n        /* \"#utility.yul\":10372:10561   */\n      pop\n      pop\n      jump\t// out\n        /* \"#utility.yul\":10567:10753   */\n    tag_97:\n        /* \"#utility.yul\":10627:10747   */\n    tag_218:\n        /* \"#utility.yul\":10644:10647   */\n      dup2\n        /* \"#utility.yul\":10637:10642   */\n      dup2\n        /* \"#utility.yul\":10634:10648   */\n      lt\n        /* \"#utility.yul\":10627:10747   */\n      iszero\n      tag_220\n      jumpi\n        /* \"#utility.yul\":10698:10737   */\n      tag_221\n        /* \"#utility.yul\":10735:10736   */\n      0x00\n        /* \"#utility.yul\":10728:10733   */\n      dup3\n        /* \"#utility.yul\":10698:10737   */\n      tag_96\n      jump\t// in\n    tag_221:\n        /* \"#utility.yul\":10671:10672   */\n      0x01\n        /* \"#utility.yul\":10664:10669   */\n      dup2\n        /* \"#utility.yul\":10660:10673   */\n      add\n        /* \"#utility.yul\":10651:10673   */\n      swap1\n      pop\n        /* \"#utility.yul\":10627:10747   */\n      jump(tag_218)\n    tag_220:\n        /* \"#utility.yul\":10567:10753   */\n      pop\n      pop\n      jump\t// out\n        /* \"#utility.yul\":10759:11302   */\n    tag_98:\n        /* \"#utility.yul\":10860:10862   */\n      0x1f\n        /* \"#utility.yul\":10855:10858   */\n      dup3\n        /* \"#utility.yul\":10852:10863   */\n      gt\n        /* \"#utility.yul\":10849:11295   */\n      iszero\n      tag_223\n      jumpi\n        /* \"#utility.yul\":10894:10932   */\n      tag_224\n        /* \"#utility.yul\":10926:10931   */\n      dup2\n        /* \"#utility.yul\":10894:10932   */\n      tag_87\n      jump\t// in\n    tag_224:\n        /* \"#utility.yul\":10978:11007   */\n      tag_225\n        /* \"#utility.yul\":10996:11006   */\n      dup5\n        /* \"#utility.yul\":10978:11007   */\n      tag_88\n      jump\t// in\n    tag_225:\n        /* \"#utility.yul\":10968:10976   */\n      dup2\n        /* \"#utility.yul\":10964:11008   */\n      add\n        /* \"#utility.yul\":11161:11163   */\n      0x20\n        /* \"#utility.yul\":11149:11159   */\n      dup6\n        /* \"#utility.yul\":11146:11164   */\n      lt\n        /* \"#utility.yul\":11143:11192   */\n      iszero\n      tag_226\n      jumpi\n        /* \"#utility.yul\":11182:11190   */\n      dup2\n        /* \"#utility.yul\":11167:11190   */\n      swap1\n      pop\n        /* \"#utility.yul\":11143:11192   */\n    tag_226:\n        /* \"#utility.yul\":11205:11285   */\n      tag_227\n        /* \"#utility.yul\":11261:11283   */\n      tag_228\n        /* \"#utility.yul\":11279:11282   */\n      dup6\n        /* \"#utility.yul\":11261:11283   */\n      tag_88\n      jump\t// in\n    tag_228:\n        /* \"#utility.yul\":11251:11259   */\n      dup4\n        /* \"#utility.yul\":11247:11284   */\n      add\n        /* \"#utility.yul\":11234:11245   */\n      dup3\n        /* \"#utility.yul\":11205:11285   */\n      tag_97\n      jump\t// in\n    tag_227:\n        /* \"#utility.yul\":10864:11295   */\n      pop\n      pop\n        /* \"#utility.yul\":10849:11295   */\n    tag_223:\n        /* \"#utility.yul\":10759:11302   */\n      pop\n      pop\n      pop\n      jump\t// out\n        /* \"#utility.yul\":11308:11425   */\n    tag_99:\n        /* \"#utility.yul\":11362:11370   */\n      0x00\n        /* \"#utility.yul\":11412:11417   */\n      dup3\n        /* \"#utility.yul\":11406:11410   */\n      dup3\n        /* \"#utility.yul\":11402:11418   */\n      shr\n        /* \"#utility.yul\":11381:11418   */\n      swap1\n      pop\n        /* \"#utility.yul\":11308:11425   */\n      swap3\n      swap2\n      pop\n      pop\n      jump\t// out\n        /* \"#utility.yul\":11431:11600   */\n    tag_100:\n        /* \"#utility.yul\":11475:11481   */\n      0x00\n        /* \"#utility.yul\":11508:11559   */\n      tag_231\n        /* \"#utility.yul\":11556:11557   */\n      0x00\n        /* \"#utility.yul\":11552:11558   */\n      not\n        /* \"#utility.yul\":11544:11549   */\n      dup5\n        /* \"#utility.yul\":11541:11542   */\n      0x08\n        /* \"#utility.yul\":11537:11550   */\n      mul\n        /* \"#utility.yul\":11508:11559   */\n      tag_99\n      jump\t// in\n    tag_231:\n        /* \"#utility.yul\":11504:11560   */\n      not\n        /* \"#utility.yul\":11589:11593   */\n      dup1\n        /* \"#utility.yul\":11583:11587   */\n      dup4\n        /* \"#utility.yul\":11579:11594   */\n      and\n        /* \"#utility.yul\":11569:11594   */\n      swap2\n      pop\n        /* \"#utility.yul\":11482:11600   */\n      pop\n        /* \"#utility.yul\":11431:11600   */\n      swap3\n      swap2\n      pop\n      pop\n      jump\t// out\n        /* \"#utility.yul\":11605:11900   */\n    tag_101:\n        /* \"#utility.yul\":11681:11685   */\n      0x00\n        /* \"#utility.yul\":11827:11856   */\n      tag_233\n        /* \"#utility.yul\":11852:11855   */\n      dup4\n        /* \"#utility.yul\":11846:11850   */\n      dup4\n        /* \"#utility.yul\":11827:11856   */\n      tag_100\n      jump\t// in\n    tag_233:\n        /* \"#utility.yul\":11819:11856   */\n      swap2\n      pop\n        /* \"#utility.yul\":11889:11892   */\n      dup3\n        /* \"#utility.yul\":11886:11887   */\n      0x02\n        /* \"#utility.yul\":11882:11893   */\n      mul\n        /* \"#utility.yul\":11876:11880   */\n      dup3\n        /* \"#utility.yul\":11873:11894   */\n      or\n        /* \"#utility.yul\":11865:11894   */\n      swap1\n      pop\n        /* \"#utility.yul\":11605:11900   */\n      swap3\n      swap2\n      pop\n      pop\n      jump\t// out\n        /* \"#utility.yul\":11905:13300   */\n    tag_49:\n        /* \"#utility.yul\":12022:12059   */\n      tag_235\n        /* \"#utility.yul\":12055:12058   */\n      dup3\n        /* \"#utility.yul\":12022:12059   */\n      tag_80\n      jump\t// in\n    tag_235:\n        /* \"#utility.yul\":12124:12142   */\n      0xffffffffffffffff\n        /* \"#utility.yul\":12116:12122   */\n      dup2\n        /* \"#utility.yul\":12113:12143   */\n      gt\n        /* \"#utility.yul\":12110:12166   */\n      iszero\n      tag_236\n      jumpi\n        /* \"#utility.yul\":12146:12164   */\n      tag_237\n      tag_66\n      jump\t// in\n    tag_237:\n        /* \"#utility.yul\":12110:12166   */\n    tag_236:\n        /* \"#utility.yul\":12190:12228   */\n      tag_238\n        /* \"#utility.yul\":12222:12226   */\n      dup3\n        /* \"#utility.yul\":12216:12227   */\n      sload\n        /* \"#utility.yul\":12190:12228   */\n      tag_53\n      jump\t// in\n    tag_238:\n        /* \"#utility.yul\":12275:12342   */\n      tag_239\n        /* \"#utility.yul\":12335:12341   */\n      dup3\n        /* \"#utility.yul\":12327:12333   */\n      dup3\n        /* \"#utility.yul\":12321:12325   */\n      dup6\n        /* \"#utility.yul\":12275:12342   */\n      tag_98\n      jump\t// in\n    tag_239:\n        /* \"#utility.yul\":12369:12370   */\n      0x00\n        /* \"#utility.yul\":12393:12397   */\n      0x20\n        /* \"#utility.yul\":12380:12397   */\n      swap1\n      pop\n        /* \"#utility.yul\":12425:12427   */\n      0x1f\n        /* \"#utility.yul\":12417:12423   */\n      dup4\n        /* \"#utility.yul\":12414:12428   */\n      gt\n        /* \"#utility.yul\":12442:12443   */\n      0x01\n        /* \"#utility.yul\":12437:13055   */\n      dup2\n      eq\n      tag_241\n      jumpi\n        /* \"#utility.yul\":13099:13100   */\n      0x00\n        /* \"#utility.yul\":13116:13122   */\n      dup5\n        /* \"#utility.yul\":13113:13190   */\n      iszero\n      tag_242\n      jumpi\n        /* \"#utility.yul\":13165:13174   */\n      dup3\n        /* \"#utility.yul\":13160:13163   */\n      dup8\n        /* \"#utility.yul\":13156:13175   */\n      add\n        /* \"#utility.yul\":13150:13176   */\n      mload\n        /* \"#utility.yul\":13141:13176   */\n      swap1\n      pop\n        /* \"#utility.yul\":13113:13190   */\n    tag_242:\n        /* \"#utility.yul\":13216:13283   */\n      tag_243\n        /* \"#utility.yul\":13276:13282   */\n      dup6\n        /* \"#utility.yul\":13269:13274   */\n      dup3\n        /* \"#utility.yul\":13216:13283   */\n      tag_101\n      jump\t// in\n    tag_243:\n        /* \"#utility.yul\":13210:13214   */\n      dup7\n        /* \"#utility.yul\":13203:13284   */\n      sstore\n        /* \"#utility.yul\":13072:13294   */\n      pop\n        /* \"#utility.yul\":12407:13294   */\n      jump(tag_240)\n        /* \"#utility.yul\":12437:13055   */\n    tag_241:\n        /* \"#utility.yul\":12489:12493   */\n      0x1f\n        /* \"#utility.yul\":12485:12494   */\n      not\n        /* \"#utility.yul\":12477:12483   */\n      dup5\n        /* \"#utility.yul\":12473:12495   */\n      and\n        /* \"#utility.yul\":12523:12560   */\n      tag_244\n        /* \"#utility.yul\":12555:12559   */\n      dup7\n        /* \"#utility.yul\":12523:12560   */\n      tag_87\n      jump\t// in\n    tag_244:\n        /* \"#utility.yul\":12582:12583   */\n      0x00\n        /* \"#utility.yul\":12596:12804   */\n    tag_245:\n        /* \"#utility.yul\":12610:12617   */\n      dup3\n        /* \"#utility.yul\":12607:12608   */\n      dup2\n        /* \"#utility.yul\":12604:12618   */\n      lt\n        /* \"#utility.yul\":12596:12804   */\n      iszero\n      tag_247\n      jumpi\n        /* \"#utility.yul\":12689:12698   */\n      dup5\n        /* \"#utility.yul\":12684:12687   */\n      dup10\n        /* \"#utility.yul\":12680:12699   */\n      add\n        /* \"#utility.yul\":12674:12700   */\n      mload\n        /* \"#utility.yul\":12666:12672   */\n      dup3\n        /* \"#utility.yul\":12659:12701   */\n      sstore\n        /* \"#utility.yul\":12740:12741   */\n      0x01\n        /* \"#utility.yul\":12732:12738   */\n      dup3\n        /* \"#utility.yul\":12728:12742   */\n      add\n        /* \"#utility.yul\":12718:12742   */\n      swap2\n      pop\n        /* \"#utility.yul\":12787:12789   */\n      0x20\n        /* \"#utility.yul\":12776:12785   */\n      dup6\n        /* \"#utility.yul\":12772:12790   */\n      add\n        /* \"#utility.yul\":12759:12790   */\n      swap5\n      pop\n        /* \"#utility.yul\":12633:12637   */\n      0x20\n        /* \"#utility.yul\":12630:12631   */\n      dup2\n        /* \"#utility.yul\":12626:12638   */\n      add\n        /* \"#utility.yul\":12621:12638   */\n      swap1\n      pop\n        /* \"#utility.yul\":12596:12804   */\n      jump(tag_245)\n    tag_247:\n        /* \"#utility.yul\":12832:12838   */\n      dup7\n        /* \"#utility.yul\":12823:12830   */\n      dup4\n        /* \"#utility.yul\":12820:12839   */\n      lt\n        /* \"#utility.yul\":12817:12996   */\n      iszero\n      tag_248\n      jumpi\n        /* \"#utility.yul\":12890:12899   */\n      dup5\n        /* \"#utility.yul\":12885:12888   */\n      dup10\n        /* \"#utility.yul\":12881:12900   */\n      add\n        /* \"#utility.yul\":12875:12901   */\n      mload\n        /* \"#utility.yul\":12933:12981   */\n      tag_249\n        /* \"#utility.yul\":12975:12979   */\n      0x1f\n        /* \"#utility.yul\":12967:12973   */\n      dup10\n        /* \"#utility.yul\":12963:12980   */\n      and\n        /* \"#utility.yul\":12952:12961   */\n      dup3\n        /* \"#utility.yul\":12933:12981   */\n      tag_100\n      jump\t// in\n    tag_249:\n        /* \"#utility.yul\":12925:12931   */\n      dup4\n        /* \"#utility.yul\":12918:12982   */\n      sstore\n        /* \"#utility.yul\":12840:12996   */\n      pop\n        /* \"#utility.yul\":12817:12996   */\n    tag_248:\n        /* \"#utility.yul\":13042:13043   */\n      0x01\n        /* \"#utility.yul\":13038:13039   */\n      0x02\n        /* \"#utility.yul\":13030:13036   */\n      dup9\n        /* \"#utility.yul\":13026:13040   */\n      mul\n        /* \"#utility.yul\":13022:13044   */\n      add\n        /* \"#utility.yul\":13016:13020   */\n      dup9\n        /* \"#utility.yul\":13009:13045   */\n      sstore\n        /* \"#utility.yul\":12444:13055   */\n      pop\n      pop\n      pop\n        /* \"#utility.yul\":12407:13294   */\n    tag_240:\n      pop\n        /* \"#utility.yul\":11997:13300   */\n      pop\n      pop\n      pop\n        /* \"#utility.yul\":11905:13300   */\n      pop\n      pop\n      jump\t// out\n        /* \"#utility.yul\":13306:13486   */\n    tag_102:\n        /* \"#utility.yul\":13354:13431   */\n      0x4e487b7100000000000000000000000000000000000000000000000000000000\n        /* \"#utility.yul\":13351:13352   */\n      0x00\n        /* \"#utility.yul\":13344:13432   */\n      mstore\n        /* \"#utility.yul\":13451:13455   */\n      0x11\n        /* \"#utility.yul\":13448:13449   */\n      0x04\n        /* \"#utility.yul\":13441:13456   */\n      mstore\n        /* \"#utility.yul\":13475:13479   */\n      0x24\n        /* \"#utility.yul\":13472:13473   */\n      0x00\n        /* \"#utility.yul\":13465:13480   */\n      revert\n        /* \"#utility.yul\":13492:13725   */\n    tag_51:\n        /* \"#utility.yul\":13531:13534   */\n      0x00\n        /* \"#utility.yul\":13554:13578   */\n      tag_252\n        /* \"#utility.yul\":13572:13577   */\n      dup3\n        /* \"#utility.yul\":13554:13578   */\n      tag_58\n      jump\t// in\n    tag_252:\n        /* \"#utility.yul\":13545:13578   */\n      swap2\n      pop\n        /* \"#utility.yul\":13600:13666   */\n      0xffffffffffffffffffffffffffffffffffffffffffffffffffffffffffffffff\n        /* \"#utility.yul\":13593:13598   */\n      dup3\n        /* \"#utility.yul\":13590:13667   */\n      sub\n        /* \"#utility.yul\":13587:13690   */\n      tag_253\n      jumpi\n        /* \"#utility.yul\":13670:13688   */\n      tag_254\n      tag_102\n      jump\t// in\n    tag_254:\n        /* \"#utility.yul\":13587:13690   */\n    tag_253:\n        /* \"#utility.yul\":13717:13718   */\n      0x01\n        /* \"#utility.yul\":13710:13715   */\n      dup3\n        /* \"#utility.yul\":13706:13719   */\n      add\n        /* \"#utility.yul\":13699:13719   */\n      swap1\n      pop\n        /* \"#utility.yul\":13492:13725   */\n      swap2\n      swap1\n      pop\n      jump\t// out\n    stop\n\n    sub_0: assembly {\n            /* \"contracts/5_Asset.sol\":70:253  contract Asset{... */\n          mstore(0x40, 0x80)\n            /* \"contracts/5_Asset.sol\":140:250  constructor(string memory name_, string memory symbol_){... */\n          callvalue\n          dup1\n          iszero\n          tag_1\n          jumpi\n          0x00\n          dup1\n          revert\n        tag_1:\n          pop\n          mload(0x40)\n          sub(codesize, bytecodeSize)\n          dup1\n          bytecodeSize\n          dup4\n          codecopy\n          dup2\n          dup2\n          add\n          0x40\n          mstore\n          dup2\n          add\n          swap1\n          tag_2\n          swap2\n          swap1\n          tag_3\n          jump\t// in\n        tag_2:\n            /* \"contracts/5_Asset.sol\":212:217  name_ */\n          dup2\n            /* \"contracts/5_Asset.sol\":205:209  name */\n          0x00\n            /* \"contracts/5_Asset.sol\":205:217  name = name_ */\n          swap1\n          dup2\n          tag_6\n          swap2\n          swap1\n          tag_7\n          jump\t// in\n        tag_6:\n          pop\n            /* \"contracts/5_Asset.sol\":236:243  symbol_ */\n          dup1\n            /* \"contracts/5_Asset.sol\":227:233  symbol */\n          0x01\n            /* \"contracts/5_Asset.sol\":227:243  symbol = symbol_ */\n          swap1\n          dup2\n          tag_8\n          swap2\n          swap1\n          tag_7\n          jump\t// in\n        tag_8:\n          pop\n            /* \"contracts/5_Asset.sol\":140:250  constructor(string memory name_, string memory symbol_){... */\n          pop\n          pop\n            /* \"contracts/5_Asset.sol\":70:253  contract Asset{... */\n          jump(tag_9)\n            /* \"#utility.yul\":7:82   */\n        tag_10:\n            /* \"#utility.yul\":40:46   */\n          0x00\n            /* \"#utility.yul\":73:75   */\n          0x40\n            /* \"#utility.yul\":67:76   */\n          mload\n            /* \"#utility.yul\":57:76   */\n          swap1\n          pop\n            /* \"#utility.yul\":7:82   */\n          swap1\n          jump\t// out\n            /* \"#utility.yul\":88:205   */\n        tag_11:\n            /* \"#utility.yul\":197:198   */\n          0x00\n            /* \"#utility.yul\":194:195   */\n          dup1\n            /* \"#utility.yul\":187:199   */\n          revert\n            /* \"#utility.yul\":211:328   */\n        tag_12:\n            /* \"#utility.yul\":320:321   */\n          0x00\n            /* \"#utility.yul\":317:318   */\n          dup1\n            /* \"#utility.yul\":310:322   */\n          revert\n            /* \"#utility.yul\":334:451   */\n        tag_13:\n            /* \"#utility.yul\":443:444   */\n          0x00\n            /* \"#utility.yul\":440:441   */\n          dup1\n            /* \"#utility.yul\":433:445   */\n          revert\n            /* \"#utility.yul\":457:574   */\n        tag_14:\n            /* \"#utility.yul\":566:567   */\n          0x00\n            /* \"#utility.yul\":563:564   */\n          dup1\n            /* \"#utility.yul\":556:568   */\n          revert\n            /* \"#utility.yul\":580:682   */\n        tag_15:\n            /* \"#utility.yul\":621:627   */\n          0x00\n            /* \"#utility.yul\":672:674   */\n          0x1f\n            /* \"#utility.yul\":668:675   */\n          not\n            /* \"#utility.yul\":663:665   */\n          0x1f\n            /* \"#utility.yul\":656:661   */\n          dup4\n            /* \"#utility.yul\":652:666   */\n          add\n            /* \"#utility.yul\":648:676   */\n          and\n            /* \"#utility.yul\":638:676   */\n          swap1\n          pop\n            /* \"#utility.yul\":580:682   */\n          swap2\n          swap1\n          pop\n          jump\t// out\n            /* \"#utility.yul\":688:868   */\n        tag_16:\n            /* \"#utility.yul\":736:813   */\n          0x4e487b7100000000000000000000000000000000000000000000000000000000\n            /* \"#utility.yul\":733:734   */\n          0x00\n            /* \"#utility.yul\":726:814   */\n          mstore\n            /* \"#utility.yul\":833:837   */\n          0x41\n            /* \"#utility.yul\":830:831   */\n          0x04\n            /* \"#utility.yul\":823:838   */\n          mstore\n            /* \"#utility.yul\":857:861   */\n          0x24\n            /* \"#utility.yul\":854:855   */\n          0x00\n            /* \"#utility.yul\":847:862   */\n          revert\n            /* \"#utility.yul\":874:1155   */\n        tag_17:\n            /* \"#utility.yul\":957:984   */\n          tag_51\n            /* \"#utility.yul\":979:983   */\n          dup3\n            /* \"#utility.yul\":957:984   */\n          tag_15\n          jump\t// in\n        tag_51:\n            /* \"#utility.yul\":949:955   */\n          dup2\n            /* \"#utility.yul\":945:985   */\n          add\n            /* \"#utility.yul\":1087:1093   */\n          dup2\n            /* \"#utility.yul\":1075:1085   */\n          dup2\n            /* \"#utility.yul\":1072:1094   */\n          lt\n            /* \"#utility.yul\":1051:1069   */\n          0xffffffffffffffff\n            /* \"#utility.yul\":1039:1049   */\n          dup3\n            /* \"#utility.yul\":1036:1070   */\n          gt\n            /* \"#utility.yul\":1033:1095   */\n          or\n            /* \"#utility.yul\":1030:1118   */\n          iszero\n          tag_52\n          jumpi\n            /* \"#utility.yul\":1098:1116   */\n          tag_53\n          tag_16\n          jump\t// in\n        tag_53:\n            /* \"#utility.yul\":1030:1118   */\n        tag_52:\n            /* \"#utility.yul\":1138:1148   */\n          dup1\n            /* \"#utility.yul\":1134:1136   */\n          0x40\n            /* \"#utility.yul\":1127:1149   */\n          mstore\n            /* \"#utility.yul\":917:1155   */\n          pop\n            /* \"#utility.yul\":874:1155   */\n          pop\n          pop\n          jump\t// out\n            /* \"#utility.yul\":1161:1290   */\n        tag_18:\n            /* \"#utility.yul\":1195:1201   */\n          0x00\n            /* \"#utility.yul\":1222:1242   */\n          tag_55\n          tag_10\n          jump\t// in\n        tag_55:\n            /* \"#utility.yul\":1212:1242   */\n          swap1\n          pop\n            /* \"#utility.yul\":1251:1284   */\n          tag_56\n            /* \"#utility.yul\":1279:1283   */\n          dup3\n            /* \"#utility.yul\":1271:1277   */\n          dup3\n            /* \"#utility.yul\":1251:1284   */\n          tag_17\n          jump\t// in\n        tag_56:\n            /* \"#utility.yul\":1161:1290   */\n          swap2\n          swap1\n          pop\n          jump\t// out\n            /* \"#utility.yul\":1296:1604   */\n        tag_19:\n            /* \"#utility.yul\":1358:1362   */\n          0x00\n            /* \"#utility.yul\":1448:1466   */\n          0xffffffffffffffff\n            /* \"#utility.yul\":1440:1446   */\n          dup3\n            /* \"#utility.yul\":1437:1467   */\n          gt\n            /* \"#utility.yul\":1434:1490   */\n          iszero\n          tag_58\n          jumpi\n            /* \"#utility.yul\":1470:1488   */\n          tag_59\n          tag_16\n          jump\t// in\n        tag_59:\n            /* \"#utility.yul\":1434:1490   */\n        tag_58:\n            /* \"#utility.yul\":1508:1537   */\n          tag_60\n            /* \"#utility.yul\":1530:1536   */\n          dup3\n            /* \"#utility.yul\":1508:1537   */\n          tag_15\n          jump\t// in\n        tag_60:\n            /* \"#utility.yul\":1500:1537   */\n          swap1\n          pop\n            /* \"#utility.yul\":1592:1596   */\n          0x20\n            /* \"#utility.yul\":1586:1590   */\n          dup2\n            /* \"#utility.yul\":1582:1597   */\n          add\n            /* \"#utility.yul\":1574:1597   */\n          swap1\n          pop\n            /* \"#utility.yul\":1296:1604   */\n          swap2\n          swap1\n          pop\n          jump\t// out\n            /* \"#utility.yul\":1610:1749   */\n        tag_20:\n            /* \"#utility.yul\":1699:1705   */\n          dup3\n            /* \"#utility.yul\":1694:1697   */\n          dup2\n            /* \"#utility.yul\":1689:1692   */\n          dup4\n            /* \"#utility.yul\":1683:1706   */\n          mcopy\n            /* \"#utility.yul\":1740:1741   */\n          0x00\n            /* \"#utility.yul\":1731:1737   */\n          dup4\n            /* \"#utility.yul\":1726:1729   */\n          dup4\n            /* \"#utility.yul\":1722:1738   */\n          add\n            /* \"#utility.yul\":1715:1742   */\n          mstore\n            /* \"#utility.yul\":1610:1749   */\n          pop\n          pop\n          pop\n          jump\t// out\n            /* \"#utility.yul\":1755:2189   */\n        tag_21:\n            /* \"#utility.yul\":1844:1849   */\n          0x00\n            /* \"#utility.yul\":1869:1935   */\n          tag_63\n            /* \"#utility.yul\":1885:1934   */\n          tag_64\n            /* \"#utility.yul\":1927:1933   */\n          dup5\n            /* \"#utility.yul\":1885:1934   */\n          tag_19\n          jump\t// in\n        tag_64:\n            /* \"#utility.yul\":1869:1935   */\n          tag_18\n          jump\t// in\n        tag_63:\n            /* \"#utility.yul\":1860:1935   */\n          swap1\n          pop\n            /* \"#utility.yul\":1958:1964   */\n          dup3\n            /* \"#utility.yul\":1951:1956   */\n          dup2\n            /* \"#utility.yul\":1944:1965   */\n          mstore\n            /* \"#utility.yul\":1996:2000   */\n          0x20\n            /* \"#utility.yul\":1989:1994   */\n          dup2\n            /* \"#utility.yul\":1985:2001   */\n          add\n            /* \"#utility.yul\":2034:2037   */\n          dup5\n            /* \"#utility.yul\":2025:2031   */\n          dup5\n            /* \"#utility.yul\":2020:2023   */\n          dup5\n            /* \"#utility.yul\":2016:2032   */\n          add\n            /* \"#utility.yul\":2013:2038   */\n          gt\n            /* \"#utility.yul\":2010:2122   */\n          iszero\n          tag_65\n          jumpi\n            /* \"#utility.yul\":2041:2120   */\n          tag_66\n          tag_14\n          jump\t// in\n        tag_66:\n            /* \"#utility.yul\":2010:2122   */\n        tag_65:\n            /* \"#utility.yul\":2131:2183   */\n          tag_67\n            /* \"#utility.yul\":2176:2182   */\n          dup5\n            /* \"#utility.yul\":2171:2174   */\n          dup3\n            /* \"#utility.yul\":2166:2169   */\n          dup6\n            /* \"#utility.yul\":2131:2183   */\n          tag_20\n          jump\t// in\n        tag_67:\n            /* \"#utility.yul\":1850:2189   */\n          pop\n            /* \"#utility.yul\":1755:2189   */\n          swap4\n          swap3\n          pop\n          pop\n          pop\n          jump\t// out\n            /* \"#utility.yul\":2209:2564   */\n        tag_22:\n            /* \"#utility.yul\":2276:2281   */\n          0x00\n            /* \"#utility.yul\":2325:2328   */\n          dup3\n            /* \"#utility.yul\":2318:2322   */\n          0x1f\n            /* \"#utility.yul\":2310:2316   */\n          dup4\n            /* \"#utility.yul\":2306:2323   */\n          add\n            /* \"#utility.yul\":2302:2329   */\n          slt\n            /* \"#utility.yul\":2292:2414   */\n          tag_69\n          jumpi\n            /* \"#utility.yul\":2333:2412   */\n          tag_70\n          tag_13\n          jump\t// in\n        tag_70:\n            /* \"#utility.yul\":2292:2414   */\n        tag_69:\n            /* \"#utility.yul\":2443:2449   */\n          dup2\n            /* \"#utility.yul\":2437:2450   */\n          mload\n            /* \"#utility.yul\":2468:2558   */\n          tag_71\n            /* \"#utility.yul\":2554:2557   */\n          dup5\n            /* \"#utility.yul\":2546:2552   */\n          dup3\n            /* \"#utility.yul\":2539:2543   */\n          0x20\n            /* \"#utility.yul\":2531:2537   */\n          dup7\n            /* \"#utility.yul\":2527:2544   */\n          add\n            /* \"#utility.yul\":2468:2558   */\n          tag_21\n          jump\t// in\n        tag_71:\n            /* \"#utility.yul\":2459:2558   */\n          swap2\n          pop\n            /* \"#utility.yul\":2282:2564   */\n          pop\n            /* \"#utility.yul\":2209:2564   */\n          swap3\n          swap2\n          pop\n          pop\n          jump\t// out\n            /* \"#utility.yul\":2570:3423   */\n        tag_3:\n            /* \"#utility.yul\":2669:2675   */\n          0x00\n            /* \"#utility.yul\":2677:2683   */\n          dup1\n            /* \"#utility.yul\":2726:2728   */\n          0x40\n            /* \"#utility.yul\":2714:2723   */\n          dup4\n            /* \"#utility.yul\":2705:2712   */\n          dup6\n            /* \"#utility.yul\":2701:2724   */\n          sub\n            /* \"#utility.yul\":2697:2729   */\n          slt\n            /* \"#utility.yul\":2694:2813   */\n          iszero\n          tag_73\n          jumpi\n            /* \"#utility.yul\":2732:2811   */\n          tag_74\n          tag_11\n          jump\t// in\n        tag_74:\n            /* \"#utility.yul\":2694:2813   */\n        tag_73:\n            /* \"#utility.yul\":2873:2874   */\n          0x00\n            /* \"#utility.yul\":2862:2871   */\n          dup4\n            /* \"#utility.yul\":2858:2875   */\n          add\n            /* \"#utility.yul\":2852:2876   */\n          mload\n            /* \"#utility.yul\":2903:2921   */\n          0xffffffffffffffff\n            /* \"#utility.yul\":2895:2901   */\n          dup2\n            /* \"#utility.yul\":2892:2922   */\n          gt\n            /* \"#utility.yul\":2889:3006   */\n          iszero\n          tag_75\n          jumpi\n            /* \"#utility.yul\":2925:3004   */\n          tag_76\n          tag_12\n          jump\t// in\n        tag_76:\n            /* \"#utility.yul\":2889:3006   */\n        tag_75:\n            /* \"#utility.yul\":3030:3104   */\n          tag_77\n            /* \"#utility.yul\":3096:3103   */\n          dup6\n            /* \"#utility.yul\":3087:3093   */\n          dup3\n            /* \"#utility.yul\":3076:3085   */\n          dup7\n            /* \"#utility.yul\":3072:3094   */\n          add\n            /* \"#utility.yul\":3030:3104   */\n          tag_22\n          jump\t// in\n        tag_77:\n            /* \"#utility.yul\":3020:3104   */\n          swap3\n          pop\n            /* \"#utility.yul\":2823:3114   */\n          pop\n            /* \"#utility.yul\":3174:3176   */\n          0x20\n            /* \"#utility.yul\":3163:3172   */\n          dup4\n            /* \"#utility.yul\":3159:3177   */\n          add\n            /* \"#utility.yul\":3153:3178   */\n          mload\n            /* \"#utility.yul\":3205:3223   */\n          0xffffffffffffffff\n            /* \"#utility.yul\":3197:3203   */\n          dup2\n            /* \"#utility.yul\":3194:3224   */\n          gt\n            /* \"#utility.yul\":3191:3308   */\n          iszero\n          tag_78\n          jumpi\n            /* \"#utility.yul\":3227:3306   */\n          tag_79\n          tag_12\n          jump\t// in\n        tag_79:\n            /* \"#utility.yul\":3191:3308   */\n        tag_78:\n            /* \"#utility.yul\":3332:3406   */\n          tag_80\n            /* \"#utility.yul\":3398:3405   */\n          dup6\n            /* \"#utility.yul\":3389:3395   */\n          dup3\n            /* \"#utility.yul\":3378:3387   */\n          dup7\n            /* \"#utility.yul\":3374:3396   */\n          add\n            /* \"#utility.yul\":3332:3406   */\n          tag_22\n          jump\t// in\n        tag_80:\n            /* \"#utility.yul\":3322:3406   */\n          swap2\n          pop\n            /* \"#utility.yul\":3124:3416   */\n          pop\n            /* \"#utility.yul\":2570:3423   */\n          swap3\n          pop\n          swap3\n          swap1\n          pop\n          jump\t// out\n            /* \"#utility.yul\":3429:3528   */\n        tag_23:\n            /* \"#utility.yul\":3481:3487   */\n          0x00\n            /* \"#utility.yul\":3515:3520   */\n          dup2\n            /* \"#utility.yul\":3509:3521   */\n          mload\n            /* \"#utility.yul\":3499:3521   */\n          swap1\n          pop\n            /* \"#utility.yul\":3429:3528   */\n          swap2\n          swap1\n          pop\n          jump\t// out\n            /* \"#utility.yul\":3534:3714   */\n        tag_24:\n            /* \"#utility.yul\":3582:3659   */\n          0x4e487b7100000000000000000000000000000000000000000000000000000000\n            /* \"#utility.yul\":3579:3580   */\n          0x00\n            /* \"#utility.yul\":3572:3660   */\n          mstore\n            /* \"#utility.yul\":3679:3683   */\n          0x22\n            /* \"#utility.yul\":3676:3677   */\n          0x04\n            /* \"#utility.yul\":3669:3684   */\n          mstore\n            /* \"#utility.yul\":3703:3707   */\n          0x24\n            /* \"#utility.yul\":3700:3701   */\n          0x00\n            /* \"#utility.yul\":3693:3708   */\n          revert\n            /* \"#utility.yul\":3720:4040   */\n        tag_25:\n            /* \"#utility.yul\":3764:3770   */\n          0x00\n            /* \"#utility.yul\":3801:3802   */\n          0x02\n            /* \"#utility.yul\":3795:3799   */\n          dup3\n            /* \"#utility.yul\":3791:3803   */\n          div\n            /* \"#utility.yul\":3781:3803   */\n          swap1\n          pop\n            /* \"#utility.yul\":3848:3849   */\n          0x01\n            /* \"#utility.yul\":3842:3846   */\n          dup3\n            /* \"#utility.yul\":3838:3850   */\n          and\n            /* \"#utility.yul\":3869:3887   */\n          dup1\n            /* \"#utility.yul\":3859:3940   */\n          tag_84\n          jumpi\n            /* \"#utility.yul\":3925:3929   */\n          0x7f\n            /* \"#utility.yul\":3917:3923   */\n          dup3\n            /* \"#utility.yul\":3913:3930   */\n          and\n            /* \"#utility.yul\":3903:3930   */\n          swap2\n          pop\n            /* \"#utility.yul\":3859:3940   */\n        tag_84:\n            /* \"#utility.yul\":3987:3989   */\n          0x20\n            /* \"#utility.yul\":3979:3985   */\n          dup3\n            /* \"#utility.yul\":3976:3990   */\n          lt\n            /* \"#utility.yul\":3956:3974   */\n          dup2\n            /* \"#utility.yul\":3953:3991   */\n          sub\n            /* \"#utility.yul\":3950:4034   */\n          tag_85\n          jumpi\n            /* \"#utility.yul\":4006:4024   */\n          tag_86\n          tag_24\n          jump\t// in\n        tag_86:\n            /* \"#utility.yul\":3950:4034   */\n        tag_85:\n            /* \"#utility.yul\":3771:4040   */\n          pop\n            /* \"#utility.yul\":3720:4040   */\n          swap2\n          swap1\n          pop\n          jump\t// out\n            /* \"#utility.yul\":4046:4187   */\n        tag_26:\n            /* \"#utility.yul\":4095:4099   */\n          0x00\n            /* \"#utility.yul\":4118:4121   */\n          dup2\n            /* \"#utility.yul\":4110:4121   */\n          swap1\n          pop\n            /* \"#utility.yul\":4141:4144   */\n          dup2\n            /* \"#utility.yul\":4138:4139   */\n          0x00\n            /* \"#utility.yul\":4131:4145   */\n          mstore\n            /* \"#utility.yul\":4175:4179   */\n          0x20\n            /* \"#utility.yul\":4172:4173   */\n          0x00\n            /* \"#utility.yul\":4162:4180   */\n          keccak256\n            /* \"#utility.yul\":4154:4180   */\n          swap1\n          pop\n            /* \"#utility.yul\":4046:4187   */\n          swap2\n          swap1\n          pop\n          jump\t// out\n            /* \"#utility.yul\":4193:4286   */\n        tag_27:\n            /* \"#utility.yul\":4230:4236   */\n          0x00\n            /* \"#utility.yul\":4277:4279   */\n          0x20\n            /* \"#utility.yul\":4272:4274   */\n          0x1f\n            /* \"#utility.yul\":4265:4270   */\n          dup4\n            /* \"#utility.yul\":4261:4275   */\n          add\n            /* \"#utility.yul\":4257:4280   */\n          div\n            /* \"#utility.yul\":4247:4280   */\n          swap1\n          pop\n            /* \"#utility.yul\":4193:4286   */\n          swap2\n          swap1\n          pop\n          jump\t// out\n            /* \"#utility.yul\":4292:4399   */\n        tag_28:\n            /* \"#utility.yul\":4336:4344   */\n          0x00\n            /* \"#utility.yul\":4386:4391   */\n          dup3\n            /* \"#utility.yul\":4380:4384   */\n          dup3\n            /* \"#utility.yul\":4376:4392   */\n          shl\n            /* \"#utility.yul\":4355:4392   */\n          swap1\n          pop\n            /* \"#utility.yul\":4292:4399   */\n          swap3\n          swap2\n          pop\n          pop\n          jump\t// out\n            /* \"#utility.yul\":4405:4798   */\n        tag_29:\n            /* \"#utility.yul\":4474:4480   */\n          0x00\n            /* \"#utility.yul\":4524:4525   */\n          0x08\n            /* \"#utility.yul\":4512:4522   */\n          dup4\n            /* \"#utility.yul\":4508:4526   */\n          mul\n            /* \"#utility.yul\":4547:4644   */\n          tag_91\n            /* \"#utility.yul\":4577:4643   */\n          0xffffffffffffffffffffffffffffffffffffffffffffffffffffffffffffffff\n            /* \"#utility.yul\":4566:4575   */\n          dup3\n            /* \"#utility.yul\":4547:4644   */\n          tag_28\n          jump\t// in\n        tag_91:\n            /* \"#utility.yul\":4665:4704   */\n          tag_92\n            /* \"#utility.yul\":4695:4703   */\n          dup7\n            /* \"#utility.yul\":4684:4693   */\n          dup4\n            /* \"#utility.yul\":4665:4704   */\n          tag_28\n          jump\t// in\n        tag_92:\n            /* \"#utility.yul\":4653:4704   */\n          swap6\n          pop\n            /* \"#utility.yul\":4737:4741   */\n          dup1\n            /* \"#utility.yul\":4733:4742   */\n          not\n            /* \"#utility.yul\":4726:4731   */\n          dup5\n            /* \"#utility.yul\":4722:4743   */\n          and\n            /* \"#utility.yul\":4713:4743   */\n          swap4\n          pop\n            /* \"#utility.yul\":4786:4790   */\n          dup1\n            /* \"#utility.yul\":4776:4784   */\n          dup7\n            /* \"#utility.yul\":4772:4791   */\n          and\n            /* \"#utility.yul\":4765:4770   */\n          dup5\n            /* \"#utility.yul\":4762:4792   */\n          or\n            /* \"#utility.yul\":4752:4792   */\n          swap3\n          pop\n            /* \"#utility.yul\":4481:4798   */\n          pop\n          pop\n            /* \"#utility.yul\":4405:4798   */\n          swap4\n          swap3\n          pop\n          pop\n          pop\n          jump\t// out\n            /* \"#utility.yul\":4804:4881   */\n        tag_30:\n            /* \"#utility.yul\":4841:4848   */\n          0x00\n            /* \"#utility.yul\":4870:4875   */\n          dup2\n            /* \"#utility.yul\":4859:4875   */\n          swap1\n          pop\n            /* \"#utility.yul\":4804:4881   */\n          swap2\n          swap1\n          pop\n          jump\t// out\n            /* \"#utility.yul\":4887:4947   */\n        tag_31:\n            /* \"#utility.yul\":4915:4918   */\n          0x00\n            /* \"#utility.yul\":4936:4941   */\n          dup2\n            /* \"#utility.yul\":4929:4941   */\n          swap1\n          pop\n            /* \"#utility.yul\":4887:4947   */\n          swap2\n          swap1\n          pop\n          jump\t// out\n            /* \"#utility.yul\":4953:5095   */\n        tag_32:\n            /* \"#utility.yul\":5003:5012   */\n          0x00\n            /* \"#utility.yul\":5036:5089   */\n          tag_96\n            /* \"#utility.yul\":5054:5088   */\n          tag_97\n            /* \"#utility.yul\":5063:5087   */\n          tag_98\n            /* \"#utility.yul\":5081:5086   */\n          dup5\n            /* \"#utility.yul\":5063:5087   */\n          tag_30\n          jump\t// in\n        tag_98:\n            /* \"#utility.yul\":5054:5088   */\n          tag_31\n          jump\t// in\n        tag_97:\n            /* \"#utility.yul\":5036:5089   */\n          tag_30\n          jump\t// in\n        tag_96:\n            /* \"#utility.yul\":5023:5089   */\n          swap1\n          pop\n            /* \"#utility.yul\":4953:5095   */\n          swap2\n          swap1\n          pop\n          jump\t// out\n            /* \"#utility.yul\":5101:5176   */\n        tag_33:\n            /* \"#utility.yul\":5144:5147   */\n          0x00\n            /* \"#utility.yul\":5165:5170   */\n          dup2\n            /* \"#utility.yul\":5158:5170   */\n          swap1\n          pop\n            /* \"#utility.yul\":5101:5176   */\n          swap2\n          swap1\n          pop\n          jump\t// out\n            /* \"#utility.yul\":5182:5451   */\n        tag_34:\n            /* \"#utility.yul\":5292:5331   */\n          tag_101\n            /* \"#utility.yul\":5323:5330   */\n          dup4\n            /* \"#utility.yul\":5292:5331   */\n          tag_32\n          jump\t// in\n        tag_101:\n            /* \"#utility.yul\":5353:5444   */\n          tag_102\n            /* \"#utility.yul\":5402:5443   */\n          tag_103\n            /* \"#utility.yul\":5426:5442   */\n          dup3\n            /* \"#utility.yul\":5402:5443   */\n          tag_33\n          jump\t// in\n        tag_103:\n            /* \"#utility.yul\":5394:5400   */\n          dup5\n            /* \"#utility.yul\":5387:5391   */\n          dup5\n            /* \"#utility.yul\":5381:5392   */\n          sload\n            /* \"#utility.yul\":5353:5444   */\n          tag_29\n          jump\t// in\n        tag_102:\n            /* \"#utility.yul\":5347:5351   */\n          dup3\n            /* \"#utility.yul\":5340:5445   */\n          sstore\n            /* \"#utility.yul\":5258:5451   */\n          pop\n            /* \"#utility.yul\":5182:5451   */\n          pop\n          pop\n          pop\n          jump\t// out\n            /* \"#utility.yul\":5457:5530   */\n        tag_35:\n            /* \"#utility.yul\":5502:5505   */\n          0x00\n            /* \"#utility.yul\":5457:5530   */\n          swap1\n          jump\t// out\n            /* \"#utility.yul\":5536:5725   */\n        tag_36:\n            /* \"#utility.yul\":5613:5645   */\n          tag_106\n          tag_35\n          jump\t// in\n        tag_106:\n            /* \"#utility.yul\":5654:5719   */\n          tag_107\n            /* \"#utility.yul\":5712:5718   */\n          dup2\n            /* \"#utility.yul\":5704:5710   */\n          dup5\n            /* \"#utility.yul\":5698:5702   */\n          dup5\n            /* \"#utility.yul\":5654:5719   */\n          tag_34\n          jump\t// in\n        tag_107:\n            /* \"#utility.yul\":5589:5725   */\n          pop\n            /* \"#utility.yul\":5536:5725   */\n          pop\n          pop\n          jump\t// out\n            /* \"#utility.yul\":5731:5917   */\n        tag_37:\n            /* \"#utility.yul\":5791:5911   */\n        tag_109:\n            /* \"#utility.yul\":5808:5811   */\n          dup2\n            /* \"#utility.yul\":5801:5806   */\n          dup2\n            /* \"#utility.yul\":5798:5812   */\n          lt\n            /* \"#utility.yul\":5791:5911   */\n          iszero\n          tag_111\n          jumpi\n            /* \"#utility.yul\":5862:5901   */\n          tag_112\n            /* \"#utility.yul\":5899:5900   */\n          0x00\n            /* \"#utility.yul\":5892:5897   */\n          dup3\n            /* \"#utility.yul\":5862:5901   */\n          tag_36\n          jump\t// in\n        tag_112:\n            /* \"#utility.yul\":5835:5836   */\n          0x01\n            /* \"#utility.yul\":5828:5833   */\n          dup2\n            /* \"#utility.yul\":5824:5837   */\n          add\n            /* \"#utility.yul\":5815:5837   */\n          swap1\n          pop\n            /* \"#utility.yul\":5791:5911   */\n          jump(tag_109)\n        tag_111:\n            /* \"#utility.yul\":5731:5917   */\n          pop\n          pop\n          jump\t// out\n            /* \"#utility.yul\":5923:6466   */\n        tag_38:\n            /* \"#utility.yul\":6024:6026   */\n          0x1f\n            /* \"#utility.yul\":6019:6022   */\n          dup3\n            /* \"#utility.yul\":6016:6027   */\n          gt\n            /* \"#utility.yul\":6013:6459   */\n          iszero\n          tag_114\n          jumpi\n            /* \"#utility.yul\":6058:6096   */\n          tag_115\n            /* \"#utility.yul\":6090:6095   */\n          dup2\n            /* \"#utility.yul\":6058:6096   */\n          tag_26\n          jump\t// in\n        tag_115:\n            /* \"#utility.yul\":6142:6171   */\n          tag_116\n            /* \"#utility.yul\":6160:6170   */\n          dup5\n            /* \"#utility.yul\":6142:6171   */\n          tag_27\n          jump\t// in\n        tag_116:\n            /* \"#utility.yul\":6132:6140   */\n          dup2\n            /* \"#utility.yul\":6128:6172   */\n          add\n            /* \"#utility.yul\":6325:6327   */\n          0x20\n            /* \"#utility.yul\":6313:6323   */\n          dup6\n            /* \"#utility.yul\":6310:6328   */\n          lt\n            /* \"#utility.yul\":6307:6356   */\n          iszero\n          tag_117\n          jumpi\n            /* \"#utility.yul\":6346:6354   */\n          dup2\n            /* \"#utility.yul\":6331:6354   */\n          swap1\n          pop\n            /* \"#utility.yul\":6307:6356   */\n        tag_117:\n            /* \"#utility.yul\":6369:6449   */\n          tag_118\n            /* \"#utility.yul\":6425:6447   */\n          tag_119\n            /* \"#utility.yul\":6443:6446   */\n          dup6\n            /* \"#utility.yul\":6425:6447   */\n          tag_27\n          jump\t// in\n        tag_119:\n            /* \"#utility.yul\":6415:6423   */\n          dup4\n            /* \"#utility.yul\":6411:6448   */\n          add\n            /* \"#utility.yul\":6398:6409   */\n          dup3\n            /* \"#utility.yul\":6369:6449   */\n          tag_37\n          jump\t// in\n        tag_118:\n            /* \"#utility.yul\":6028:6459   */\n          pop\n          pop\n            /* \"#utility.yul\":6013:6459   */\n        tag_114:\n            /* \"#utility.yul\":5923:6466   */\n          pop\n          pop\n          pop\n          jump\t// out\n            /* \"#utility.yul\":6472:6589   */\n        tag_39:\n            /* \"#utility.yul\":6526:6534   */\n          0x00\n            /* \"#utility.yul\":6576:6581   */\n          dup3\n            /* \"#utility.yul\":6570:6574   */\n          dup3\n            /* \"#utility.yul\":6566:6582   */\n          shr\n            /* \"#utility.yul\":6545:6582   */\n          swap1\n          pop\n            /* \"#utility.yul\":6472:6589   */\n          swap3\n          swap2\n          pop\n          pop\n          jump\t// out\n            /* \"#utility.yul\":6595:6764   */\n        tag_40:\n            /* \"#utility.yul\":6639:6645   */\n          0x00\n            /* \"#utility.yul\":6672:6723   */\n          tag_122\n            /* \"#utility.yul\":6720:6721   */\n          0x00\n            /* \"#utility.yul\":6716:6722   */\n          not\n            /* \"#utility.yul\":6708:6713   */\n          dup5\n            /* \"#utility.yul\":6705:6706   */\n          0x08\n            /* \"#utility.yul\":6701:6714   */\n          mul\n            /* \"#utility.yul\":6672:6723   */\n          tag_39\n          jump\t// in\n        tag_122:\n            /* \"#utility.yul\":6668:6724   */\n          not\n            /* \"#utility.yul\":6753:6757   */\n          dup1\n            /* \"#utility.yul\":6747:6751   */\n          dup4\n            /* \"#utility.yul\":6743:6758   */\n          and\n            /* \"#utility.yul\":6733:6758   */\n          swap2\n          pop\n            /* \"#utility.yul\":6646:6764   */\n          pop\n            /* \"#utility.yul\":6595:6764   */\n          swap3\n          swap2\n          pop\n          pop\n          jump\t// out\n            /* \"#utility.yul\":6769:7064   */\n        tag_41:\n            /* \"#utility.yul\":6845:6849   */\n          0x00\n            /* \"#utility.yul\":6991:7020   */\n          tag_124\n            /* \"#utility.yul\":7016:7019   */\n          dup4\n            /* \"#utility.yul\":7010:7014   */\n          dup4\n            /* \"#utility.yul\":6991:7020   */\n          tag_40\n          jump\t// in\n        tag_124:\n            /* \"#utility.yul\":6983:7020   */\n          swap2\n          pop\n            /* \"#utility.yul\":7053:7056   */\n          dup3\n            /* \"#utility.yul\":7050:7051   */\n          0x02\n            /* \"#utility.yul\":7046:7057   */\n          mul\n            /* \"#utility.yul\":7040:7044   */\n          dup3\n            /* \"#utility.yul\":7037:7058   */\n          or\n            /* \"#utility.yul\":7029:7058   */\n          swap1\n          pop\n            /* \"#utility.yul\":6769:7064   */\n          swap3\n          swap2\n          pop\n          pop\n          jump\t// out\n            /* \"#utility.yul\":7069:8464   */\n        tag_7:\n            /* \"#utility.yul\":7186:7223   */\n          tag_126\n            /* \"#utility.yul\":7219:7222   */\n          dup3\n            /* \"#utility.yul\":7186:7223   */\n          tag_23\n          jump\t// in\n        tag_126:\n            /* \"#utility.yul\":7288:7306   */\n          0xffffffffffffffff\n            /* \"#utility.yul\":7280:7286   */\n          dup2\n            /* \"#utility.yul\":7277:7307   */\n          gt\n            /* \"#utility.yul\":7274:7330   */\n          iszero\n          tag_127\n          jumpi\n            /* \"#utility.yul\":7310:7328   */\n          tag_128\n          tag_16\n          jump\t// in\n        tag_128:\n            /* \"#utility.yul\":7274:7330   */\n        tag_127:\n            /* \"#utility.yul\":7354:7392   */\n          tag_129\n            /* \"#utility.yul\":7386:7390   */\n          dup3\n            /* \"#utility.yul\":7380:7391   */\n          sload\n            /* \"#utility.yul\":7354:7392   */\n          tag_25\n          jump\t// in\n        tag_129:\n            /* \"#utility.yul\":7439:7506   */\n          tag_130\n            /* \"#utility.yul\":7499:7505   */\n          dup3\n            /* \"#utility.yul\":7491:7497   */\n          dup3\n            /* \"#utility.yul\":7485:7489   */\n          dup6\n            /* \"#utility.yul\":7439:7506   */\n          tag_38\n          jump\t// in\n        tag_130:\n            /* \"#utility.yul\":7533:7534   */\n          0x00\n            /* \"#utility.yul\":7557:7561   */\n          0x20\n            /* \"#utility.yul\":7544:7561   */\n          swap1\n          pop\n            /* \"#utility.yul\":7589:7591   */\n          0x1f\n            /* \"#utility.yul\":7581:7587   */\n          dup4\n            /* \"#utility.yul\":7578:7592   */\n          gt\n            /* \"#utility.yul\":7606:7607   */\n          0x01\n            /* \"#utility.yul\":7601:8219   */\n          dup2\n          eq\n          tag_132\n          jumpi\n            /* \"#utility.yul\":8263:8264   */\n          0x00\n            /* \"#utility.yul\":8280:8286   */\n          dup5\n            /* \"#utility.yul\":8277:8354   */\n          iszero\n          tag_133\n          jumpi\n            /* \"#utility.yul\":8329:8338   */\n          dup3\n            /* \"#utility.yul\":8324:8327   */\n          dup8\n            /* \"#utility.yul\":8320:8339   */\n          add\n            /* \"#utility.yul\":8314:8340   */\n          mload\n            /* \"#utility.yul\":8305:8340   */\n          swap1\n          pop\n            /* \"#utility.yul\":8277:8354   */\n        tag_133:\n            /* \"#utility.yul\":8380:8447   */\n          tag_134\n            /* \"#utility.yul\":8440:8446   */\n          dup6\n            /* \"#utility.yul\":8433:8438   */\n          dup3\n            /* \"#utility.yul\":8380:8447   */\n          tag_41\n          jump\t// in\n        tag_134:\n            /* \"#utility.yul\":8374:8378   */\n          dup7\n            /* \"#utility.yul\":8367:8448   */\n          sstore\n            /* \"#utility.yul\":8236:8458   */\n          pop\n            /* \"#utility.yul\":7571:8458   */\n          jump(tag_131)\n            /* \"#utility.yul\":7601:8219   */\n        tag_132:\n            /* \"#utility.yul\":7653:7657   */\n          0x1f\n            /* \"#utility.yul\":7649:7658   */\n          not\n            /* \"#utility.yul\":7641:7647   */\n          dup5\n            /* \"#utility.yul\":7637:7659   */\n          and\n            /* \"#utility.yul\":7687:7724   */\n          tag_135\n            /* \"#utility.yul\":7719:7723   */\n          dup7\n            /* \"#utility.yul\":7687:7724   */\n          tag_26\n          jump\t// in\n        tag_135:\n            /* \"#utility.yul\":7746:7747   */\n          0x00\n            /* \"#utility.yul\":7760:7968   */\n        tag_136:\n            /* \"#utility.yul\":7774:7781   */\n          dup3\n            /* \"#utility.yul\":7771:7772   */\n          dup2\n            /* \"#utility.yul\":7768:7782   */\n          lt\n            /* \"#utility.yul\":7760:7968   */\n          iszero\n          tag_138\n          jumpi\n            /* \"#utility.yul\":7853:7862   */\n          dup5\n            /* \"#utility.yul\":7848:7851   */\n          dup10\n            /* \"#utility.yul\":7844:7863   */\n          add\n            /* \"#utility.yul\":7838:7864   */\n          mload\n            /* \"#utility.yul\":7830:7836   */\n          dup3\n            /* \"#utility.yul\":7823:7865   */\n          sstore\n            /* \"#utility.yul\":7904:7905   */\n          0x01\n            /* \"#utility.yul\":7896:7902   */\n          dup3\n            /* \"#utility.yul\":7892:7906   */\n          add\n            /* \"#utility.yul\":7882:7906   */\n          swap2\n          pop\n            /* \"#utility.yul\":7951:7953   */\n          0x20\n            /* \"#utility.yul\":7940:7949   */\n          dup6\n            /* \"#utility.yul\":7936:7954   */\n          add\n            /* \"#utility.yul\":7923:7954   */\n          swap5\n          pop\n            /* \"#utility.yul\":7797:7801   */\n          0x20\n            /* \"#utility.yul\":7794:7795   */\n          dup2\n            /* \"#utility.yul\":7790:7802   */\n          add\n            /* \"#utility.yul\":7785:7802   */\n          swap1\n          pop\n            /* \"#utility.yul\":7760:7968   */\n          jump(tag_136)\n        tag_138:\n            /* \"#utility.yul\":7996:8002   */\n          dup7\n            /* \"#utility.yul\":7987:7994   */\n          dup4\n            /* \"#utility.yul\":7984:8003   */\n          lt\n            /* \"#utility.yul\":7981:8160   */\n          iszero\n          tag_139\n          jumpi\n            /* \"#utility.yul\":8054:8063   */\n          dup5\n            /* \"#utility.yul\":8049:8052   */\n          dup10\n            /* \"#utility.yul\":8045:8064   */\n          add\n            /* \"#utility.yul\":8039:8065   */\n          mload\n            /* \"#utility.yul\":8097:8145   */\n          tag_140\n            /* \"#utility.yul\":8139:8143   */\n          0x1f\n            /* \"#utility.yul\":8131:8137   */\n          dup10\n            /* \"#utility.yul\":8127:8144   */\n          and\n            /* \"#utility.yul\":8116:8125   */\n          dup3\n            /* \"#utility.yul\":8097:8145   */\n          tag_40\n          jump\t// in\n        tag_140:\n            /* \"#utility.yul\":8089:8095   */\n          dup4\n            /* \"#utility.yul\":8082:8146   */\n          sstore\n            /* \"#utility.yul\":8004:8160   */\n          pop\n            /* \"#utility.yul\":7981:8160   */\n        tag_139:\n            /* \"#utility.yul\":8206:8207   */\n          0x01\n            /* \"#utility.yul\":8202:8203   */\n          0x02\n            /* \"#utility.yul\":8194:8200   */\n          dup9\n            /* \"#utility.yul\":8190:8204   */\n          mul\n            /* \"#utility.yul\":8186:8208   */\n          add\n            /* \"#utility.yul\":8180:8184   */\n          dup9\n            /* \"#utility.yul\":8173:8209   */\n          sstore\n            /* \"#utility.yul\":7608:8219   */\n          pop\n          pop\n          pop\n            /* \"#utility.yul\":7571:8458   */\n        tag_131:\n          pop\n            /* \"#utility.yul\":7161:8464   */\n          pop\n          pop\n          pop\n            /* \"#utility.yul\":7069:8464   */\n          pop\n          pop\n          jump\t// out\n            /* \"contracts/5_Asset.sol\":70:253  contract Asset{... */\n        tag_9:\n          dataSize(sub_0)\n          dup1\n          dataOffset(sub_0)\n          0x00\n          codecopy\n          0x00\n          return\n        stop\n\n        sub_0: assembly {\n                /* \"contracts/5_Asset.sol\":70:253  contract Asset{... */\n              mstore(0x40, 0x80)\n              callvalue\n              dup1\n              iszero\n              tag_1\n              jumpi\n              0x00\n              dup1\n              revert\n            tag_1:\n              pop\n              jumpi(tag_2, lt(calldatasize, 0x04))\n              shr(0xe0, calldataload(0x00))\n              dup1\n              0x06fdde03\n              eq\n              tag_3\n              jumpi\n              dup1\n              0x95d89b41\n              eq\n              tag_4\n              jumpi\n            tag_2:\n              0x00\n              dup1\n              revert\n                /* \"contracts/5_Asset.sol\":90:108  string public name */\n            tag_3:\n              tag_5\n              tag_6\n              jump\t// in\n            tag_5:\n              mload(0x40)\n              tag_7\n              swap2\n              swap1\n              tag_8\n              jump\t// in\n            tag_7:\n              mload(0x40)\n              dup1\n              swap2\n              sub\n              swap1\n              return\n                /* \"contracts/5_Asset.sol\":114:134  string public symbol */\n            tag_4:\n              tag_9\n              tag_10\n              jump\t// in\n            tag_9:\n              mload(0x40)\n              tag_11\n              swap2\n              swap1\n              tag_8\n              jump\t// in\n            tag_11:\n              mload(0x40)\n              dup1\n              swap2\n              sub\n              swap1\n              return\n                /* \"contracts/5_Asset.sol\":90:108  string public name */\n            tag_6:\n              0x00\n              dup1\n              sload\n              tag_12\n              swap1\n              tag_13\n              jump\t// in\n            tag_12:\n              dup1\n              0x1f\n              add\n              0x20\n              dup1\n              swap2\n              div\n              mul\n              0x20\n              add\n              mload(0x40)\n              swap1\n              dup2\n              add\n              0x40\n              mstore\n              dup1\n              swap3\n              swap2\n              swap1\n              dup2\n              dup2\n              mstore\n              0x20\n              add\n              dup3\n              dup1\n              sload\n              tag_14\n              swap1\n              tag_13\n              jump\t// in\n            tag_14:\n              dup1\n              iszero\n              tag_15\n              jumpi\n              dup1\n              0x1f\n              lt\n              tag_16\n              jumpi\n              0x0100\n              dup1\n              dup4\n              sload\n              div\n              mul\n              dup4\n              mstore\n              swap2\n              0x20\n              add\n              swap2\n              jump(tag_15)\n            tag_16:\n              dup3\n              add\n              swap2\n              swap1\n              0x00\n              mstore\n              keccak256(0x00, 0x20)\n              swap1\n            tag_17:\n              dup2\n              sload\n              dup2\n              mstore\n              swap1\n              0x01\n              add\n              swap1\n              0x20\n              add\n              dup1\n              dup4\n              gt\n              tag_17\n              jumpi\n              dup3\n              swap1\n              sub\n              0x1f\n              and\n              dup3\n              add\n              swap2\n            tag_15:\n              pop\n              pop\n              pop\n              pop\n              pop\n              dup2\n              jump\t// out\n                /* \"contracts/5_Asset.sol\":114:134  string public symbol */\n            tag_10:\n              0x01\n              dup1\n              sload\n              tag_18\n              swap1\n              tag_13\n              jump\t// in\n            tag_18:\n              dup1\n              0x1f\n              add\n              0x20\n              dup1\n              swap2\n              div\n              mul\n              0x20\n              add\n              mload(0x40)\n              swap1\n              dup2\n              add\n              0x40\n              mstore\n              dup1\n              swap3\n              swap2\n              swap1\n              dup2\n              dup2\n              mstore\n              0x20\n              add\n              dup3\n              dup1\n              sload\n              tag_19\n              swap1\n              tag_13\n              jump\t// in\n            tag_19:\n              dup1\n              iszero\n              tag_20\n              jumpi\n              dup1\n              0x1f\n              lt\n              tag_21\n              jumpi\n              0x0100\n              dup1\n              dup4\n              sload\n              div\n              mul\n              dup4\n              mstore\n              swap2\n              0x20\n              add\n              swap2\n              jump(tag_20)\n            tag_21:\n              dup3\n              add\n              swap2\n              swap1\n              0x00\n              mstore\n              keccak256(0x00, 0x20)\n              swap1\n            tag_22:\n              dup2\n              sload\n              dup2\n              mstore\n              swap1\n              0x01\n              add\n              swap1\n              0x20\n              add\n              dup1\n              dup4\n              gt\n              tag_22\n              jumpi\n              dup3\n              swap1\n              sub\n              0x1f\n              and\n              dup3\n              add\n              swap2\n            tag_20:\n              pop\n              pop\n              pop\n              pop\n              pop\n              dup2\n              jump\t// out\n                /* \"#utility.yul\":7:106   */\n            tag_23:\n                /* \"#utility.yul\":59:65   */\n              0x00\n                /* \"#utility.yul\":93:98   */\n              dup2\n                /* \"#utility.yul\":87:99   */\n              mload\n                /* \"#utility.yul\":77:99   */\n              swap1\n              pop\n                /* \"#utility.yul\":7:106   */\n              swap2\n              swap1\n              pop\n              jump\t// out\n                /* \"#utility.yul\":112:281   */\n            tag_24:\n                /* \"#utility.yul\":196:207   */\n              0x00\n                /* \"#utility.yul\":230:236   */\n              dup3\n                /* \"#utility.yul\":225:228   */\n              dup3\n                /* \"#utility.yul\":218:237   */\n              mstore\n                /* \"#utility.yul\":270:274   */\n              0x20\n                /* \"#utility.yul\":265:268   */\n              dup3\n                /* \"#utility.yul\":261:275   */\n              add\n                /* \"#utility.yul\":246:275   */\n              swap1\n              pop\n                /* \"#utility.yul\":112:281   */\n              swap3\n              swap2\n              pop\n              pop\n              jump\t// out\n                /* \"#utility.yul\":287:426   */\n            tag_25:\n                /* \"#utility.yul\":376:382   */\n              dup3\n                /* \"#utility.yul\":371:374   */\n              dup2\n                /* \"#utility.yul\":366:369   */\n              dup4\n                /* \"#utility.yul\":360:383   */\n              mcopy\n                /* \"#utility.yul\":417:418   */\n              0x00\n                /* \"#utility.yul\":408:414   */\n              dup4\n                /* \"#utility.yul\":403:406   */\n              dup4\n                /* \"#utility.yul\":399:415   */\n              add\n                /* \"#utility.yul\":392:419   */\n              mstore\n                /* \"#utility.yul\":287:426   */\n              pop\n              pop\n              pop\n              jump\t// out\n                /* \"#utility.yul\":432:534   */\n            tag_26:\n                /* \"#utility.yul\":473:479   */\n              0x00\n                /* \"#utility.yul\":524:526   */\n              0x1f\n                /* \"#utility.yul\":520:527   */\n              not\n                /* \"#utility.yul\":515:517   */\n              0x1f\n                /* \"#utility.yul\":508:513   */\n              dup4\n                /* \"#utility.yul\":504:518   */\n              add\n                /* \"#utility.yul\":500:528   */\n              and\n                /* \"#utility.yul\":490:528   */\n              swap1\n              pop\n                /* \"#utility.yul\":432:534   */\n              swap2\n              swap1\n              pop\n              jump\t// out\n                /* \"#utility.yul\":540:917   */\n            tag_27:\n                /* \"#utility.yul\":628:631   */\n              0x00\n                /* \"#utility.yul\":656:695   */\n              tag_35\n                /* \"#utility.yul\":689:694   */\n              dup3\n                /* \"#utility.yul\":656:695   */\n              tag_23\n              jump\t// in\n            tag_35:\n                /* \"#utility.yul\":711:782   */\n              tag_36\n                /* \"#utility.yul\":775:781   */\n              dup2\n                /* \"#utility.yul\":770:773   */\n              dup6\n                /* \"#utility.yul\":711:782   */\n              tag_24\n              jump\t// in\n            tag_36:\n                /* \"#utility.yul\":704:782   */\n              swap4\n              pop\n                /* \"#utility.yul\":791:856   */\n              tag_37\n                /* \"#utility.yul\":849:855   */\n              dup2\n                /* \"#utility.yul\":844:847   */\n              dup6\n                /* \"#utility.yul\":837:841   */\n              0x20\n                /* \"#utility.yul\":830:835   */\n              dup7\n                /* \"#utility.yul\":826:842   */\n              add\n                /* \"#utility.yul\":791:856   */\n              tag_25\n              jump\t// in\n            tag_37:\n                /* \"#utility.yul\":881:910   */\n              tag_38\n                /* \"#utility.yul\":903:909   */\n              dup2\n                /* \"#utility.yul\":881:910   */\n              tag_26\n              jump\t// in\n            tag_38:\n                /* \"#utility.yul\":876:879   */\n              dup5\n                /* \"#utility.yul\":872:911   */\n              add\n                /* \"#utility.yul\":865:911   */\n              swap2\n              pop\n                /* \"#utility.yul\":632:917   */\n              pop\n                /* \"#utility.yul\":540:917   */\n              swap3\n              swap2\n              pop\n              pop\n              jump\t// out\n                /* \"#utility.yul\":923:1236   */\n            tag_8:\n                /* \"#utility.yul\":1036:1040   */\n              0x00\n                /* \"#utility.yul\":1074:1076   */\n              0x20\n                /* \"#utility.yul\":1063:1072   */\n              dup3\n                /* \"#utility.yul\":1059:1077   */\n              add\n                /* \"#utility.yul\":1051:1077   */\n              swap1\n              pop\n                /* \"#utility.yul\":1123:1132   */\n              dup2\n                /* \"#utility.yul\":1117:1121   */\n              dup2\n                /* \"#utility.yul\":1113:1133   */\n              sub\n                /* \"#utility.yul\":1109:1110   */\n              0x00\n                /* \"#utility.yul\":1098:1107   */\n              dup4\n                /* \"#utility.yul\":1094:1111   */\n              add\n                /* \"#utility.yul\":1087:1134   */\n              mstore\n                /* \"#utility.yul\":1151:1229   */\n              tag_40\n                /* \"#utility.yul\":1224:1228   */\n              dup2\n                /* \"#utility.yul\":1215:1221   */\n              dup5\n                /* \"#utility.yul\":1151:1229   */\n              tag_27\n              jump\t// in\n            tag_40:\n                /* \"#utility.yul\":1143:1229   */\n              swap1\n              pop\n                /* \"#utility.yul\":923:1236   */\n              swap3\n              swap2\n              pop\n              pop\n              jump\t// out\n                /* \"#utility.yul\":1242:1422   */\n            tag_28:\n                /* \"#utility.yul\":1290:1367   */\n              0x4e487b7100000000000000000000000000000000000000000000000000000000\n                /* \"#utility.yul\":1287:1288   */\n              0x00\n                /* \"#utility.yul\":1280:1368   */\n              mstore\n                /* \"#utility.yul\":1387:1391   */\n              0x22\n                /* \"#utility.yul\":1384:1385   */\n              0x04\n                /* \"#utility.yul\":1377:1392   */\n              mstore\n                /* \"#utility.yul\":1411:1415   */\n              0x24\n                /* \"#utility.yul\":1408:1409   */\n              0x00\n                /* \"#utility.yul\":1401:1416   */\n              revert\n                /* \"#utility.yul\":1428:1748   */\n            tag_13:\n                /* \"#utility.yul\":1472:1478   */\n              0x00\n                /* \"#utility.yul\":1509:1510   */\n              0x02\n                /* \"#utility.yul\":1503:1507   */\n              dup3\n                /* \"#utility.yul\":1499:1511   */\n              div\n                /* \"#utility.yul\":1489:1511   */\n              swap1\n              pop\n                /* \"#utility.yul\":1556:1557   */\n              0x01\n                /* \"#utility.yul\":1550:1554   */\n              dup3\n                /* \"#utility.yul\":1546:1558   */\n              and\n                /* \"#utility.yul\":1577:1595   */\n              dup1\n                /* \"#utility.yul\":1567:1648   */\n              tag_43\n              jumpi\n                /* \"#utility.yul\":1633:1637   */\n              0x7f\n                /* \"#utility.yul\":1625:1631   */\n              dup3\n                /* \"#utility.yul\":1621:1638   */\n              and\n                /* \"#utility.yul\":1611:1638   */\n              swap2\n              pop\n                /* \"#utility.yul\":1567:1648   */\n            tag_43:\n                /* \"#utility.yul\":1695:1697   */\n              0x20\n                /* \"#utility.yul\":1687:1693   */\n              dup3\n                /* \"#utility.yul\":1684:1698   */\n              lt\n                /* \"#utility.yul\":1664:1682   */\n              dup2\n                /* \"#utility.yul\":1661:1699   */\n              sub\n                /* \"#utility.yul\":1658:1742   */\n              tag_44\n              jumpi\n                /* \"#utility.yul\":1714:1732   */\n              tag_45\n              tag_28\n              jump\t// in\n            tag_45:\n                /* \"#utility.yul\":1658:1742   */\n            tag_44:\n                /* \"#utility.yul\":1479:1748   */\n              pop\n                /* \"#utility.yul\":1428:1748   */\n              swap2\n              swap1\n              pop\n              jump\t// out\n\n            auxdata: 0xa264697066735822122021b6d604a86954359e345ce05b4c56d5b5834b824bcffad8fa1bac4fd9ea74a164736f6c634300081a0033\n        }\n    }\n\n    auxdata: 0xa26469706673582212201b57e30a3995055cc2b72e83385edfd1f458441e3be129c33818e435fd3e07b364736f6c634300081a0033\n}\n",
				"bytecode": {
					"linkReferences": {},
					"object": "60806040525f80553480156011575f80fd5b503360045f6101000a81548173ffffffffffffffffffffffffffffffffffffffff021916908373ffffffffffffffffffffffffffffffffffffffff1602179055506114968061005f5f395ff3fe608060405234801561000f575f80fd5b5060043610610060575f3560e01c80632986c0e5146100645780632b70af9b146100825780634efe4227146100b25780637790620e146100e25780638da5cb5b14610112578063f139f35c14610130575b5f80fd5b61006c610160565b604051610079919061053f565b60405180910390f35b61009c600480360381019061009791906106ff565b610165565b6040516100a99190610796565b60405180910390f35b6100cc60048036038101906100c791906107af565b6103fa565b6040516100d99190610796565b60405180910390f35b6100fc60048036038101906100f79190610804565b61042a565b6040516101099190610796565b60405180910390f35b61011a61045a565b6040516101279190610796565b60405180910390f35b61014a600480360381019061014591906107af565b61047f565b604051610157919061088f565b60405180910390f35b5f5481565b5f60045f9054906101000a900473ffffffffffffffffffffffffffffffffffffffff1673ffffffffffffffffffffffffffffffffffffffff163373ffffffffffffffffffffffffffffffffffffffff16146101be575f80fd5b5f73ffffffffffffffffffffffffffffffffffffffff1660025f8473ffffffffffffffffffffffffffffffffffffffff1673ffffffffffffffffffffffffffffffffffffffff1681526020019081526020015f205f9054906101000a900473ffffffffffffffffffffffffffffffffffffffff1673ffffffffffffffffffffffffffffffffffffffff1614610288576040517f08c379a000000000000000000000000000000000000000000000000000000000815260040161027f9061091f565b60405180910390fd5b5f84846040516102979061051a565b6102a292919061093d565b604051809103905ff0801580156102bb573d5f803e3d5ffd5b5090505f8190508560015f8373ffffffffffffffffffffffffffffffffffffffff1673ffffffffffffffffffffffffffffffffffffffff1681526020019081526020015f20908161030c9190610b6c565b508060035f805481526020019081526020015f205f6101000a81548173ffffffffffffffffffffffffffffffffffffffff021916908373ffffffffffffffffffffffffffffffffffffffff1602179055508060025f8673ffffffffffffffffffffffffffffffffffffffff1673ffffffffffffffffffffffffffffffffffffffff1681526020019081526020015f205f6101000a81548173ffffffffffffffffffffffffffffffffffffffff021916908373ffffffffffffffffffffffffffffffffffffffff1602179055505f808154809291906103e990610c68565b919050555080925050509392505050565b6002602052805f5260405f205f915054906101000a900473ffffffffffffffffffffffffffffffffffffffff1681565b6003602052805f5260405f205f915054906101000a900473ffffffffffffffffffffffffffffffffffffffff1681565b60045f9054906101000a900473ffffffffffffffffffffffffffffffffffffffff1681565b6001602052805f5260405f205f91509050805461049b9061099f565b80601f01602080910402602001604051908101604052809291908181526020018280546104c79061099f565b80156105125780601f106104e957610100808354040283529160200191610512565b820191905f5260205f20905b8154815290600101906020018083116104f557829003601f168201915b505050505081565b6107b180610cb083390190565b5f819050919050565b61053981610527565b82525050565b5f6020820190506105525f830184610530565b92915050565b5f604051905090565b5f80fd5b5f80fd5b5f80fd5b5f80fd5b5f601f19601f8301169050919050565b7f4e487b71000000000000000000000000000000000000000000000000000000005f52604160045260245ffd5b6105b782610571565b810181811067ffffffffffffffff821117156105d6576105d5610581565b5b80604052505050565b5f6105e8610558565b90506105f482826105ae565b919050565b5f67ffffffffffffffff82111561061357610612610581565b5b61061c82610571565b9050602081019050919050565b828183375f83830152505050565b5f610649610644846105f9565b6105df565b9050828152602081018484840111156106655761066461056d565b5b610670848285610629565b509392505050565b5f82601f83011261068c5761068b610569565b5b813561069c848260208601610637565b91505092915050565b5f73ffffffffffffffffffffffffffffffffffffffff82169050919050565b5f6106ce826106a5565b9050919050565b6106de816106c4565b81146106e8575f80fd5b50565b5f813590506106f9816106d5565b92915050565b5f805f6060848603121561071657610715610561565b5b5f84013567ffffffffffffffff81111561073357610732610565565b5b61073f86828701610678565b935050602084013567ffffffffffffffff8111156107605761075f610565565b5b61076c86828701610678565b925050604061077d868287016106eb565b9150509250925092565b610790816106c4565b82525050565b5f6020820190506107a95f830184610787565b92915050565b5f602082840312156107c4576107c3610561565b5b5f6107d1848285016106eb565b91505092915050565b6107e381610527565b81146107ed575f80fd5b50565b5f813590506107fe816107da565b92915050565b5f6020828403121561081957610818610561565b5b5f610826848285016107f0565b91505092915050565b5f81519050919050565b5f82825260208201905092915050565b8281835e5f83830152505050565b5f6108618261082f565b61086b8185610839565b935061087b818560208601610849565b61088481610571565b840191505092915050565b5f6020820190508181035f8301526108a78184610857565b905092915050565b7f74686973206163636f756e7420686173206265656e2063726561746564206f6e5f8201527f6520617373657400000000000000000000000000000000000000000000000000602082015250565b5f610909602783610839565b9150610914826108af565b604082019050919050565b5f6020820190508181035f830152610936816108fd565b9050919050565b5f6040820190508181035f8301526109558185610857565b905081810360208301526109698184610857565b90509392505050565b7f4e487b71000000000000000000000000000000000000000000000000000000005f52602260045260245ffd5b5f60028204905060018216806109b657607f821691505b6020821081036109c9576109c8610972565b5b50919050565b5f819050815f5260205f209050919050565b5f6020601f8301049050919050565b5f82821b905092915050565b5f60088302610a2b7fffffffffffffffffffffffffffffffffffffffffffffffffffffffffffffffff826109f0565b610a3586836109f0565b95508019841693508086168417925050509392505050565b5f819050919050565b5f610a70610a6b610a6684610527565b610a4d565b610527565b9050919050565b5f819050919050565b610a8983610a56565b610a9d610a9582610a77565b8484546109fc565b825550505050565b5f90565b610ab1610aa5565b610abc818484610a80565b505050565b5b81811015610adf57610ad45f82610aa9565b600181019050610ac2565b5050565b601f821115610b2457610af5816109cf565b610afe846109e1565b81016020851015610b0d578190505b610b21610b19856109e1565b830182610ac1565b50505b505050565b5f82821c905092915050565b5f610b445f1984600802610b29565b1980831691505092915050565b5f610b5c8383610b35565b9150826002028217905092915050565b610b758261082f565b67ffffffffffffffff811115610b8e57610b8d610581565b5b610b98825461099f565b610ba3828285610ae3565b5f60209050601f831160018114610bd4575f8415610bc2578287015190505b610bcc8582610b51565b865550610c33565b601f198416610be2866109cf565b5f5b82811015610c0957848901518255600182019150602085019450602081019050610be4565b86831015610c265784890151610c22601f891682610b35565b8355505b6001600288020188555050505b505050505050565b7f4e487b71000000000000000000000000000000000000000000000000000000005f52601160045260245ffd5b5f610c7282610527565b91507fffffffffffffffffffffffffffffffffffffffffffffffffffffffffffffffff8203610ca457610ca3610c3b565b5b60018201905091905056fe608060405234801561000f575f80fd5b506040516107b13803806107b1833981810160405281019061003191906101a4565b815f908161003f9190610427565b50806001908161004f9190610427565b5050506104f6565b5f604051905090565b5f80fd5b5f80fd5b5f80fd5b5f80fd5b5f601f19601f8301169050919050565b7f4e487b71000000000000000000000000000000000000000000000000000000005f52604160045260245ffd5b6100b682610070565b810181811067ffffffffffffffff821117156100d5576100d4610080565b5b80604052505050565b5f6100e7610057565b90506100f382826100ad565b919050565b5f67ffffffffffffffff82111561011257610111610080565b5b61011b82610070565b9050602081019050919050565b8281835e5f83830152505050565b5f610148610143846100f8565b6100de565b9050828152602081018484840111156101645761016361006c565b5b61016f848285610128565b509392505050565b5f82601f83011261018b5761018a610068565b5b815161019b848260208601610136565b91505092915050565b5f80604083850312156101ba576101b9610060565b5b5f83015167ffffffffffffffff8111156101d7576101d6610064565b5b6101e385828601610177565b925050602083015167ffffffffffffffff81111561020457610203610064565b5b61021085828601610177565b9150509250929050565b5f81519050919050565b7f4e487b71000000000000000000000000000000000000000000000000000000005f52602260045260245ffd5b5f600282049050600182168061026857607f821691505b60208210810361027b5761027a610224565b5b50919050565b5f819050815f5260205f209050919050565b5f6020601f8301049050919050565b5f82821b905092915050565b5f600883026102dd7fffffffffffffffffffffffffffffffffffffffffffffffffffffffffffffffff826102a2565b6102e786836102a2565b95508019841693508086168417925050509392505050565b5f819050919050565b5f819050919050565b5f61032b610326610321846102ff565b610308565b6102ff565b9050919050565b5f819050919050565b61034483610311565b61035861035082610332565b8484546102ae565b825550505050565b5f90565b61036c610360565b61037781848461033b565b505050565b5b8181101561039a5761038f5f82610364565b60018101905061037d565b5050565b601f8211156103df576103b081610281565b6103b984610293565b810160208510156103c8578190505b6103dc6103d485610293565b83018261037c565b50505b505050565b5f82821c905092915050565b5f6103ff5f19846008026103e4565b1980831691505092915050565b5f61041783836103f0565b9150826002028217905092915050565b6104308261021a565b67ffffffffffffffff81111561044957610448610080565b5b6104538254610251565b61045e82828561039e565b5f60209050601f83116001811461048f575f841561047d578287015190505b610487858261040c565b8655506104ee565b601f19841661049d86610281565b5f5b828110156104c45784890151825560018201915060208501945060208101905061049f565b868310156104e157848901516104dd601f8916826103f0565b8355505b6001600288020188555050505b505050505050565b6102ae806105035f395ff3fe608060405234801561000f575f80fd5b5060043610610034575f3560e01c806306fdde031461003857806395d89b4114610056575b5f80fd5b610040610074565b60405161004d91906101fb565b60405180910390f35b61005e6100ff565b60405161006b91906101fb565b60405180910390f35b5f805461008090610248565b80601f01602080910402602001604051908101604052809291908181526020018280546100ac90610248565b80156100f75780601f106100ce576101008083540402835291602001916100f7565b820191905f5260205f20905b8154815290600101906020018083116100da57829003601f168201915b505050505081565b6001805461010c90610248565b80601f016020809104026020016040519081016040528092919081815260200182805461013890610248565b80156101835780601f1061015a57610100808354040283529160200191610183565b820191905f5260205f20905b81548152906001019060200180831161016657829003601f168201915b505050505081565b5f81519050919050565b5f82825260208201905092915050565b8281835e5f83830152505050565b5f601f19601f8301169050919050565b5f6101cd8261018b565b6101d78185610195565b93506101e78185602086016101a5565b6101f0816101b3565b840191505092915050565b5f6020820190508181035f83015261021381846101c3565b905092915050565b7f4e487b71000000000000000000000000000000000000000000000000000000005f52602260045260245ffd5b5f600282049050600182168061025f57607f821691505b6020821081036102725761027161021b565b5b5091905056fea264697066735822122021b6d604a86954359e345ce05b4c56d5b5834b824bcffad8fa1bac4fd9ea74a164736f6c634300081a0033a26469706673582212201b57e30a3995055cc2b72e83385edfd1f458441e3be129c33818e435fd3e07b364736f6c634300081a0033",
					"opcodes": "PUSH1 0x80 PUSH1 0x40 MSTORE PUSH0 DUP1 SSTORE CALLVALUE DUP1 ISZERO PUSH1 0x11 JUMPI PUSH0 DUP1 REVERT JUMPDEST POP CALLER PUSH1 0x4 PUSH0 PUSH2 0x100 EXP DUP2 SLOAD DUP2 PUSH20 0xFFFFFFFFFFFFFFFFFFFFFFFFFFFFFFFFFFFFFFFF MUL NOT AND SWAP1 DUP4 PUSH20 0xFFFFFFFFFFFFFFFFFFFFFFFFFFFFFFFFFFFFFFFF AND MUL OR SWAP1 SSTORE POP PUSH2 0x1496 DUP1 PUSH2 0x5F PUSH0 CODECOPY PUSH0 RETURN INVALID PUSH1 0x80 PUSH1 0x40 MSTORE CALLVALUE DUP1 ISZERO PUSH2 0xF JUMPI PUSH0 DUP1 REVERT JUMPDEST POP PUSH1 0x4 CALLDATASIZE LT PUSH2 0x60 JUMPI PUSH0 CALLDATALOAD PUSH1 0xE0 SHR DUP1 PUSH4 0x2986C0E5 EQ PUSH2 0x64 JUMPI DUP1 PUSH4 0x2B70AF9B EQ PUSH2 0x82 JUMPI DUP1 PUSH4 0x4EFE4227 EQ PUSH2 0xB2 JUMPI DUP1 PUSH4 0x7790620E EQ PUSH2 0xE2 JUMPI DUP1 PUSH4 0x8DA5CB5B EQ PUSH2 0x112 JUMPI DUP1 PUSH4 0xF139F35C EQ PUSH2 0x130 JUMPI JUMPDEST PUSH0 DUP1 REVERT JUMPDEST PUSH2 0x6C PUSH2 0x160 JUMP JUMPDEST PUSH1 0x40 MLOAD PUSH2 0x79 SWAP2 SWAP1 PUSH2 0x53F JUMP JUMPDEST PUSH1 0x40 MLOAD DUP1 SWAP2 SUB SWAP1 RETURN JUMPDEST PUSH2 0x9C PUSH1 0x4 DUP1 CALLDATASIZE SUB DUP2 ADD SWAP1 PUSH2 0x97 SWAP2 SWAP1 PUSH2 0x6FF JUMP JUMPDEST PUSH2 0x165 JUMP JUMPDEST PUSH1 0x40 MLOAD PUSH2 0xA9 SWAP2 SWAP1 PUSH2 0x796 JUMP JUMPDEST PUSH1 0x40 MLOAD DUP1 SWAP2 SUB SWAP1 RETURN JUMPDEST PUSH2 0xCC PUSH1 0x4 DUP1 CALLDATASIZE SUB DUP2 ADD SWAP1 PUSH2 0xC7 SWAP2 SWAP1 PUSH2 0x7AF JUMP JUMPDEST PUSH2 0x3FA JUMP JUMPDEST PUSH1 0x40 MLOAD PUSH2 0xD9 SWAP2 SWAP1 PUSH2 0x796 JUMP JUMPDEST PUSH1 0x40 MLOAD DUP1 SWAP2 SUB SWAP1 RETURN JUMPDEST PUSH2 0xFC PUSH1 0x4 DUP1 CALLDATASIZE SUB DUP2 ADD SWAP1 PUSH2 0xF7 SWAP2 SWAP1 PUSH2 0x804 JUMP JUMPDEST PUSH2 0x42A JUMP JUMPDEST PUSH1 0x40 MLOAD PUSH2 0x109 SWAP2 SWAP1 PUSH2 0x796 JUMP JUMPDEST PUSH1 0x40 MLOAD DUP1 SWAP2 SUB SWAP1 RETURN JUMPDEST PUSH2 0x11A PUSH2 0x45A JUMP JUMPDEST PUSH1 0x40 MLOAD PUSH2 0x127 SWAP2 SWAP1 PUSH2 0x796 JUMP JUMPDEST PUSH1 0x40 MLOAD DUP1 SWAP2 SUB SWAP1 RETURN JUMPDEST PUSH2 0x14A PUSH1 0x4 DUP1 CALLDATASIZE SUB DUP2 ADD SWAP1 PUSH2 0x145 SWAP2 SWAP1 PUSH2 0x7AF JUMP JUMPDEST PUSH2 0x47F JUMP JUMPDEST PUSH1 0x40 MLOAD PUSH2 0x157 SWAP2 SWAP1 PUSH2 0x88F JUMP JUMPDEST PUSH1 0x40 MLOAD DUP1 SWAP2 SUB SWAP1 RETURN JUMPDEST PUSH0 SLOAD DUP2 JUMP JUMPDEST PUSH0 PUSH1 0x4 PUSH0 SWAP1 SLOAD SWAP1 PUSH2 0x100 EXP SWAP1 DIV PUSH20 0xFFFFFFFFFFFFFFFFFFFFFFFFFFFFFFFFFFFFFFFF AND PUSH20 0xFFFFFFFFFFFFFFFFFFFFFFFFFFFFFFFFFFFFFFFF AND CALLER PUSH20 0xFFFFFFFFFFFFFFFFFFFFFFFFFFFFFFFFFFFFFFFF AND EQ PUSH2 0x1BE JUMPI PUSH0 DUP1 REVERT JUMPDEST PUSH0 PUSH20 0xFFFFFFFFFFFFFFFFFFFFFFFFFFFFFFFFFFFFFFFF AND PUSH1 0x2 PUSH0 DUP5 PUSH20 0xFFFFFFFFFFFFFFFFFFFFFFFFFFFFFFFFFFFFFFFF AND PUSH20 0xFFFFFFFFFFFFFFFFFFFFFFFFFFFFFFFFFFFFFFFF AND DUP2 MSTORE PUSH1 0x20 ADD SWAP1 DUP2 MSTORE PUSH1 0x20 ADD PUSH0 KECCAK256 PUSH0 SWAP1 SLOAD SWAP1 PUSH2 0x100 EXP SWAP1 DIV PUSH20 0xFFFFFFFFFFFFFFFFFFFFFFFFFFFFFFFFFFFFFFFF AND PUSH20 0xFFFFFFFFFFFFFFFFFFFFFFFFFFFFFFFFFFFFFFFF AND EQ PUSH2 0x288 JUMPI PUSH1 0x40 MLOAD PUSH32 0x8C379A000000000000000000000000000000000000000000000000000000000 DUP2 MSTORE PUSH1 0x4 ADD PUSH2 0x27F SWAP1 PUSH2 0x91F JUMP JUMPDEST PUSH1 0x40 MLOAD DUP1 SWAP2 SUB SWAP1 REVERT JUMPDEST PUSH0 DUP5 DUP5 PUSH1 0x40 MLOAD PUSH2 0x297 SWAP1 PUSH2 0x51A JUMP JUMPDEST PUSH2 0x2A2 SWAP3 SWAP2 SWAP1 PUSH2 0x93D JUMP JUMPDEST PUSH1 0x40 MLOAD DUP1 SWAP2 SUB SWAP1 PUSH0 CREATE DUP1 ISZERO DUP1 ISZERO PUSH2 0x2BB JUMPI RETURNDATASIZE PUSH0 DUP1 RETURNDATACOPY RETURNDATASIZE PUSH0 REVERT JUMPDEST POP SWAP1 POP PUSH0 DUP2 SWAP1 POP DUP6 PUSH1 0x1 PUSH0 DUP4 PUSH20 0xFFFFFFFFFFFFFFFFFFFFFFFFFFFFFFFFFFFFFFFF AND PUSH20 0xFFFFFFFFFFFFFFFFFFFFFFFFFFFFFFFFFFFFFFFF AND DUP2 MSTORE PUSH1 0x20 ADD SWAP1 DUP2 MSTORE PUSH1 0x20 ADD PUSH0 KECCAK256 SWAP1 DUP2 PUSH2 0x30C SWAP2 SWAP1 PUSH2 0xB6C JUMP JUMPDEST POP DUP1 PUSH1 0x3 PUSH0 DUP1 SLOAD DUP2 MSTORE PUSH1 0x20 ADD SWAP1 DUP2 MSTORE PUSH1 0x20 ADD PUSH0 KECCAK256 PUSH0 PUSH2 0x100 EXP DUP2 SLOAD DUP2 PUSH20 0xFFFFFFFFFFFFFFFFFFFFFFFFFFFFFFFFFFFFFFFF MUL NOT AND SWAP1 DUP4 PUSH20 0xFFFFFFFFFFFFFFFFFFFFFFFFFFFFFFFFFFFFFFFF AND MUL OR SWAP1 SSTORE POP DUP1 PUSH1 0x2 PUSH0 DUP7 PUSH20 0xFFFFFFFFFFFFFFFFFFFFFFFFFFFFFFFFFFFFFFFF AND PUSH20 0xFFFFFFFFFFFFFFFFFFFFFFFFFFFFFFFFFFFFFFFF AND DUP2 MSTORE PUSH1 0x20 ADD SWAP1 DUP2 MSTORE PUSH1 0x20 ADD PUSH0 KECCAK256 PUSH0 PUSH2 0x100 EXP DUP2 SLOAD DUP2 PUSH20 0xFFFFFFFFFFFFFFFFFFFFFFFFFFFFFFFFFFFFFFFF MUL NOT AND SWAP1 DUP4 PUSH20 0xFFFFFFFFFFFFFFFFFFFFFFFFFFFFFFFFFFFFFFFF AND MUL OR SWAP1 SSTORE POP PUSH0 DUP1 DUP2 SLOAD DUP1 SWAP3 SWAP2 SWAP1 PUSH2 0x3E9 SWAP1 PUSH2 0xC68 JUMP JUMPDEST SWAP2 SWAP1 POP SSTORE POP DUP1 SWAP3 POP POP POP SWAP4 SWAP3 POP POP POP JUMP JUMPDEST PUSH1 0x2 PUSH1 0x20 MSTORE DUP1 PUSH0 MSTORE PUSH1 0x40 PUSH0 KECCAK256 PUSH0 SWAP2 POP SLOAD SWAP1 PUSH2 0x100 EXP SWAP1 DIV PUSH20 0xFFFFFFFFFFFFFFFFFFFFFFFFFFFFFFFFFFFFFFFF AND DUP2 JUMP JUMPDEST PUSH1 0x3 PUSH1 0x20 MSTORE DUP1 PUSH0 MSTORE PUSH1 0x40 PUSH0 KECCAK256 PUSH0 SWAP2 POP SLOAD SWAP1 PUSH2 0x100 EXP SWAP1 DIV PUSH20 0xFFFFFFFFFFFFFFFFFFFFFFFFFFFFFFFFFFFFFFFF AND DUP2 JUMP JUMPDEST PUSH1 0x4 PUSH0 SWAP1 SLOAD SWAP1 PUSH2 0x100 EXP SWAP1 DIV PUSH20 0xFFFFFFFFFFFFFFFFFFFFFFFFFFFFFFFFFFFFFFFF AND DUP2 JUMP JUMPDEST PUSH1 0x1 PUSH1 0x20 MSTORE DUP1 PUSH0 MSTORE PUSH1 0x40 PUSH0 KECCAK256 PUSH0 SWAP2 POP SWAP1 POP DUP1 SLOAD PUSH2 0x49B SWAP1 PUSH2 0x99F JUMP JUMPDEST DUP1 PUSH1 0x1F ADD PUSH1 0x20 DUP1 SWAP2 DIV MUL PUSH1 0x20 ADD PUSH1 0x40 MLOAD SWAP1 DUP2 ADD PUSH1 0x40 MSTORE DUP1 SWAP3 SWAP2 SWAP1 DUP2 DUP2 MSTORE PUSH1 0x20 ADD DUP3 DUP1 SLOAD PUSH2 0x4C7 SWAP1 PUSH2 0x99F JUMP JUMPDEST DUP1 ISZERO PUSH2 0x512 JUMPI DUP1 PUSH1 0x1F LT PUSH2 0x4E9 JUMPI PUSH2 0x100 DUP1 DUP4 SLOAD DIV MUL DUP4 MSTORE SWAP2 PUSH1 0x20 ADD SWAP2 PUSH2 0x512 JUMP JUMPDEST DUP3 ADD SWAP2 SWAP1 PUSH0 MSTORE PUSH1 0x20 PUSH0 KECCAK256 SWAP1 JUMPDEST DUP2 SLOAD DUP2 MSTORE SWAP1 PUSH1 0x1 ADD SWAP1 PUSH1 0x20 ADD DUP1 DUP4 GT PUSH2 0x4F5 JUMPI DUP3 SWAP1 SUB PUSH1 0x1F AND DUP3 ADD SWAP2 JUMPDEST POP POP POP POP POP DUP2 JUMP JUMPDEST PUSH2 0x7B1 DUP1 PUSH2 0xCB0 DUP4 CODECOPY ADD SWAP1 JUMP JUMPDEST PUSH0 DUP2 SWAP1 POP SWAP2 SWAP1 POP JUMP JUMPDEST PUSH2 0x539 DUP2 PUSH2 0x527 JUMP JUMPDEST DUP3 MSTORE POP POP JUMP JUMPDEST PUSH0 PUSH1 0x20 DUP3 ADD SWAP1 POP PUSH2 0x552 PUSH0 DUP4 ADD DUP5 PUSH2 0x530 JUMP JUMPDEST SWAP3 SWAP2 POP POP JUMP JUMPDEST PUSH0 PUSH1 0x40 MLOAD SWAP1 POP SWAP1 JUMP JUMPDEST PUSH0 DUP1 REVERT JUMPDEST PUSH0 DUP1 REVERT JUMPDEST PUSH0 DUP1 REVERT JUMPDEST PUSH0 DUP1 REVERT JUMPDEST PUSH0 PUSH1 0x1F NOT PUSH1 0x1F DUP4 ADD AND SWAP1 POP SWAP2 SWAP1 POP JUMP JUMPDEST PUSH32 0x4E487B7100000000000000000000000000000000000000000000000000000000 PUSH0 MSTORE PUSH1 0x41 PUSH1 0x4 MSTORE PUSH1 0x24 PUSH0 REVERT JUMPDEST PUSH2 0x5B7 DUP3 PUSH2 0x571 JUMP JUMPDEST DUP2 ADD DUP2 DUP2 LT PUSH8 0xFFFFFFFFFFFFFFFF DUP3 GT OR ISZERO PUSH2 0x5D6 JUMPI PUSH2 0x5D5 PUSH2 0x581 JUMP JUMPDEST JUMPDEST DUP1 PUSH1 0x40 MSTORE POP POP POP JUMP JUMPDEST PUSH0 PUSH2 0x5E8 PUSH2 0x558 JUMP JUMPDEST SWAP1 POP PUSH2 0x5F4 DUP3 DUP3 PUSH2 0x5AE JUMP JUMPDEST SWAP2 SWAP1 POP JUMP JUMPDEST PUSH0 PUSH8 0xFFFFFFFFFFFFFFFF DUP3 GT ISZERO PUSH2 0x613 JUMPI PUSH2 0x612 PUSH2 0x581 JUMP JUMPDEST JUMPDEST PUSH2 0x61C DUP3 PUSH2 0x571 JUMP JUMPDEST SWAP1 POP PUSH1 0x20 DUP2 ADD SWAP1 POP SWAP2 SWAP1 POP JUMP JUMPDEST DUP3 DUP2 DUP4 CALLDATACOPY PUSH0 DUP4 DUP4 ADD MSTORE POP POP POP JUMP JUMPDEST PUSH0 PUSH2 0x649 PUSH2 0x644 DUP5 PUSH2 0x5F9 JUMP JUMPDEST PUSH2 0x5DF JUMP JUMPDEST SWAP1 POP DUP3 DUP2 MSTORE PUSH1 0x20 DUP2 ADD DUP5 DUP5 DUP5 ADD GT ISZERO PUSH2 0x665 JUMPI PUSH2 0x664 PUSH2 0x56D JUMP JUMPDEST JUMPDEST PUSH2 0x670 DUP5 DUP3 DUP6 PUSH2 0x629 JUMP JUMPDEST POP SWAP4 SWAP3 POP POP POP JUMP JUMPDEST PUSH0 DUP3 PUSH1 0x1F DUP4 ADD SLT PUSH2 0x68C JUMPI PUSH2 0x68B PUSH2 0x569 JUMP JUMPDEST JUMPDEST DUP2 CALLDATALOAD PUSH2 0x69C DUP5 DUP3 PUSH1 0x20 DUP7 ADD PUSH2 0x637 JUMP JUMPDEST SWAP2 POP POP SWAP3 SWAP2 POP POP JUMP JUMPDEST PUSH0 PUSH20 0xFFFFFFFFFFFFFFFFFFFFFFFFFFFFFFFFFFFFFFFF DUP3 AND SWAP1 POP SWAP2 SWAP1 POP JUMP JUMPDEST PUSH0 PUSH2 0x6CE DUP3 PUSH2 0x6A5 JUMP JUMPDEST SWAP1 POP SWAP2 SWAP1 POP JUMP JUMPDEST PUSH2 0x6DE DUP2 PUSH2 0x6C4 JUMP JUMPDEST DUP2 EQ PUSH2 0x6E8 JUMPI PUSH0 DUP1 REVERT JUMPDEST POP JUMP JUMPDEST PUSH0 DUP2 CALLDATALOAD SWAP1 POP PUSH2 0x6F9 DUP2 PUSH2 0x6D5 JUMP JUMPDEST SWAP3 SWAP2 POP POP JUMP JUMPDEST PUSH0 DUP1 PUSH0 PUSH1 0x60 DUP5 DUP7 SUB SLT ISZERO PUSH2 0x716 JUMPI PUSH2 0x715 PUSH2 0x561 JUMP JUMPDEST JUMPDEST PUSH0 DUP5 ADD CALLDATALOAD PUSH8 0xFFFFFFFFFFFFFFFF DUP2 GT ISZERO PUSH2 0x733 JUMPI PUSH2 0x732 PUSH2 0x565 JUMP JUMPDEST JUMPDEST PUSH2 0x73F DUP7 DUP3 DUP8 ADD PUSH2 0x678 JUMP JUMPDEST SWAP4 POP POP PUSH1 0x20 DUP5 ADD CALLDATALOAD PUSH8 0xFFFFFFFFFFFFFFFF DUP2 GT ISZERO PUSH2 0x760 JUMPI PUSH2 0x75F PUSH2 0x565 JUMP JUMPDEST JUMPDEST PUSH2 0x76C DUP7 DUP3 DUP8 ADD PUSH2 0x678 JUMP JUMPDEST SWAP3 POP POP PUSH1 0x40 PUSH2 0x77D DUP7 DUP3 DUP8 ADD PUSH2 0x6EB JUMP JUMPDEST SWAP2 POP POP SWAP3 POP SWAP3 POP SWAP3 JUMP JUMPDEST PUSH2 0x790 DUP2 PUSH2 0x6C4 JUMP JUMPDEST DUP3 MSTORE POP POP JUMP JUMPDEST PUSH0 PUSH1 0x20 DUP3 ADD SWAP1 POP PUSH2 0x7A9 PUSH0 DUP4 ADD DUP5 PUSH2 0x787 JUMP JUMPDEST SWAP3 SWAP2 POP POP JUMP JUMPDEST PUSH0 PUSH1 0x20 DUP3 DUP5 SUB SLT ISZERO PUSH2 0x7C4 JUMPI PUSH2 0x7C3 PUSH2 0x561 JUMP JUMPDEST JUMPDEST PUSH0 PUSH2 0x7D1 DUP5 DUP3 DUP6 ADD PUSH2 0x6EB JUMP JUMPDEST SWAP2 POP POP SWAP3 SWAP2 POP POP JUMP JUMPDEST PUSH2 0x7E3 DUP2 PUSH2 0x527 JUMP JUMPDEST DUP2 EQ PUSH2 0x7ED JUMPI PUSH0 DUP1 REVERT JUMPDEST POP JUMP JUMPDEST PUSH0 DUP2 CALLDATALOAD SWAP1 POP PUSH2 0x7FE DUP2 PUSH2 0x7DA JUMP JUMPDEST SWAP3 SWAP2 POP POP JUMP JUMPDEST PUSH0 PUSH1 0x20 DUP3 DUP5 SUB SLT ISZERO PUSH2 0x819 JUMPI PUSH2 0x818 PUSH2 0x561 JUMP JUMPDEST JUMPDEST PUSH0 PUSH2 0x826 DUP5 DUP3 DUP6 ADD PUSH2 0x7F0 JUMP JUMPDEST SWAP2 POP POP SWAP3 SWAP2 POP POP JUMP JUMPDEST PUSH0 DUP2 MLOAD SWAP1 POP SWAP2 SWAP1 POP JUMP JUMPDEST PUSH0 DUP3 DUP3 MSTORE PUSH1 0x20 DUP3 ADD SWAP1 POP SWAP3 SWAP2 POP POP JUMP JUMPDEST DUP3 DUP2 DUP4 MCOPY PUSH0 DUP4 DUP4 ADD MSTORE POP POP POP JUMP JUMPDEST PUSH0 PUSH2 0x861 DUP3 PUSH2 0x82F JUMP JUMPDEST PUSH2 0x86B DUP2 DUP6 PUSH2 0x839 JUMP JUMPDEST SWAP4 POP PUSH2 0x87B DUP2 DUP6 PUSH1 0x20 DUP7 ADD PUSH2 0x849 JUMP JUMPDEST PUSH2 0x884 DUP2 PUSH2 0x571 JUMP JUMPDEST DUP5 ADD SWAP2 POP POP SWAP3 SWAP2 POP POP JUMP JUMPDEST PUSH0 PUSH1 0x20 DUP3 ADD SWAP1 POP DUP2 DUP2 SUB PUSH0 DUP4 ADD MSTORE PUSH2 0x8A7 DUP2 DUP5 PUSH2 0x857 JUMP JUMPDEST SWAP1 POP SWAP3 SWAP2 POP POP JUMP JUMPDEST PUSH32 0x74686973206163636F756E7420686173206265656E2063726561746564206F6E PUSH0 DUP3 ADD MSTORE PUSH32 0x6520617373657400000000000000000000000000000000000000000000000000 PUSH1 0x20 DUP3 ADD MSTORE POP JUMP JUMPDEST PUSH0 PUSH2 0x909 PUSH1 0x27 DUP4 PUSH2 0x839 JUMP JUMPDEST SWAP2 POP PUSH2 0x914 DUP3 PUSH2 0x8AF JUMP JUMPDEST PUSH1 0x40 DUP3 ADD SWAP1 POP SWAP2 SWAP1 POP JUMP JUMPDEST PUSH0 PUSH1 0x20 DUP3 ADD SWAP1 POP DUP2 DUP2 SUB PUSH0 DUP4 ADD MSTORE PUSH2 0x936 DUP2 PUSH2 0x8FD JUMP JUMPDEST SWAP1 POP SWAP2 SWAP1 POP JUMP JUMPDEST PUSH0 PUSH1 0x40 DUP3 ADD SWAP1 POP DUP2 DUP2 SUB PUSH0 DUP4 ADD MSTORE PUSH2 0x955 DUP2 DUP6 PUSH2 0x857 JUMP JUMPDEST SWAP1 POP DUP2 DUP2 SUB PUSH1 0x20 DUP4 ADD MSTORE PUSH2 0x969 DUP2 DUP5 PUSH2 0x857 JUMP JUMPDEST SWAP1 POP SWAP4 SWAP3 POP POP POP JUMP JUMPDEST PUSH32 0x4E487B7100000000000000000000000000000000000000000000000000000000 PUSH0 MSTORE PUSH1 0x22 PUSH1 0x4 MSTORE PUSH1 0x24 PUSH0 REVERT JUMPDEST PUSH0 PUSH1 0x2 DUP3 DIV SWAP1 POP PUSH1 0x1 DUP3 AND DUP1 PUSH2 0x9B6 JUMPI PUSH1 0x7F DUP3 AND SWAP2 POP JUMPDEST PUSH1 0x20 DUP3 LT DUP2 SUB PUSH2 0x9C9 JUMPI PUSH2 0x9C8 PUSH2 0x972 JUMP JUMPDEST JUMPDEST POP SWAP2 SWAP1 POP JUMP JUMPDEST PUSH0 DUP2 SWAP1 POP DUP2 PUSH0 MSTORE PUSH1 0x20 PUSH0 KECCAK256 SWAP1 POP SWAP2 SWAP1 POP JUMP JUMPDEST PUSH0 PUSH1 0x20 PUSH1 0x1F DUP4 ADD DIV SWAP1 POP SWAP2 SWAP1 POP JUMP JUMPDEST PUSH0 DUP3 DUP3 SHL SWAP1 POP SWAP3 SWAP2 POP POP JUMP JUMPDEST PUSH0 PUSH1 0x8 DUP4 MUL PUSH2 0xA2B PUSH32 0xFFFFFFFFFFFFFFFFFFFFFFFFFFFFFFFFFFFFFFFFFFFFFFFFFFFFFFFFFFFFFFFF DUP3 PUSH2 0x9F0 JUMP JUMPDEST PUSH2 0xA35 DUP7 DUP4 PUSH2 0x9F0 JUMP JUMPDEST SWAP6 POP DUP1 NOT DUP5 AND SWAP4 POP DUP1 DUP7 AND DUP5 OR SWAP3 POP POP POP SWAP4 SWAP3 POP POP POP JUMP JUMPDEST PUSH0 DUP2 SWAP1 POP SWAP2 SWAP1 POP JUMP JUMPDEST PUSH0 PUSH2 0xA70 PUSH2 0xA6B PUSH2 0xA66 DUP5 PUSH2 0x527 JUMP JUMPDEST PUSH2 0xA4D JUMP JUMPDEST PUSH2 0x527 JUMP JUMPDEST SWAP1 POP SWAP2 SWAP1 POP JUMP JUMPDEST PUSH0 DUP2 SWAP1 POP SWAP2 SWAP1 POP JUMP JUMPDEST PUSH2 0xA89 DUP4 PUSH2 0xA56 JUMP JUMPDEST PUSH2 0xA9D PUSH2 0xA95 DUP3 PUSH2 0xA77 JUMP JUMPDEST DUP5 DUP5 SLOAD PUSH2 0x9FC JUMP JUMPDEST DUP3 SSTORE POP POP POP POP JUMP JUMPDEST PUSH0 SWAP1 JUMP JUMPDEST PUSH2 0xAB1 PUSH2 0xAA5 JUMP JUMPDEST PUSH2 0xABC DUP2 DUP5 DUP5 PUSH2 0xA80 JUMP JUMPDEST POP POP POP JUMP JUMPDEST JUMPDEST DUP2 DUP2 LT ISZERO PUSH2 0xADF JUMPI PUSH2 0xAD4 PUSH0 DUP3 PUSH2 0xAA9 JUMP JUMPDEST PUSH1 0x1 DUP2 ADD SWAP1 POP PUSH2 0xAC2 JUMP JUMPDEST POP POP JUMP JUMPDEST PUSH1 0x1F DUP3 GT ISZERO PUSH2 0xB24 JUMPI PUSH2 0xAF5 DUP2 PUSH2 0x9CF JUMP JUMPDEST PUSH2 0xAFE DUP5 PUSH2 0x9E1 JUMP JUMPDEST DUP2 ADD PUSH1 0x20 DUP6 LT ISZERO PUSH2 0xB0D JUMPI DUP2 SWAP1 POP JUMPDEST PUSH2 0xB21 PUSH2 0xB19 DUP6 PUSH2 0x9E1 JUMP JUMPDEST DUP4 ADD DUP3 PUSH2 0xAC1 JUMP JUMPDEST POP POP JUMPDEST POP POP POP JUMP JUMPDEST PUSH0 DUP3 DUP3 SHR SWAP1 POP SWAP3 SWAP2 POP POP JUMP JUMPDEST PUSH0 PUSH2 0xB44 PUSH0 NOT DUP5 PUSH1 0x8 MUL PUSH2 0xB29 JUMP JUMPDEST NOT DUP1 DUP4 AND SWAP2 POP POP SWAP3 SWAP2 POP POP JUMP JUMPDEST PUSH0 PUSH2 0xB5C DUP4 DUP4 PUSH2 0xB35 JUMP JUMPDEST SWAP2 POP DUP3 PUSH1 0x2 MUL DUP3 OR SWAP1 POP SWAP3 SWAP2 POP POP JUMP JUMPDEST PUSH2 0xB75 DUP3 PUSH2 0x82F JUMP JUMPDEST PUSH8 0xFFFFFFFFFFFFFFFF DUP2 GT ISZERO PUSH2 0xB8E JUMPI PUSH2 0xB8D PUSH2 0x581 JUMP JUMPDEST JUMPDEST PUSH2 0xB98 DUP3 SLOAD PUSH2 0x99F JUMP JUMPDEST PUSH2 0xBA3 DUP3 DUP3 DUP6 PUSH2 0xAE3 JUMP JUMPDEST PUSH0 PUSH1 0x20 SWAP1 POP PUSH1 0x1F DUP4 GT PUSH1 0x1 DUP2 EQ PUSH2 0xBD4 JUMPI PUSH0 DUP5 ISZERO PUSH2 0xBC2 JUMPI DUP3 DUP8 ADD MLOAD SWAP1 POP JUMPDEST PUSH2 0xBCC DUP6 DUP3 PUSH2 0xB51 JUMP JUMPDEST DUP7 SSTORE POP PUSH2 0xC33 JUMP JUMPDEST PUSH1 0x1F NOT DUP5 AND PUSH2 0xBE2 DUP7 PUSH2 0x9CF JUMP JUMPDEST PUSH0 JUMPDEST DUP3 DUP2 LT ISZERO PUSH2 0xC09 JUMPI DUP5 DUP10 ADD MLOAD DUP3 SSTORE PUSH1 0x1 DUP3 ADD SWAP2 POP PUSH1 0x20 DUP6 ADD SWAP5 POP PUSH1 0x20 DUP2 ADD SWAP1 POP PUSH2 0xBE4 JUMP JUMPDEST DUP7 DUP4 LT ISZERO PUSH2 0xC26 JUMPI DUP5 DUP10 ADD MLOAD PUSH2 0xC22 PUSH1 0x1F DUP10 AND DUP3 PUSH2 0xB35 JUMP JUMPDEST DUP4 SSTORE POP JUMPDEST PUSH1 0x1 PUSH1 0x2 DUP9 MUL ADD DUP9 SSTORE POP POP POP JUMPDEST POP POP POP POP POP POP JUMP JUMPDEST PUSH32 0x4E487B7100000000000000000000000000000000000000000000000000000000 PUSH0 MSTORE PUSH1 0x11 PUSH1 0x4 MSTORE PUSH1 0x24 PUSH0 REVERT JUMPDEST PUSH0 PUSH2 0xC72 DUP3 PUSH2 0x527 JUMP JUMPDEST SWAP2 POP PUSH32 0xFFFFFFFFFFFFFFFFFFFFFFFFFFFFFFFFFFFFFFFFFFFFFFFFFFFFFFFFFFFFFFFF DUP3 SUB PUSH2 0xCA4 JUMPI PUSH2 0xCA3 PUSH2 0xC3B JUMP JUMPDEST JUMPDEST PUSH1 0x1 DUP3 ADD SWAP1 POP SWAP2 SWAP1 POP JUMP INVALID PUSH1 0x80 PUSH1 0x40 MSTORE CALLVALUE DUP1 ISZERO PUSH2 0xF JUMPI PUSH0 DUP1 REVERT JUMPDEST POP PUSH1 0x40 MLOAD PUSH2 0x7B1 CODESIZE SUB DUP1 PUSH2 0x7B1 DUP4 CODECOPY DUP2 DUP2 ADD PUSH1 0x40 MSTORE DUP2 ADD SWAP1 PUSH2 0x31 SWAP2 SWAP1 PUSH2 0x1A4 JUMP JUMPDEST DUP2 PUSH0 SWAP1 DUP2 PUSH2 0x3F SWAP2 SWAP1 PUSH2 0x427 JUMP JUMPDEST POP DUP1 PUSH1 0x1 SWAP1 DUP2 PUSH2 0x4F SWAP2 SWAP1 PUSH2 0x427 JUMP JUMPDEST POP POP POP PUSH2 0x4F6 JUMP JUMPDEST PUSH0 PUSH1 0x40 MLOAD SWAP1 POP SWAP1 JUMP JUMPDEST PUSH0 DUP1 REVERT JUMPDEST PUSH0 DUP1 REVERT JUMPDEST PUSH0 DUP1 REVERT JUMPDEST PUSH0 DUP1 REVERT JUMPDEST PUSH0 PUSH1 0x1F NOT PUSH1 0x1F DUP4 ADD AND SWAP1 POP SWAP2 SWAP1 POP JUMP JUMPDEST PUSH32 0x4E487B7100000000000000000000000000000000000000000000000000000000 PUSH0 MSTORE PUSH1 0x41 PUSH1 0x4 MSTORE PUSH1 0x24 PUSH0 REVERT JUMPDEST PUSH2 0xB6 DUP3 PUSH2 0x70 JUMP JUMPDEST DUP2 ADD DUP2 DUP2 LT PUSH8 0xFFFFFFFFFFFFFFFF DUP3 GT OR ISZERO PUSH2 0xD5 JUMPI PUSH2 0xD4 PUSH2 0x80 JUMP JUMPDEST JUMPDEST DUP1 PUSH1 0x40 MSTORE POP POP POP JUMP JUMPDEST PUSH0 PUSH2 0xE7 PUSH2 0x57 JUMP JUMPDEST SWAP1 POP PUSH2 0xF3 DUP3 DUP3 PUSH2 0xAD JUMP JUMPDEST SWAP2 SWAP1 POP JUMP JUMPDEST PUSH0 PUSH8 0xFFFFFFFFFFFFFFFF DUP3 GT ISZERO PUSH2 0x112 JUMPI PUSH2 0x111 PUSH2 0x80 JUMP JUMPDEST JUMPDEST PUSH2 0x11B DUP3 PUSH2 0x70 JUMP JUMPDEST SWAP1 POP PUSH1 0x20 DUP2 ADD SWAP1 POP SWAP2 SWAP1 POP JUMP JUMPDEST DUP3 DUP2 DUP4 MCOPY PUSH0 DUP4 DUP4 ADD MSTORE POP POP POP JUMP JUMPDEST PUSH0 PUSH2 0x148 PUSH2 0x143 DUP5 PUSH2 0xF8 JUMP JUMPDEST PUSH2 0xDE JUMP JUMPDEST SWAP1 POP DUP3 DUP2 MSTORE PUSH1 0x20 DUP2 ADD DUP5 DUP5 DUP5 ADD GT ISZERO PUSH2 0x164 JUMPI PUSH2 0x163 PUSH2 0x6C JUMP JUMPDEST JUMPDEST PUSH2 0x16F DUP5 DUP3 DUP6 PUSH2 0x128 JUMP JUMPDEST POP SWAP4 SWAP3 POP POP POP JUMP JUMPDEST PUSH0 DUP3 PUSH1 0x1F DUP4 ADD SLT PUSH2 0x18B JUMPI PUSH2 0x18A PUSH2 0x68 JUMP JUMPDEST JUMPDEST DUP2 MLOAD PUSH2 0x19B DUP5 DUP3 PUSH1 0x20 DUP7 ADD PUSH2 0x136 JUMP JUMPDEST SWAP2 POP POP SWAP3 SWAP2 POP POP JUMP JUMPDEST PUSH0 DUP1 PUSH1 0x40 DUP4 DUP6 SUB SLT ISZERO PUSH2 0x1BA JUMPI PUSH2 0x1B9 PUSH2 0x60 JUMP JUMPDEST JUMPDEST PUSH0 DUP4 ADD MLOAD PUSH8 0xFFFFFFFFFFFFFFFF DUP2 GT ISZERO PUSH2 0x1D7 JUMPI PUSH2 0x1D6 PUSH2 0x64 JUMP JUMPDEST JUMPDEST PUSH2 0x1E3 DUP6 DUP3 DUP7 ADD PUSH2 0x177 JUMP JUMPDEST SWAP3 POP POP PUSH1 0x20 DUP4 ADD MLOAD PUSH8 0xFFFFFFFFFFFFFFFF DUP2 GT ISZERO PUSH2 0x204 JUMPI PUSH2 0x203 PUSH2 0x64 JUMP JUMPDEST JUMPDEST PUSH2 0x210 DUP6 DUP3 DUP7 ADD PUSH2 0x177 JUMP JUMPDEST SWAP2 POP POP SWAP3 POP SWAP3 SWAP1 POP JUMP JUMPDEST PUSH0 DUP2 MLOAD SWAP1 POP SWAP2 SWAP1 POP JUMP JUMPDEST PUSH32 0x4E487B7100000000000000000000000000000000000000000000000000000000 PUSH0 MSTORE PUSH1 0x22 PUSH1 0x4 MSTORE PUSH1 0x24 PUSH0 REVERT JUMPDEST PUSH0 PUSH1 0x2 DUP3 DIV SWAP1 POP PUSH1 0x1 DUP3 AND DUP1 PUSH2 0x268 JUMPI PUSH1 0x7F DUP3 AND SWAP2 POP JUMPDEST PUSH1 0x20 DUP3 LT DUP2 SUB PUSH2 0x27B JUMPI PUSH2 0x27A PUSH2 0x224 JUMP JUMPDEST JUMPDEST POP SWAP2 SWAP1 POP JUMP JUMPDEST PUSH0 DUP2 SWAP1 POP DUP2 PUSH0 MSTORE PUSH1 0x20 PUSH0 KECCAK256 SWAP1 POP SWAP2 SWAP1 POP JUMP JUMPDEST PUSH0 PUSH1 0x20 PUSH1 0x1F DUP4 ADD DIV SWAP1 POP SWAP2 SWAP1 POP JUMP JUMPDEST PUSH0 DUP3 DUP3 SHL SWAP1 POP SWAP3 SWAP2 POP POP JUMP JUMPDEST PUSH0 PUSH1 0x8 DUP4 MUL PUSH2 0x2DD PUSH32 0xFFFFFFFFFFFFFFFFFFFFFFFFFFFFFFFFFFFFFFFFFFFFFFFFFFFFFFFFFFFFFFFF DUP3 PUSH2 0x2A2 JUMP JUMPDEST PUSH2 0x2E7 DUP7 DUP4 PUSH2 0x2A2 JUMP JUMPDEST SWAP6 POP DUP1 NOT DUP5 AND SWAP4 POP DUP1 DUP7 AND DUP5 OR SWAP3 POP POP POP SWAP4 SWAP3 POP POP POP JUMP JUMPDEST PUSH0 DUP2 SWAP1 POP SWAP2 SWAP1 POP JUMP JUMPDEST PUSH0 DUP2 SWAP1 POP SWAP2 SWAP1 POP JUMP JUMPDEST PUSH0 PUSH2 0x32B PUSH2 0x326 PUSH2 0x321 DUP5 PUSH2 0x2FF JUMP JUMPDEST PUSH2 0x308 JUMP JUMPDEST PUSH2 0x2FF JUMP JUMPDEST SWAP1 POP SWAP2 SWAP1 POP JUMP JUMPDEST PUSH0 DUP2 SWAP1 POP SWAP2 SWAP1 POP JUMP JUMPDEST PUSH2 0x344 DUP4 PUSH2 0x311 JUMP JUMPDEST PUSH2 0x358 PUSH2 0x350 DUP3 PUSH2 0x332 JUMP JUMPDEST DUP5 DUP5 SLOAD PUSH2 0x2AE JUMP JUMPDEST DUP3 SSTORE POP POP POP POP JUMP JUMPDEST PUSH0 SWAP1 JUMP JUMPDEST PUSH2 0x36C PUSH2 0x360 JUMP JUMPDEST PUSH2 0x377 DUP2 DUP5 DUP5 PUSH2 0x33B JUMP JUMPDEST POP POP POP JUMP JUMPDEST JUMPDEST DUP2 DUP2 LT ISZERO PUSH2 0x39A JUMPI PUSH2 0x38F PUSH0 DUP3 PUSH2 0x364 JUMP JUMPDEST PUSH1 0x1 DUP2 ADD SWAP1 POP PUSH2 0x37D JUMP JUMPDEST POP POP JUMP JUMPDEST PUSH1 0x1F DUP3 GT ISZERO PUSH2 0x3DF JUMPI PUSH2 0x3B0 DUP2 PUSH2 0x281 JUMP JUMPDEST PUSH2 0x3B9 DUP5 PUSH2 0x293 JUMP JUMPDEST DUP2 ADD PUSH1 0x20 DUP6 LT ISZERO PUSH2 0x3C8 JUMPI DUP2 SWAP1 POP JUMPDEST PUSH2 0x3DC PUSH2 0x3D4 DUP6 PUSH2 0x293 JUMP JUMPDEST DUP4 ADD DUP3 PUSH2 0x37C JUMP JUMPDEST POP POP JUMPDEST POP POP POP JUMP JUMPDEST PUSH0 DUP3 DUP3 SHR SWAP1 POP SWAP3 SWAP2 POP POP JUMP JUMPDEST PUSH0 PUSH2 0x3FF PUSH0 NOT DUP5 PUSH1 0x8 MUL PUSH2 0x3E4 JUMP JUMPDEST NOT DUP1 DUP4 AND SWAP2 POP POP SWAP3 SWAP2 POP POP JUMP JUMPDEST PUSH0 PUSH2 0x417 DUP4 DUP4 PUSH2 0x3F0 JUMP JUMPDEST SWAP2 POP DUP3 PUSH1 0x2 MUL DUP3 OR SWAP1 POP SWAP3 SWAP2 POP POP JUMP JUMPDEST PUSH2 0x430 DUP3 PUSH2 0x21A JUMP JUMPDEST PUSH8 0xFFFFFFFFFFFFFFFF DUP2 GT ISZERO PUSH2 0x449 JUMPI PUSH2 0x448 PUSH2 0x80 JUMP JUMPDEST JUMPDEST PUSH2 0x453 DUP3 SLOAD PUSH2 0x251 JUMP JUMPDEST PUSH2 0x45E DUP3 DUP3 DUP6 PUSH2 0x39E JUMP JUMPDEST PUSH0 PUSH1 0x20 SWAP1 POP PUSH1 0x1F DUP4 GT PUSH1 0x1 DUP2 EQ PUSH2 0x48F JUMPI PUSH0 DUP5 ISZERO PUSH2 0x47D JUMPI DUP3 DUP8 ADD MLOAD SWAP1 POP JUMPDEST PUSH2 0x487 DUP6 DUP3 PUSH2 0x40C JUMP JUMPDEST DUP7 SSTORE POP PUSH2 0x4EE JUMP JUMPDEST PUSH1 0x1F NOT DUP5 AND PUSH2 0x49D DUP7 PUSH2 0x281 JUMP JUMPDEST PUSH0 JUMPDEST DUP3 DUP2 LT ISZERO PUSH2 0x4C4 JUMPI DUP5 DUP10 ADD MLOAD DUP3 SSTORE PUSH1 0x1 DUP3 ADD SWAP2 POP PUSH1 0x20 DUP6 ADD SWAP5 POP PUSH1 0x20 DUP2 ADD SWAP1 POP PUSH2 0x49F JUMP JUMPDEST DUP7 DUP4 LT ISZERO PUSH2 0x4E1 JUMPI DUP5 DUP10 ADD MLOAD PUSH2 0x4DD PUSH1 0x1F DUP10 AND DUP3 PUSH2 0x3F0 JUMP JUMPDEST DUP4 SSTORE POP JUMPDEST PUSH1 0x1 PUSH1 0x2 DUP9 MUL ADD DUP9 SSTORE POP POP POP JUMPDEST POP POP POP POP POP POP JUMP JUMPDEST PUSH2 0x2AE DUP1 PUSH2 0x503 PUSH0 CODECOPY PUSH0 RETURN INVALID PUSH1 0x80 PUSH1 0x40 MSTORE CALLVALUE DUP1 ISZERO PUSH2 0xF JUMPI PUSH0 DUP1 REVERT JUMPDEST POP PUSH1 0x4 CALLDATASIZE LT PUSH2 0x34 JUMPI PUSH0 CALLDATALOAD PUSH1 0xE0 SHR DUP1 PUSH4 0x6FDDE03 EQ PUSH2 0x38 JUMPI DUP1 PUSH4 0x95D89B41 EQ PUSH2 0x56 JUMPI JUMPDEST PUSH0 DUP1 REVERT JUMPDEST PUSH2 0x40 PUSH2 0x74 JUMP JUMPDEST PUSH1 0x40 MLOAD PUSH2 0x4D SWAP2 SWAP1 PUSH2 0x1FB JUMP JUMPDEST PUSH1 0x40 MLOAD DUP1 SWAP2 SUB SWAP1 RETURN JUMPDEST PUSH2 0x5E PUSH2 0xFF JUMP JUMPDEST PUSH1 0x40 MLOAD PUSH2 0x6B SWAP2 SWAP1 PUSH2 0x1FB JUMP JUMPDEST PUSH1 0x40 MLOAD DUP1 SWAP2 SUB SWAP1 RETURN JUMPDEST PUSH0 DUP1 SLOAD PUSH2 0x80 SWAP1 PUSH2 0x248 JUMP JUMPDEST DUP1 PUSH1 0x1F ADD PUSH1 0x20 DUP1 SWAP2 DIV MUL PUSH1 0x20 ADD PUSH1 0x40 MLOAD SWAP1 DUP2 ADD PUSH1 0x40 MSTORE DUP1 SWAP3 SWAP2 SWAP1 DUP2 DUP2 MSTORE PUSH1 0x20 ADD DUP3 DUP1 SLOAD PUSH2 0xAC SWAP1 PUSH2 0x248 JUMP JUMPDEST DUP1 ISZERO PUSH2 0xF7 JUMPI DUP1 PUSH1 0x1F LT PUSH2 0xCE JUMPI PUSH2 0x100 DUP1 DUP4 SLOAD DIV MUL DUP4 MSTORE SWAP2 PUSH1 0x20 ADD SWAP2 PUSH2 0xF7 JUMP JUMPDEST DUP3 ADD SWAP2 SWAP1 PUSH0 MSTORE PUSH1 0x20 PUSH0 KECCAK256 SWAP1 JUMPDEST DUP2 SLOAD DUP2 MSTORE SWAP1 PUSH1 0x1 ADD SWAP1 PUSH1 0x20 ADD DUP1 DUP4 GT PUSH2 0xDA JUMPI DUP3 SWAP1 SUB PUSH1 0x1F AND DUP3 ADD SWAP2 JUMPDEST POP POP POP POP POP DUP2 JUMP JUMPDEST PUSH1 0x1 DUP1 SLOAD PUSH2 0x10C SWAP1 PUSH2 0x248 JUMP JUMPDEST DUP1 PUSH1 0x1F ADD PUSH1 0x20 DUP1 SWAP2 DIV MUL PUSH1 0x20 ADD PUSH1 0x40 MLOAD SWAP1 DUP2 ADD PUSH1 0x40 MSTORE DUP1 SWAP3 SWAP2 SWAP1 DUP2 DUP2 MSTORE PUSH1 0x20 ADD DUP3 DUP1 SLOAD PUSH2 0x138 SWAP1 PUSH2 0x248 JUMP JUMPDEST DUP1 ISZERO PUSH2 0x183 JUMPI DUP1 PUSH1 0x1F LT PUSH2 0x15A JUMPI PUSH2 0x100 DUP1 DUP4 SLOAD DIV MUL DUP4 MSTORE SWAP2 PUSH1 0x20 ADD SWAP2 PUSH2 0x183 JUMP JUMPDEST DUP3 ADD SWAP2 SWAP1 PUSH0 MSTORE PUSH1 0x20 PUSH0 KECCAK256 SWAP1 JUMPDEST DUP2 SLOAD DUP2 MSTORE SWAP1 PUSH1 0x1 ADD SWAP1 PUSH1 0x20 ADD DUP1 DUP4 GT PUSH2 0x166 JUMPI DUP3 SWAP1 SUB PUSH1 0x1F AND DUP3 ADD SWAP2 JUMPDEST POP POP POP POP POP DUP2 JUMP JUMPDEST PUSH0 DUP2 MLOAD SWAP1 POP SWAP2 SWAP1 POP JUMP JUMPDEST PUSH0 DUP3 DUP3 MSTORE PUSH1 0x20 DUP3 ADD SWAP1 POP SWAP3 SWAP2 POP POP JUMP JUMPDEST DUP3 DUP2 DUP4 MCOPY PUSH0 DUP4 DUP4 ADD MSTORE POP POP POP JUMP JUMPDEST PUSH0 PUSH1 0x1F NOT PUSH1 0x1F DUP4 ADD AND SWAP1 POP SWAP2 SWAP1 POP JUMP JUMPDEST PUSH0 PUSH2 0x1CD DUP3 PUSH2 0x18B JUMP JUMPDEST PUSH2 0x1D7 DUP2 DUP6 PUSH2 0x195 JUMP JUMPDEST SWAP4 POP PUSH2 0x1E7 DUP2 DUP6 PUSH1 0x20 DUP7 ADD PUSH2 0x1A5 JUMP JUMPDEST PUSH2 0x1F0 DUP2 PUSH2 0x1B3 JUMP JUMPDEST DUP5 ADD SWAP2 POP POP SWAP3 SWAP2 POP POP JUMP JUMPDEST PUSH0 PUSH1 0x20 DUP3 ADD SWAP1 POP DUP2 DUP2 SUB PUSH0 DUP4 ADD MSTORE PUSH2 0x213 DUP2 DUP5 PUSH2 0x1C3 JUMP JUMPDEST SWAP1 POP SWAP3 SWAP2 POP POP JUMP JUMPDEST PUSH32 0x4E487B7100000000000000000000000000000000000000000000000000000000 PUSH0 MSTORE PUSH1 0x22 PUSH1 0x4 MSTORE PUSH1 0x24 PUSH0 REVERT JUMPDEST PUSH0 PUSH1 0x2 DUP3 DIV SWAP1 POP PUSH1 0x1 DUP3 AND DUP1 PUSH2 0x25F JUMPI PUSH1 0x7F DUP3 AND SWAP2 POP JUMPDEST PUSH1 0x20 DUP3 LT DUP2 SUB PUSH2 0x272 JUMPI PUSH2 0x271 PUSH2 0x21B JUMP JUMPDEST JUMPDEST POP SWAP2 SWAP1 POP JUMP INVALID LOG2 PUSH5 0x6970667358 0x22 SLT KECCAK256 0x21 0xB6 0xD6 DIV 0xA8 PUSH10 0x54359E345CE05B4C56D5 0xB5 DUP4 0x4B DUP3 0x4B 0xCF STATICCALL 0xD8 STATICCALL SHL 0xAC 0x4F 0xD9 0xEA PUSH21 0xA164736F6C634300081A0033A26469706673582212 KECCAK256 SHL JUMPI 0xE3 EXP CODECOPY SWAP6 SDIV TLOAD 0xC2 0xB7 0x2E DUP4 CODESIZE MCOPY 0xDF 0xD1 DELEGATECALL PC PREVRANDAO 0x1E EXTCODESIZE 0xE1 0x29 0xC3 CODESIZE XOR 0xE4 CALLDATALOAD REVERT RETURNDATACOPY SMOD 0xB3 PUSH5 0x736F6C6343 STOP ADDMOD BYTE STOP CALLER "
				},
				"gasEstimates": {
					"creation": {
						"codeDepositCost": "1054000",
						"executionCost": "30362",
						"totalCost": "1084362"
					},
					"external": {
						"addr_index(uint256)": "2871",
						"addr_name(address)": "infinite",
						"index()": "2402",
						"newAssert(string,string,address)": "infinite",
						"owner()": "2574",
						"receiver_addr(address)": "infinite"
					}
				},
				"methodIdentifiers": {
					"addr_index(uint256)": "7790620e",
					"addr_name(address)": "f139f35c",
					"index()": "2986c0e5",
					"newAssert(string,string,address)": "2b70af9b",
					"owner()": "8da5cb5b",
					"receiver_addr(address)": "4efe4227"
				}
			},
			"storageLayout": {
				"storage": [
					{
						"astId": 28,
						"contract": "contracts/6_AssetFactory.sol:AssetFactory",
						"label": "index",
						"offset": 0,
						"slot": "0",
						"type": "t_uint256"
					},
					{
						"astId": 32,
						"contract": "contracts/6_AssetFactory.sol:AssetFactory",
						"label": "addr_name",
						"offset": 0,
						"slot": "1",
						"type": "t_mapping(t_address,t_string_storage)"
					},
					{
						"astId": 36,
						"contract": "contracts/6_AssetFactory.sol:AssetFactory",
						"label": "receiver_addr",
						"offset": 0,
						"slot": "2",
						"type": "t_mapping(t_address,t_address)"
					},
					{
						"astId": 40,
						"contract": "contracts/6_AssetFactory.sol:AssetFactory",
						"label": "addr_index",
						"offset": 0,
						"slot": "3",
						"type": "t_mapping(t_uint256,t_address)"
					},
					{
						"astId": 42,
						"contract": "contracts/6_AssetFactory.sol:AssetFactory",
						"label": "owner",
						"offset": 0,
						"slot": "4",
						"type": "t_address"
					}
				],
				"types": {
					"t_address": {
						"encoding": "inplace",
						"label": "address",
						"numberOfBytes": "20"
					},
					"t_mapping(t_address,t_address)": {
						"encoding": "mapping",
						"key": "t_address",
						"label": "mapping(address => address)",
						"numberOfBytes": "32",
						"value": "t_address"
					},
					"t_mapping(t_address,t_string_storage)": {
						"encoding": "mapping",
						"key": "t_address",
						"label": "mapping(address => string)",
						"numberOfBytes": "32",
						"value": "t_string_storage"
					},
					"t_mapping(t_uint256,t_address)": {
						"encoding": "mapping",
						"key": "t_uint256",
						"label": "mapping(uint256 => address)",
						"numberOfBytes": "32",
						"value": "t_address"
					},
					"t_string_storage": {
						"encoding": "bytes",
						"label": "string",
						"numberOfBytes": "32"
					},
					"t_uint256": {
						"encoding": "inplace",
						"label": "uint256",
						"numberOfBytes": "32"
					}
				}
			},
			"userdoc": {
				"kind": "user",
				"methods": {},
				"version": 1
			}
		}
	}
}