{
	"contracts/6_AssertFactory.sol": {
		"AssertFactory": {
			"abi": [
				{
					"inputs": [],
					"stateMutability": "nonpayable",
					"type": "constructor"
				},
				{
					"inputs": [
						{
							"internalType": "uint256",
							"name": "",
							"type": "uint256"
						}
					],
					"name": "addr",
					"outputs": [
						{
							"internalType": "address",
							"name": "",
							"type": "address"
						}
					],
					"stateMutability": "view",
					"type": "function"
				},
				{
					"inputs": [
						{
							"internalType": "address",
							"name": "",
							"type": "address"
						}
					],
					"name": "addr_name",
					"outputs": [
						{
							"internalType": "string",
							"name": "",
							"type": "string"
						}
					],
					"stateMutability": "view",
					"type": "function"
				},
				{
					"inputs": [
						{
							"internalType": "string",
							"name": "name",
							"type": "string"
						},
						{
							"internalType": "string",
							"name": "symbol",
							"type": "string"
						}
					],
					"name": "newAssert",
					"outputs": [],
					"stateMutability": "nonpayable",
					"type": "function"
				},
				{
					"inputs": [],
					"name": "owner",
					"outputs": [
						{
							"internalType": "address",
							"name": "",
							"type": "address"
						}
					],
					"stateMutability": "view",
					"type": "function"
				},
				{
					"inputs": [
						{
							"internalType": "address",
							"name": "",
							"type": "address"
						}
					],
					"name": "receiver_addr",
					"outputs": [
						{
							"internalType": "address",
							"name": "",
							"type": "address"
						}
					],
					"stateMutability": "view",
					"type": "function"
				}
			],
			"devdoc": {
				"kind": "dev",
				"methods": {},
				"version": 1
			},
			"evm": {
				"assembly": "    /* \"contracts/6_AssertFactory.sol\":102:594  contract AssertFactory{... */\n  mstore(0x40, 0x80)\n    /* \"contracts/6_AssertFactory.sol\":147:148  0 */\n  0x00\n    /* \"contracts/6_AssertFactory.sol\":134:148  uint index = 0 */\n  dup1\n  sstore\n    /* \"contracts/6_AssertFactory.sol\":326:373  constructor(){... */\n  callvalue\n  dup1\n  iszero\n  tag_1\n  jumpi\n  0x00\n  dup1\n  revert\ntag_1:\n  pop\n    /* \"contracts/6_AssertFactory.sol\":356:366  msg.sender */\n  caller\n    /* \"contracts/6_AssertFactory.sol\":349:354  owner */\n  0x04\n  0x00\n    /* \"contracts/6_AssertFactory.sol\":349:366  owner =msg.sender */\n  0x0100\n  exp\n  dup2\n  sload\n  dup2\n  0xffffffffffffffffffffffffffffffffffffffff\n  mul\n  not\n  and\n  swap1\n  dup4\n  0xffffffffffffffffffffffffffffffffffffffff\n  and\n  mul\n  or\n  swap1\n  sstore\n  pop\n    /* \"contracts/6_AssertFactory.sol\":102:594  contract AssertFactory{... */\n  dataSize(sub_0)\n  dup1\n  dataOffset(sub_0)\n  0x00\n  codecopy\n  0x00\n  return\nstop\n\nsub_0: assembly {\n        /* \"contracts/6_AssertFactory.sol\":102:594  contract AssertFactory{... */\n      mstore(0x40, 0x80)\n      callvalue\n      dup1\n      iszero\n      tag_1\n      jumpi\n      0x00\n      dup1\n      revert\n    tag_1:\n      pop\n      jumpi(tag_2, lt(calldatasize, 0x04))\n      shr(0xe0, calldataload(0x00))\n      dup1\n      0x29b54674\n      eq\n      tag_3\n      jumpi\n      dup1\n      0x4efe4227\n      eq\n      tag_4\n      jumpi\n      dup1\n      0x8da5cb5b\n      eq\n      tag_5\n      jumpi\n      dup1\n      0xf139f35c\n      eq\n      tag_6\n      jumpi\n      dup1\n      0xffa18649\n      eq\n      tag_7\n      jumpi\n    tag_2:\n      0x00\n      dup1\n      revert\n        /* \"contracts/6_AssertFactory.sol\":458:591  function newAssert(string memory name,string memory symbol)public onlyOwner {... */\n    tag_3:\n      tag_8\n      0x04\n      dup1\n      calldatasize\n      sub\n      dup2\n      add\n      swap1\n      tag_9\n      swap2\n      swap1\n      tag_10\n      jump\t// in\n    tag_9:\n      tag_11\n      jump\t// in\n    tag_8:\n      stop\n        /* \"contracts/6_AssertFactory.sol\":203:251  mapping(address => address) public receiver_addr */\n    tag_4:\n      tag_12\n      0x04\n      dup1\n      calldatasize\n      sub\n      dup2\n      add\n      swap1\n      tag_13\n      swap2\n      swap1\n      tag_14\n      jump\t// in\n    tag_13:\n      tag_15\n      jump\t// in\n    tag_12:\n      mload(0x40)\n      tag_16\n      swap2\n      swap1\n      tag_17\n      jump\t// in\n    tag_16:\n      mload(0x40)\n      dup1\n      swap2\n      sub\n      swap1\n      return\n        /* \"contracts/6_AssertFactory.sol\":299:319  address public owner */\n    tag_5:\n      tag_18\n      tag_19\n      jump\t// in\n    tag_18:\n      mload(0x40)\n      tag_20\n      swap2\n      swap1\n      tag_17\n      jump\t// in\n    tag_20:\n      mload(0x40)\n      dup1\n      swap2\n      sub\n      swap1\n      return\n        /* \"contracts/6_AssertFactory.sol\":154:197  mapping(address => string) public addr_name */\n    tag_6:\n      tag_21\n      0x04\n      dup1\n      calldatasize\n      sub\n      dup2\n      add\n      swap1\n      tag_22\n      swap2\n      swap1\n      tag_14\n      jump\t// in\n    tag_22:\n      tag_23\n      jump\t// in\n    tag_21:\n      mload(0x40)\n      tag_24\n      swap2\n      swap1\n      tag_25\n      jump\t// in\n    tag_24:\n      mload(0x40)\n      dup1\n      swap2\n      sub\n      swap1\n      return\n        /* \"contracts/6_AssertFactory.sol\":257:293  mapping(uint => address) public addr */\n    tag_7:\n      tag_26\n      0x04\n      dup1\n      calldatasize\n      sub\n      dup2\n      add\n      swap1\n      tag_27\n      swap2\n      swap1\n      tag_28\n      jump\t// in\n    tag_27:\n      tag_29\n      jump\t// in\n    tag_26:\n      mload(0x40)\n      tag_30\n      swap2\n      swap1\n      tag_17\n      jump\t// in\n    tag_30:\n      mload(0x40)\n      dup1\n      swap2\n      sub\n      swap1\n      return\n        /* \"contracts/6_AssertFactory.sol\":458:591  function newAssert(string memory name,string memory symbol)public onlyOwner {... */\n    tag_11:\n        /* \"contracts/6_AssertFactory.sol\":429:434  owner */\n      0x04\n      0x00\n      swap1\n      sload\n      swap1\n      0x0100\n      exp\n      swap1\n      div\n      0xffffffffffffffffffffffffffffffffffffffff\n      and\n        /* \"contracts/6_AssertFactory.sol\":417:434  msg.sender==owner */\n      0xffffffffffffffffffffffffffffffffffffffff\n      and\n        /* \"contracts/6_AssertFactory.sol\":417:427  msg.sender */\n      caller\n        /* \"contracts/6_AssertFactory.sol\":417:434  msg.sender==owner */\n      0xffffffffffffffffffffffffffffffffffffffff\n      and\n      eq\n        /* \"contracts/6_AssertFactory.sol\":409:435  require(msg.sender==owner) */\n      tag_32\n      jumpi\n      0x00\n      dup1\n      revert\n    tag_32:\n        /* \"contracts/6_AssertFactory.sol\":544:557  Assert assert */\n      0x00\n        /* \"contracts/6_AssertFactory.sol\":571:575  name */\n      dup3\n        /* \"contracts/6_AssertFactory.sol\":576:582  symbol */\n      dup3\n        /* \"contracts/6_AssertFactory.sol\":560:583  new Assert(name,symbol) */\n      mload(0x40)\n      tag_34\n      swap1\n      tag_35\n      jump\t// in\n    tag_34:\n      tag_36\n      swap3\n      swap2\n      swap1\n      tag_37\n      jump\t// in\n    tag_36:\n      mload(0x40)\n      dup1\n      swap2\n      sub\n      swap1\n      0x00\n      create\n      dup1\n      iszero\n      dup1\n      iszero\n      tag_38\n      jumpi\n      returndatasize\n      0x00\n      dup1\n      returndatacopy\n      revert(0x00, returndatasize)\n    tag_38:\n      pop\n        /* \"contracts/6_AssertFactory.sol\":544:583  Assert assert = new Assert(name,symbol) */\n      swap1\n      pop\n        /* \"contracts/6_AssertFactory.sol\":534:591  {... */\n      pop\n        /* \"contracts/6_AssertFactory.sol\":458:591  function newAssert(string memory name,string memory symbol)public onlyOwner {... */\n      pop\n      pop\n      jump\t// out\n        /* \"contracts/6_AssertFactory.sol\":203:251  mapping(address => address) public receiver_addr */\n    tag_15:\n      mstore(0x20, 0x02)\n      dup1\n      0x00\n      mstore\n      keccak256(0x00, 0x40)\n      0x00\n      swap2\n      pop\n      sload\n      swap1\n      0x0100\n      exp\n      swap1\n      div\n      0xffffffffffffffffffffffffffffffffffffffff\n      and\n      dup2\n      jump\t// out\n        /* \"contracts/6_AssertFactory.sol\":299:319  address public owner */\n    tag_19:\n      0x04\n      0x00\n      swap1\n      sload\n      swap1\n      0x0100\n      exp\n      swap1\n      div\n      0xffffffffffffffffffffffffffffffffffffffff\n      and\n      dup2\n      jump\t// out\n        /* \"contracts/6_AssertFactory.sol\":154:197  mapping(address => string) public addr_name */\n    tag_23:\n      mstore(0x20, 0x01)\n      dup1\n      0x00\n      mstore\n      keccak256(0x00, 0x40)\n      0x00\n      swap2\n      pop\n      swap1\n      pop\n      dup1\n      sload\n      tag_39\n      swap1\n      tag_40\n      jump\t// in\n    tag_39:\n      dup1\n      0x1f\n      add\n      0x20\n      dup1\n      swap2\n      div\n      mul\n      0x20\n      add\n      mload(0x40)\n      swap1\n      dup2\n      add\n      0x40\n      mstore\n      dup1\n      swap3\n      swap2\n      swap1\n      dup2\n      dup2\n      mstore\n      0x20\n      add\n      dup3\n      dup1\n      sload\n      tag_41\n      swap1\n      tag_40\n      jump\t// in\n    tag_41:\n      dup1\n      iszero\n      tag_42\n      jumpi\n      dup1\n      0x1f\n      lt\n      tag_43\n      jumpi\n      0x0100\n      dup1\n      dup4\n      sload\n      div\n      mul\n      dup4\n      mstore\n      swap2\n      0x20\n      add\n      swap2\n      jump(tag_42)\n    tag_43:\n      dup3\n      add\n      swap2\n      swap1\n      0x00\n      mstore\n      keccak256(0x00, 0x20)\n      swap1\n    tag_44:\n      dup2\n      sload\n      dup2\n      mstore\n      swap1\n      0x01\n      add\n      swap1\n      0x20\n      add\n      dup1\n      dup4\n      gt\n      tag_44\n      jumpi\n      dup3\n      swap1\n      sub\n      0x1f\n      and\n      dup3\n      add\n      swap2\n    tag_42:\n      pop\n      pop\n      pop\n      pop\n      pop\n      dup2\n      jump\t// out\n        /* \"contracts/6_AssertFactory.sol\":257:293  mapping(uint => address) public addr */\n    tag_29:\n      mstore(0x20, 0x03)\n      dup1\n      0x00\n      mstore\n      keccak256(0x00, 0x40)\n      0x00\n      swap2\n      pop\n      sload\n      swap1\n      0x0100\n      exp\n      swap1\n      div\n      0xffffffffffffffffffffffffffffffffffffffff\n      and\n      dup2\n      jump\t// out\n    tag_35:\n      dataSize(sub_0)\n      dup1\n      dataOffset(sub_0)\n      dup4\n      codecopy\n      add\n      swap1\n      jump\t// out\n        /* \"#utility.yul\":7:82   */\n    tag_45:\n        /* \"#utility.yul\":40:46   */\n      0x00\n        /* \"#utility.yul\":73:75   */\n      0x40\n        /* \"#utility.yul\":67:76   */\n      mload\n        /* \"#utility.yul\":57:76   */\n      swap1\n      pop\n        /* \"#utility.yul\":7:82   */\n      swap1\n      jump\t// out\n        /* \"#utility.yul\":88:205   */\n    tag_46:\n        /* \"#utility.yul\":197:198   */\n      0x00\n        /* \"#utility.yul\":194:195   */\n      dup1\n        /* \"#utility.yul\":187:199   */\n      revert\n        /* \"#utility.yul\":211:328   */\n    tag_47:\n        /* \"#utility.yul\":320:321   */\n      0x00\n        /* \"#utility.yul\":317:318   */\n      dup1\n        /* \"#utility.yul\":310:322   */\n      revert\n        /* \"#utility.yul\":334:451   */\n    tag_48:\n        /* \"#utility.yul\":443:444   */\n      0x00\n        /* \"#utility.yul\":440:441   */\n      dup1\n        /* \"#utility.yul\":433:445   */\n      revert\n        /* \"#utility.yul\":457:574   */\n    tag_49:\n        /* \"#utility.yul\":566:567   */\n      0x00\n        /* \"#utility.yul\":563:564   */\n      dup1\n        /* \"#utility.yul\":556:568   */\n      revert\n        /* \"#utility.yul\":580:682   */\n    tag_50:\n        /* \"#utility.yul\":621:627   */\n      0x00\n        /* \"#utility.yul\":672:674   */\n      0x1f\n        /* \"#utility.yul\":668:675   */\n      not\n        /* \"#utility.yul\":663:665   */\n      0x1f\n        /* \"#utility.yul\":656:661   */\n      dup4\n        /* \"#utility.yul\":652:666   */\n      add\n        /* \"#utility.yul\":648:676   */\n      and\n        /* \"#utility.yul\":638:676   */\n      swap1\n      pop\n        /* \"#utility.yul\":580:682   */\n      swap2\n      swap1\n      pop\n      jump\t// out\n        /* \"#utility.yul\":688:868   */\n    tag_51:\n        /* \"#utility.yul\":736:813   */\n      0x4e487b7100000000000000000000000000000000000000000000000000000000\n        /* \"#utility.yul\":733:734   */\n      0x00\n        /* \"#utility.yul\":726:814   */\n      mstore\n        /* \"#utility.yul\":833:837   */\n      0x41\n        /* \"#utility.yul\":830:831   */\n      0x04\n        /* \"#utility.yul\":823:838   */\n      mstore\n        /* \"#utility.yul\":857:861   */\n      0x24\n        /* \"#utility.yul\":854:855   */\n      0x00\n        /* \"#utility.yul\":847:862   */\n      revert\n        /* \"#utility.yul\":874:1155   */\n    tag_52:\n        /* \"#utility.yul\":957:984   */\n      tag_80\n        /* \"#utility.yul\":979:983   */\n      dup3\n        /* \"#utility.yul\":957:984   */\n      tag_50\n      jump\t// in\n    tag_80:\n        /* \"#utility.yul\":949:955   */\n      dup2\n        /* \"#utility.yul\":945:985   */\n      add\n        /* \"#utility.yul\":1087:1093   */\n      dup2\n        /* \"#utility.yul\":1075:1085   */\n      dup2\n        /* \"#utility.yul\":1072:1094   */\n      lt\n        /* \"#utility.yul\":1051:1069   */\n      0xffffffffffffffff\n        /* \"#utility.yul\":1039:1049   */\n      dup3\n        /* \"#utility.yul\":1036:1070   */\n      gt\n        /* \"#utility.yul\":1033:1095   */\n      or\n        /* \"#utility.yul\":1030:1118   */\n      iszero\n      tag_81\n      jumpi\n        /* \"#utility.yul\":1098:1116   */\n      tag_82\n      tag_51\n      jump\t// in\n    tag_82:\n        /* \"#utility.yul\":1030:1118   */\n    tag_81:\n        /* \"#utility.yul\":1138:1148   */\n      dup1\n        /* \"#utility.yul\":1134:1136   */\n      0x40\n        /* \"#utility.yul\":1127:1149   */\n      mstore\n        /* \"#utility.yul\":917:1155   */\n      pop\n        /* \"#utility.yul\":874:1155   */\n      pop\n      pop\n      jump\t// out\n        /* \"#utility.yul\":1161:1290   */\n    tag_53:\n        /* \"#utility.yul\":1195:1201   */\n      0x00\n        /* \"#utility.yul\":1222:1242   */\n      tag_84\n      tag_45\n      jump\t// in\n    tag_84:\n        /* \"#utility.yul\":1212:1242   */\n      swap1\n      pop\n        /* \"#utility.yul\":1251:1284   */\n      tag_85\n        /* \"#utility.yul\":1279:1283   */\n      dup3\n        /* \"#utility.yul\":1271:1277   */\n      dup3\n        /* \"#utility.yul\":1251:1284   */\n      tag_52\n      jump\t// in\n    tag_85:\n        /* \"#utility.yul\":1161:1290   */\n      swap2\n      swap1\n      pop\n      jump\t// out\n        /* \"#utility.yul\":1296:1604   */\n    tag_54:\n        /* \"#utility.yul\":1358:1362   */\n      0x00\n        /* \"#utility.yul\":1448:1466   */\n      0xffffffffffffffff\n        /* \"#utility.yul\":1440:1446   */\n      dup3\n        /* \"#utility.yul\":1437:1467   */\n      gt\n        /* \"#utility.yul\":1434:1490   */\n      iszero\n      tag_87\n      jumpi\n        /* \"#utility.yul\":1470:1488   */\n      tag_88\n      tag_51\n      jump\t// in\n    tag_88:\n        /* \"#utility.yul\":1434:1490   */\n    tag_87:\n        /* \"#utility.yul\":1508:1537   */\n      tag_89\n        /* \"#utility.yul\":1530:1536   */\n      dup3\n        /* \"#utility.yul\":1508:1537   */\n      tag_50\n      jump\t// in\n    tag_89:\n        /* \"#utility.yul\":1500:1537   */\n      swap1\n      pop\n        /* \"#utility.yul\":1592:1596   */\n      0x20\n        /* \"#utility.yul\":1586:1590   */\n      dup2\n        /* \"#utility.yul\":1582:1597   */\n      add\n        /* \"#utility.yul\":1574:1597   */\n      swap1\n      pop\n        /* \"#utility.yul\":1296:1604   */\n      swap2\n      swap1\n      pop\n      jump\t// out\n        /* \"#utility.yul\":1610:1758   */\n    tag_55:\n        /* \"#utility.yul\":1708:1714   */\n      dup3\n        /* \"#utility.yul\":1703:1706   */\n      dup2\n        /* \"#utility.yul\":1698:1701   */\n      dup4\n        /* \"#utility.yul\":1685:1715   */\n      calldatacopy\n        /* \"#utility.yul\":1749:1750   */\n      0x00\n        /* \"#utility.yul\":1740:1746   */\n      dup4\n        /* \"#utility.yul\":1735:1738   */\n      dup4\n        /* \"#utility.yul\":1731:1747   */\n      add\n        /* \"#utility.yul\":1724:1751   */\n      mstore\n        /* \"#utility.yul\":1610:1758   */\n      pop\n      pop\n      pop\n      jump\t// out\n        /* \"#utility.yul\":1764:2189   */\n    tag_56:\n        /* \"#utility.yul\":1842:1847   */\n      0x00\n        /* \"#utility.yul\":1867:1933   */\n      tag_92\n        /* \"#utility.yul\":1883:1932   */\n      tag_93\n        /* \"#utility.yul\":1925:1931   */\n      dup5\n        /* \"#utility.yul\":1883:1932   */\n      tag_54\n      jump\t// in\n    tag_93:\n        /* \"#utility.yul\":1867:1933   */\n      tag_53\n      jump\t// in\n    tag_92:\n        /* \"#utility.yul\":1858:1933   */\n      swap1\n      pop\n        /* \"#utility.yul\":1956:1962   */\n      dup3\n        /* \"#utility.yul\":1949:1954   */\n      dup2\n        /* \"#utility.yul\":1942:1963   */\n      mstore\n        /* \"#utility.yul\":1994:1998   */\n      0x20\n        /* \"#utility.yul\":1987:1992   */\n      dup2\n        /* \"#utility.yul\":1983:1999   */\n      add\n        /* \"#utility.yul\":2032:2035   */\n      dup5\n        /* \"#utility.yul\":2023:2029   */\n      dup5\n        /* \"#utility.yul\":2018:2021   */\n      dup5\n        /* \"#utility.yul\":2014:2030   */\n      add\n        /* \"#utility.yul\":2011:2036   */\n      gt\n        /* \"#utility.yul\":2008:2120   */\n      iszero\n      tag_94\n      jumpi\n        /* \"#utility.yul\":2039:2118   */\n      tag_95\n      tag_49\n      jump\t// in\n    tag_95:\n        /* \"#utility.yul\":2008:2120   */\n    tag_94:\n        /* \"#utility.yul\":2129:2183   */\n      tag_96\n        /* \"#utility.yul\":2176:2182   */\n      dup5\n        /* \"#utility.yul\":2171:2174   */\n      dup3\n        /* \"#utility.yul\":2166:2169   */\n      dup6\n        /* \"#utility.yul\":2129:2183   */\n      tag_55\n      jump\t// in\n    tag_96:\n        /* \"#utility.yul\":1848:2189   */\n      pop\n        /* \"#utility.yul\":1764:2189   */\n      swap4\n      swap3\n      pop\n      pop\n      pop\n      jump\t// out\n        /* \"#utility.yul\":2209:2549   */\n    tag_57:\n        /* \"#utility.yul\":2265:2270   */\n      0x00\n        /* \"#utility.yul\":2314:2317   */\n      dup3\n        /* \"#utility.yul\":2307:2311   */\n      0x1f\n        /* \"#utility.yul\":2299:2305   */\n      dup4\n        /* \"#utility.yul\":2295:2312   */\n      add\n        /* \"#utility.yul\":2291:2318   */\n      slt\n        /* \"#utility.yul\":2281:2403   */\n      tag_98\n      jumpi\n        /* \"#utility.yul\":2322:2401   */\n      tag_99\n      tag_48\n      jump\t// in\n    tag_99:\n        /* \"#utility.yul\":2281:2403   */\n    tag_98:\n        /* \"#utility.yul\":2439:2445   */\n      dup2\n        /* \"#utility.yul\":2426:2446   */\n      calldataload\n        /* \"#utility.yul\":2464:2543   */\n      tag_100\n        /* \"#utility.yul\":2539:2542   */\n      dup5\n        /* \"#utility.yul\":2531:2537   */\n      dup3\n        /* \"#utility.yul\":2524:2528   */\n      0x20\n        /* \"#utility.yul\":2516:2522   */\n      dup7\n        /* \"#utility.yul\":2512:2529   */\n      add\n        /* \"#utility.yul\":2464:2543   */\n      tag_56\n      jump\t// in\n    tag_100:\n        /* \"#utility.yul\":2455:2543   */\n      swap2\n      pop\n        /* \"#utility.yul\":2271:2549   */\n      pop\n        /* \"#utility.yul\":2209:2549   */\n      swap3\n      swap2\n      pop\n      pop\n      jump\t// out\n        /* \"#utility.yul\":2555:3389   */\n    tag_10:\n        /* \"#utility.yul\":2643:2649   */\n      0x00\n        /* \"#utility.yul\":2651:2657   */\n      dup1\n        /* \"#utility.yul\":2700:2702   */\n      0x40\n        /* \"#utility.yul\":2688:2697   */\n      dup4\n        /* \"#utility.yul\":2679:2686   */\n      dup6\n        /* \"#utility.yul\":2675:2698   */\n      sub\n        /* \"#utility.yul\":2671:2703   */\n      slt\n        /* \"#utility.yul\":2668:2787   */\n      iszero\n      tag_102\n      jumpi\n        /* \"#utility.yul\":2706:2785   */\n      tag_103\n      tag_46\n      jump\t// in\n    tag_103:\n        /* \"#utility.yul\":2668:2787   */\n    tag_102:\n        /* \"#utility.yul\":2854:2855   */\n      0x00\n        /* \"#utility.yul\":2843:2852   */\n      dup4\n        /* \"#utility.yul\":2839:2856   */\n      add\n        /* \"#utility.yul\":2826:2857   */\n      calldataload\n        /* \"#utility.yul\":2884:2902   */\n      0xffffffffffffffff\n        /* \"#utility.yul\":2876:2882   */\n      dup2\n        /* \"#utility.yul\":2873:2903   */\n      gt\n        /* \"#utility.yul\":2870:2987   */\n      iszero\n      tag_104\n      jumpi\n        /* \"#utility.yul\":2906:2985   */\n      tag_105\n      tag_47\n      jump\t// in\n    tag_105:\n        /* \"#utility.yul\":2870:2987   */\n    tag_104:\n        /* \"#utility.yul\":3011:3074   */\n      tag_106\n        /* \"#utility.yul\":3066:3073   */\n      dup6\n        /* \"#utility.yul\":3057:3063   */\n      dup3\n        /* \"#utility.yul\":3046:3055   */\n      dup7\n        /* \"#utility.yul\":3042:3064   */\n      add\n        /* \"#utility.yul\":3011:3074   */\n      tag_57\n      jump\t// in\n    tag_106:\n        /* \"#utility.yul\":3001:3074   */\n      swap3\n      pop\n        /* \"#utility.yul\":2797:3084   */\n      pop\n        /* \"#utility.yul\":3151:3153   */\n      0x20\n        /* \"#utility.yul\":3140:3149   */\n      dup4\n        /* \"#utility.yul\":3136:3154   */\n      add\n        /* \"#utility.yul\":3123:3155   */\n      calldataload\n        /* \"#utility.yul\":3182:3200   */\n      0xffffffffffffffff\n        /* \"#utility.yul\":3174:3180   */\n      dup2\n        /* \"#utility.yul\":3171:3201   */\n      gt\n        /* \"#utility.yul\":3168:3285   */\n      iszero\n      tag_107\n      jumpi\n        /* \"#utility.yul\":3204:3283   */\n      tag_108\n      tag_47\n      jump\t// in\n    tag_108:\n        /* \"#utility.yul\":3168:3285   */\n    tag_107:\n        /* \"#utility.yul\":3309:3372   */\n      tag_109\n        /* \"#utility.yul\":3364:3371   */\n      dup6\n        /* \"#utility.yul\":3355:3361   */\n      dup3\n        /* \"#utility.yul\":3344:3353   */\n      dup7\n        /* \"#utility.yul\":3340:3362   */\n      add\n        /* \"#utility.yul\":3309:3372   */\n      tag_57\n      jump\t// in\n    tag_109:\n        /* \"#utility.yul\":3299:3372   */\n      swap2\n      pop\n        /* \"#utility.yul\":3094:3382   */\n      pop\n        /* \"#utility.yul\":2555:3389   */\n      swap3\n      pop\n      swap3\n      swap1\n      pop\n      jump\t// out\n        /* \"#utility.yul\":3395:3521   */\n    tag_58:\n        /* \"#utility.yul\":3432:3439   */\n      0x00\n        /* \"#utility.yul\":3472:3514   */\n      0xffffffffffffffffffffffffffffffffffffffff\n        /* \"#utility.yul\":3465:3470   */\n      dup3\n        /* \"#utility.yul\":3461:3515   */\n      and\n        /* \"#utility.yul\":3450:3515   */\n      swap1\n      pop\n        /* \"#utility.yul\":3395:3521   */\n      swap2\n      swap1\n      pop\n      jump\t// out\n        /* \"#utility.yul\":3527:3623   */\n    tag_59:\n        /* \"#utility.yul\":3564:3571   */\n      0x00\n        /* \"#utility.yul\":3593:3617   */\n      tag_112\n        /* \"#utility.yul\":3611:3616   */\n      dup3\n        /* \"#utility.yul\":3593:3617   */\n      tag_58\n      jump\t// in\n    tag_112:\n        /* \"#utility.yul\":3582:3617   */\n      swap1\n      pop\n        /* \"#utility.yul\":3527:3623   */\n      swap2\n      swap1\n      pop\n      jump\t// out\n        /* \"#utility.yul\":3629:3751   */\n    tag_60:\n        /* \"#utility.yul\":3702:3726   */\n      tag_114\n        /* \"#utility.yul\":3720:3725   */\n      dup2\n        /* \"#utility.yul\":3702:3726   */\n      tag_59\n      jump\t// in\n    tag_114:\n        /* \"#utility.yul\":3695:3700   */\n      dup2\n        /* \"#utility.yul\":3692:3727   */\n      eq\n        /* \"#utility.yul\":3682:3745   */\n      tag_115\n      jumpi\n        /* \"#utility.yul\":3741:3742   */\n      0x00\n        /* \"#utility.yul\":3738:3739   */\n      dup1\n        /* \"#utility.yul\":3731:3743   */\n      revert\n        /* \"#utility.yul\":3682:3745   */\n    tag_115:\n        /* \"#utility.yul\":3629:3751   */\n      pop\n      jump\t// out\n        /* \"#utility.yul\":3757:3896   */\n    tag_61:\n        /* \"#utility.yul\":3803:3808   */\n      0x00\n        /* \"#utility.yul\":3841:3847   */\n      dup2\n        /* \"#utility.yul\":3828:3848   */\n      calldataload\n        /* \"#utility.yul\":3819:3848   */\n      swap1\n      pop\n        /* \"#utility.yul\":3857:3890   */\n      tag_117\n        /* \"#utility.yul\":3884:3889   */\n      dup2\n        /* \"#utility.yul\":3857:3890   */\n      tag_60\n      jump\t// in\n    tag_117:\n        /* \"#utility.yul\":3757:3896   */\n      swap3\n      swap2\n      pop\n      pop\n      jump\t// out\n        /* \"#utility.yul\":3902:4231   */\n    tag_14:\n        /* \"#utility.yul\":3961:3967   */\n      0x00\n        /* \"#utility.yul\":4010:4012   */\n      0x20\n        /* \"#utility.yul\":3998:4007   */\n      dup3\n        /* \"#utility.yul\":3989:3996   */\n      dup5\n        /* \"#utility.yul\":3985:4008   */\n      sub\n        /* \"#utility.yul\":3981:4013   */\n      slt\n        /* \"#utility.yul\":3978:4097   */\n      iszero\n      tag_119\n      jumpi\n        /* \"#utility.yul\":4016:4095   */\n      tag_120\n      tag_46\n      jump\t// in\n    tag_120:\n        /* \"#utility.yul\":3978:4097   */\n    tag_119:\n        /* \"#utility.yul\":4136:4137   */\n      0x00\n        /* \"#utility.yul\":4161:4214   */\n      tag_121\n        /* \"#utility.yul\":4206:4213   */\n      dup5\n        /* \"#utility.yul\":4197:4203   */\n      dup3\n        /* \"#utility.yul\":4186:4195   */\n      dup6\n        /* \"#utility.yul\":4182:4204   */\n      add\n        /* \"#utility.yul\":4161:4214   */\n      tag_61\n      jump\t// in\n    tag_121:\n        /* \"#utility.yul\":4151:4214   */\n      swap2\n      pop\n        /* \"#utility.yul\":4107:4224   */\n      pop\n        /* \"#utility.yul\":3902:4231   */\n      swap3\n      swap2\n      pop\n      pop\n      jump\t// out\n        /* \"#utility.yul\":4237:4355   */\n    tag_62:\n        /* \"#utility.yul\":4324:4348   */\n      tag_123\n        /* \"#utility.yul\":4342:4347   */\n      dup2\n        /* \"#utility.yul\":4324:4348   */\n      tag_59\n      jump\t// in\n    tag_123:\n        /* \"#utility.yul\":4319:4322   */\n      dup3\n        /* \"#utility.yul\":4312:4349   */\n      mstore\n        /* \"#utility.yul\":4237:4355   */\n      pop\n      pop\n      jump\t// out\n        /* \"#utility.yul\":4361:4583   */\n    tag_17:\n        /* \"#utility.yul\":4454:4458   */\n      0x00\n        /* \"#utility.yul\":4492:4494   */\n      0x20\n        /* \"#utility.yul\":4481:4490   */\n      dup3\n        /* \"#utility.yul\":4477:4495   */\n      add\n        /* \"#utility.yul\":4469:4495   */\n      swap1\n      pop\n        /* \"#utility.yul\":4505:4576   */\n      tag_125\n        /* \"#utility.yul\":4573:4574   */\n      0x00\n        /* \"#utility.yul\":4562:4571   */\n      dup4\n        /* \"#utility.yul\":4558:4575   */\n      add\n        /* \"#utility.yul\":4549:4555   */\n      dup5\n        /* \"#utility.yul\":4505:4576   */\n      tag_62\n      jump\t// in\n    tag_125:\n        /* \"#utility.yul\":4361:4583   */\n      swap3\n      swap2\n      pop\n      pop\n      jump\t// out\n        /* \"#utility.yul\":4589:4688   */\n    tag_63:\n        /* \"#utility.yul\":4641:4647   */\n      0x00\n        /* \"#utility.yul\":4675:4680   */\n      dup2\n        /* \"#utility.yul\":4669:4681   */\n      mload\n        /* \"#utility.yul\":4659:4681   */\n      swap1\n      pop\n        /* \"#utility.yul\":4589:4688   */\n      swap2\n      swap1\n      pop\n      jump\t// out\n        /* \"#utility.yul\":4694:4863   */\n    tag_64:\n        /* \"#utility.yul\":4778:4789   */\n      0x00\n        /* \"#utility.yul\":4812:4818   */\n      dup3\n        /* \"#utility.yul\":4807:4810   */\n      dup3\n        /* \"#utility.yul\":4800:4819   */\n      mstore\n        /* \"#utility.yul\":4852:4856   */\n      0x20\n        /* \"#utility.yul\":4847:4850   */\n      dup3\n        /* \"#utility.yul\":4843:4857   */\n      add\n        /* \"#utility.yul\":4828:4857   */\n      swap1\n      pop\n        /* \"#utility.yul\":4694:4863   */\n      swap3\n      swap2\n      pop\n      pop\n      jump\t// out\n        /* \"#utility.yul\":4869:5008   */\n    tag_65:\n        /* \"#utility.yul\":4958:4964   */\n      dup3\n        /* \"#utility.yul\":4953:4956   */\n      dup2\n        /* \"#utility.yul\":4948:4951   */\n      dup4\n        /* \"#utility.yul\":4942:4965   */\n      mcopy\n        /* \"#utility.yul\":4999:5000   */\n      0x00\n        /* \"#utility.yul\":4990:4996   */\n      dup4\n        /* \"#utility.yul\":4985:4988   */\n      dup4\n        /* \"#utility.yul\":4981:4997   */\n      add\n        /* \"#utility.yul\":4974:5001   */\n      mstore\n        /* \"#utility.yul\":4869:5008   */\n      pop\n      pop\n      pop\n      jump\t// out\n        /* \"#utility.yul\":5014:5391   */\n    tag_66:\n        /* \"#utility.yul\":5102:5105   */\n      0x00\n        /* \"#utility.yul\":5130:5169   */\n      tag_130\n        /* \"#utility.yul\":5163:5168   */\n      dup3\n        /* \"#utility.yul\":5130:5169   */\n      tag_63\n      jump\t// in\n    tag_130:\n        /* \"#utility.yul\":5185:5256   */\n      tag_131\n        /* \"#utility.yul\":5249:5255   */\n      dup2\n        /* \"#utility.yul\":5244:5247   */\n      dup6\n        /* \"#utility.yul\":5185:5256   */\n      tag_64\n      jump\t// in\n    tag_131:\n        /* \"#utility.yul\":5178:5256   */\n      swap4\n      pop\n        /* \"#utility.yul\":5265:5330   */\n      tag_132\n        /* \"#utility.yul\":5323:5329   */\n      dup2\n        /* \"#utility.yul\":5318:5321   */\n      dup6\n        /* \"#utility.yul\":5311:5315   */\n      0x20\n        /* \"#utility.yul\":5304:5309   */\n      dup7\n        /* \"#utility.yul\":5300:5316   */\n      add\n        /* \"#utility.yul\":5265:5330   */\n      tag_65\n      jump\t// in\n    tag_132:\n        /* \"#utility.yul\":5355:5384   */\n      tag_133\n        /* \"#utility.yul\":5377:5383   */\n      dup2\n        /* \"#utility.yul\":5355:5384   */\n      tag_50\n      jump\t// in\n    tag_133:\n        /* \"#utility.yul\":5350:5353   */\n      dup5\n        /* \"#utility.yul\":5346:5385   */\n      add\n        /* \"#utility.yul\":5339:5385   */\n      swap2\n      pop\n        /* \"#utility.yul\":5106:5391   */\n      pop\n        /* \"#utility.yul\":5014:5391   */\n      swap3\n      swap2\n      pop\n      pop\n      jump\t// out\n        /* \"#utility.yul\":5397:5710   */\n    tag_25:\n        /* \"#utility.yul\":5510:5514   */\n      0x00\n        /* \"#utility.yul\":5548:5550   */\n      0x20\n        /* \"#utility.yul\":5537:5546   */\n      dup3\n        /* \"#utility.yul\":5533:5551   */\n      add\n        /* \"#utility.yul\":5525:5551   */\n      swap1\n      pop\n        /* \"#utility.yul\":5597:5606   */\n      dup2\n        /* \"#utility.yul\":5591:5595   */\n      dup2\n        /* \"#utility.yul\":5587:5607   */\n      sub\n        /* \"#utility.yul\":5583:5584   */\n      0x00\n        /* \"#utility.yul\":5572:5581   */\n      dup4\n        /* \"#utility.yul\":5568:5585   */\n      add\n        /* \"#utility.yul\":5561:5608   */\n      mstore\n        /* \"#utility.yul\":5625:5703   */\n      tag_135\n        /* \"#utility.yul\":5698:5702   */\n      dup2\n        /* \"#utility.yul\":5689:5695   */\n      dup5\n        /* \"#utility.yul\":5625:5703   */\n      tag_66\n      jump\t// in\n    tag_135:\n        /* \"#utility.yul\":5617:5703   */\n      swap1\n      pop\n        /* \"#utility.yul\":5397:5710   */\n      swap3\n      swap2\n      pop\n      pop\n      jump\t// out\n        /* \"#utility.yul\":5716:5793   */\n    tag_67:\n        /* \"#utility.yul\":5753:5760   */\n      0x00\n        /* \"#utility.yul\":5782:5787   */\n      dup2\n        /* \"#utility.yul\":5771:5787   */\n      swap1\n      pop\n        /* \"#utility.yul\":5716:5793   */\n      swap2\n      swap1\n      pop\n      jump\t// out\n        /* \"#utility.yul\":5799:5921   */\n    tag_68:\n        /* \"#utility.yul\":5872:5896   */\n      tag_138\n        /* \"#utility.yul\":5890:5895   */\n      dup2\n        /* \"#utility.yul\":5872:5896   */\n      tag_67\n      jump\t// in\n    tag_138:\n        /* \"#utility.yul\":5865:5870   */\n      dup2\n        /* \"#utility.yul\":5862:5897   */\n      eq\n        /* \"#utility.yul\":5852:5915   */\n      tag_139\n      jumpi\n        /* \"#utility.yul\":5911:5912   */\n      0x00\n        /* \"#utility.yul\":5908:5909   */\n      dup1\n        /* \"#utility.yul\":5901:5913   */\n      revert\n        /* \"#utility.yul\":5852:5915   */\n    tag_139:\n        /* \"#utility.yul\":5799:5921   */\n      pop\n      jump\t// out\n        /* \"#utility.yul\":5927:6066   */\n    tag_69:\n        /* \"#utility.yul\":5973:5978   */\n      0x00\n        /* \"#utility.yul\":6011:6017   */\n      dup2\n        /* \"#utility.yul\":5998:6018   */\n      calldataload\n        /* \"#utility.yul\":5989:6018   */\n      swap1\n      pop\n        /* \"#utility.yul\":6027:6060   */\n      tag_141\n        /* \"#utility.yul\":6054:6059   */\n      dup2\n        /* \"#utility.yul\":6027:6060   */\n      tag_68\n      jump\t// in\n    tag_141:\n        /* \"#utility.yul\":5927:6066   */\n      swap3\n      swap2\n      pop\n      pop\n      jump\t// out\n        /* \"#utility.yul\":6072:6401   */\n    tag_28:\n        /* \"#utility.yul\":6131:6137   */\n      0x00\n        /* \"#utility.yul\":6180:6182   */\n      0x20\n        /* \"#utility.yul\":6168:6177   */\n      dup3\n        /* \"#utility.yul\":6159:6166   */\n      dup5\n        /* \"#utility.yul\":6155:6178   */\n      sub\n        /* \"#utility.yul\":6151:6183   */\n      slt\n        /* \"#utility.yul\":6148:6267   */\n      iszero\n      tag_143\n      jumpi\n        /* \"#utility.yul\":6186:6265   */\n      tag_144\n      tag_46\n      jump\t// in\n    tag_144:\n        /* \"#utility.yul\":6148:6267   */\n    tag_143:\n        /* \"#utility.yul\":6306:6307   */\n      0x00\n        /* \"#utility.yul\":6331:6384   */\n      tag_145\n        /* \"#utility.yul\":6376:6383   */\n      dup5\n        /* \"#utility.yul\":6367:6373   */\n      dup3\n        /* \"#utility.yul\":6356:6365   */\n      dup6\n        /* \"#utility.yul\":6352:6374   */\n      add\n        /* \"#utility.yul\":6331:6384   */\n      tag_69\n      jump\t// in\n    tag_145:\n        /* \"#utility.yul\":6321:6384   */\n      swap2\n      pop\n        /* \"#utility.yul\":6277:6394   */\n      pop\n        /* \"#utility.yul\":6072:6401   */\n      swap3\n      swap2\n      pop\n      pop\n      jump\t// out\n        /* \"#utility.yul\":6407:6921   */\n    tag_37:\n        /* \"#utility.yul\":6568:6572   */\n      0x00\n        /* \"#utility.yul\":6606:6608   */\n      0x40\n        /* \"#utility.yul\":6595:6604   */\n      dup3\n        /* \"#utility.yul\":6591:6609   */\n      add\n        /* \"#utility.yul\":6583:6609   */\n      swap1\n      pop\n        /* \"#utility.yul\":6655:6664   */\n      dup2\n        /* \"#utility.yul\":6649:6653   */\n      dup2\n        /* \"#utility.yul\":6645:6665   */\n      sub\n        /* \"#utility.yul\":6641:6642   */\n      0x00\n        /* \"#utility.yul\":6630:6639   */\n      dup4\n        /* \"#utility.yul\":6626:6643   */\n      add\n        /* \"#utility.yul\":6619:6666   */\n      mstore\n        /* \"#utility.yul\":6683:6761   */\n      tag_147\n        /* \"#utility.yul\":6756:6760   */\n      dup2\n        /* \"#utility.yul\":6747:6753   */\n      dup6\n        /* \"#utility.yul\":6683:6761   */\n      tag_66\n      jump\t// in\n    tag_147:\n        /* \"#utility.yul\":6675:6761   */\n      swap1\n      pop\n        /* \"#utility.yul\":6808:6817   */\n      dup2\n        /* \"#utility.yul\":6802:6806   */\n      dup2\n        /* \"#utility.yul\":6798:6818   */\n      sub\n        /* \"#utility.yul\":6793:6795   */\n      0x20\n        /* \"#utility.yul\":6782:6791   */\n      dup4\n        /* \"#utility.yul\":6778:6796   */\n      add\n        /* \"#utility.yul\":6771:6819   */\n      mstore\n        /* \"#utility.yul\":6836:6914   */\n      tag_148\n        /* \"#utility.yul\":6909:6913   */\n      dup2\n        /* \"#utility.yul\":6900:6906   */\n      dup5\n        /* \"#utility.yul\":6836:6914   */\n      tag_66\n      jump\t// in\n    tag_148:\n        /* \"#utility.yul\":6828:6914   */\n      swap1\n      pop\n        /* \"#utility.yul\":6407:6921   */\n      swap4\n      swap3\n      pop\n      pop\n      pop\n      jump\t// out\n        /* \"#utility.yul\":6927:7107   */\n    tag_70:\n        /* \"#utility.yul\":6975:7052   */\n      0x4e487b7100000000000000000000000000000000000000000000000000000000\n        /* \"#utility.yul\":6972:6973   */\n      0x00\n        /* \"#utility.yul\":6965:7053   */\n      mstore\n        /* \"#utility.yul\":7072:7076   */\n      0x22\n        /* \"#utility.yul\":7069:7070   */\n      0x04\n        /* \"#utility.yul\":7062:7077   */\n      mstore\n        /* \"#utility.yul\":7096:7100   */\n      0x24\n        /* \"#utility.yul\":7093:7094   */\n      0x00\n        /* \"#utility.yul\":7086:7101   */\n      revert\n        /* \"#utility.yul\":7113:7433   */\n    tag_40:\n        /* \"#utility.yul\":7157:7163   */\n      0x00\n        /* \"#utility.yul\":7194:7195   */\n      0x02\n        /* \"#utility.yul\":7188:7192   */\n      dup3\n        /* \"#utility.yul\":7184:7196   */\n      div\n        /* \"#utility.yul\":7174:7196   */\n      swap1\n      pop\n        /* \"#utility.yul\":7241:7242   */\n      0x01\n        /* \"#utility.yul\":7235:7239   */\n      dup3\n        /* \"#utility.yul\":7231:7243   */\n      and\n        /* \"#utility.yul\":7262:7280   */\n      dup1\n        /* \"#utility.yul\":7252:7333   */\n      tag_151\n      jumpi\n        /* \"#utility.yul\":7318:7322   */\n      0x7f\n        /* \"#utility.yul\":7310:7316   */\n      dup3\n        /* \"#utility.yul\":7306:7323   */\n      and\n        /* \"#utility.yul\":7296:7323   */\n      swap2\n      pop\n        /* \"#utility.yul\":7252:7333   */\n    tag_151:\n        /* \"#utility.yul\":7380:7382   */\n      0x20\n        /* \"#utility.yul\":7372:7378   */\n      dup3\n        /* \"#utility.yul\":7369:7383   */\n      lt\n        /* \"#utility.yul\":7349:7367   */\n      dup2\n        /* \"#utility.yul\":7346:7384   */\n      sub\n        /* \"#utility.yul\":7343:7427   */\n      tag_152\n      jumpi\n        /* \"#utility.yul\":7399:7417   */\n      tag_153\n      tag_70\n      jump\t// in\n    tag_153:\n        /* \"#utility.yul\":7343:7427   */\n    tag_152:\n        /* \"#utility.yul\":7164:7433   */\n      pop\n        /* \"#utility.yul\":7113:7433   */\n      swap2\n      swap1\n      pop\n      jump\t// out\n    stop\n\n    sub_0: assembly {\n            /* \"contracts/5_Assert.sol\":70:254  contract Assert{... */\n          mstore(0x40, 0x80)\n            /* \"contracts/5_Assert.sol\":141:251  constructor(string memory name_, string memory symbol_){... */\n          callvalue\n          dup1\n          iszero\n          tag_1\n          jumpi\n          0x00\n          dup1\n          revert\n        tag_1:\n          pop\n          mload(0x40)\n          sub(codesize, bytecodeSize)\n          dup1\n          bytecodeSize\n          dup4\n          codecopy\n          dup2\n          dup2\n          add\n          0x40\n          mstore\n          dup2\n          add\n          swap1\n          tag_2\n          swap2\n          swap1\n          tag_3\n          jump\t// in\n        tag_2:\n            /* \"contracts/5_Assert.sol\":213:218  name_ */\n          dup2\n            /* \"contracts/5_Assert.sol\":206:210  name */\n          0x00\n            /* \"contracts/5_Assert.sol\":206:218  name = name_ */\n          swap1\n          dup2\n          tag_6\n          swap2\n          swap1\n          tag_7\n          jump\t// in\n        tag_6:\n          pop\n            /* \"contracts/5_Assert.sol\":237:244  symbol_ */\n          dup1\n            /* \"contracts/5_Assert.sol\":228:234  symbol */\n          0x01\n            /* \"contracts/5_Assert.sol\":228:244  symbol = symbol_ */\n          swap1\n          dup2\n          tag_8\n          swap2\n          swap1\n          tag_7\n          jump\t// in\n        tag_8:\n          pop\n            /* \"contracts/5_Assert.sol\":141:251  constructor(string memory name_, string memory symbol_){... */\n          pop\n          pop\n            /* \"contracts/5_Assert.sol\":70:254  contract Assert{... */\n          jump(tag_9)\n            /* \"#utility.yul\":7:82   */\n        tag_10:\n            /* \"#utility.yul\":40:46   */\n          0x00\n            /* \"#utility.yul\":73:75   */\n          0x40\n            /* \"#utility.yul\":67:76   */\n          mload\n            /* \"#utility.yul\":57:76   */\n          swap1\n          pop\n            /* \"#utility.yul\":7:82   */\n          swap1\n          jump\t// out\n            /* \"#utility.yul\":88:205   */\n        tag_11:\n            /* \"#utility.yul\":197:198   */\n          0x00\n            /* \"#utility.yul\":194:195   */\n          dup1\n            /* \"#utility.yul\":187:199   */\n          revert\n            /* \"#utility.yul\":211:328   */\n        tag_12:\n            /* \"#utility.yul\":320:321   */\n          0x00\n            /* \"#utility.yul\":317:318   */\n          dup1\n            /* \"#utility.yul\":310:322   */\n          revert\n            /* \"#utility.yul\":334:451   */\n        tag_13:\n            /* \"#utility.yul\":443:444   */\n          0x00\n            /* \"#utility.yul\":440:441   */\n          dup1\n            /* \"#utility.yul\":433:445   */\n          revert\n            /* \"#utility.yul\":457:574   */\n        tag_14:\n            /* \"#utility.yul\":566:567   */\n          0x00\n            /* \"#utility.yul\":563:564   */\n          dup1\n            /* \"#utility.yul\":556:568   */\n          revert\n            /* \"#utility.yul\":580:682   */\n        tag_15:\n            /* \"#utility.yul\":621:627   */\n          0x00\n            /* \"#utility.yul\":672:674   */\n          0x1f\n            /* \"#utility.yul\":668:675   */\n          not\n            /* \"#utility.yul\":663:665   */\n          0x1f\n            /* \"#utility.yul\":656:661   */\n          dup4\n            /* \"#utility.yul\":652:666   */\n          add\n            /* \"#utility.yul\":648:676   */\n          and\n            /* \"#utility.yul\":638:676   */\n          swap1\n          pop\n            /* \"#utility.yul\":580:682   */\n          swap2\n          swap1\n          pop\n          jump\t// out\n            /* \"#utility.yul\":688:868   */\n        tag_16:\n            /* \"#utility.yul\":736:813   */\n          0x4e487b7100000000000000000000000000000000000000000000000000000000\n            /* \"#utility.yul\":733:734   */\n          0x00\n            /* \"#utility.yul\":726:814   */\n          mstore\n            /* \"#utility.yul\":833:837   */\n          0x41\n            /* \"#utility.yul\":830:831   */\n          0x04\n            /* \"#utility.yul\":823:838   */\n          mstore\n            /* \"#utility.yul\":857:861   */\n          0x24\n            /* \"#utility.yul\":854:855   */\n          0x00\n            /* \"#utility.yul\":847:862   */\n          revert\n            /* \"#utility.yul\":874:1155   */\n        tag_17:\n            /* \"#utility.yul\":957:984   */\n          tag_51\n            /* \"#utility.yul\":979:983   */\n          dup3\n            /* \"#utility.yul\":957:984   */\n          tag_15\n          jump\t// in\n        tag_51:\n            /* \"#utility.yul\":949:955   */\n          dup2\n            /* \"#utility.yul\":945:985   */\n          add\n            /* \"#utility.yul\":1087:1093   */\n          dup2\n            /* \"#utility.yul\":1075:1085   */\n          dup2\n            /* \"#utility.yul\":1072:1094   */\n          lt\n            /* \"#utility.yul\":1051:1069   */\n          0xffffffffffffffff\n            /* \"#utility.yul\":1039:1049   */\n          dup3\n            /* \"#utility.yul\":1036:1070   */\n          gt\n            /* \"#utility.yul\":1033:1095   */\n          or\n            /* \"#utility.yul\":1030:1118   */\n          iszero\n          tag_52\n          jumpi\n            /* \"#utility.yul\":1098:1116   */\n          tag_53\n          tag_16\n          jump\t// in\n        tag_53:\n            /* \"#utility.yul\":1030:1118   */\n        tag_52:\n            /* \"#utility.yul\":1138:1148   */\n          dup1\n            /* \"#utility.yul\":1134:1136   */\n          0x40\n            /* \"#utility.yul\":1127:1149   */\n          mstore\n            /* \"#utility.yul\":917:1155   */\n          pop\n            /* \"#utility.yul\":874:1155   */\n          pop\n          pop\n          jump\t// out\n            /* \"#utility.yul\":1161:1290   */\n        tag_18:\n            /* \"#utility.yul\":1195:1201   */\n          0x00\n            /* \"#utility.yul\":1222:1242   */\n          tag_55\n          tag_10\n          jump\t// in\n        tag_55:\n            /* \"#utility.yul\":1212:1242   */\n          swap1\n          pop\n            /* \"#utility.yul\":1251:1284   */\n          tag_56\n            /* \"#utility.yul\":1279:1283   */\n          dup3\n            /* \"#utility.yul\":1271:1277   */\n          dup3\n            /* \"#utility.yul\":1251:1284   */\n          tag_17\n          jump\t// in\n        tag_56:\n            /* \"#utility.yul\":1161:1290   */\n          swap2\n          swap1\n          pop\n          jump\t// out\n            /* \"#utility.yul\":1296:1604   */\n        tag_19:\n            /* \"#utility.yul\":1358:1362   */\n          0x00\n            /* \"#utility.yul\":1448:1466   */\n          0xffffffffffffffff\n            /* \"#utility.yul\":1440:1446   */\n          dup3\n            /* \"#utility.yul\":1437:1467   */\n          gt\n            /* \"#utility.yul\":1434:1490   */\n          iszero\n          tag_58\n          jumpi\n            /* \"#utility.yul\":1470:1488   */\n          tag_59\n          tag_16\n          jump\t// in\n        tag_59:\n            /* \"#utility.yul\":1434:1490   */\n        tag_58:\n            /* \"#utility.yul\":1508:1537   */\n          tag_60\n            /* \"#utility.yul\":1530:1536   */\n          dup3\n            /* \"#utility.yul\":1508:1537   */\n          tag_15\n          jump\t// in\n        tag_60:\n            /* \"#utility.yul\":1500:1537   */\n          swap1\n          pop\n            /* \"#utility.yul\":1592:1596   */\n          0x20\n            /* \"#utility.yul\":1586:1590   */\n          dup2\n            /* \"#utility.yul\":1582:1597   */\n          add\n            /* \"#utility.yul\":1574:1597   */\n          swap1\n          pop\n            /* \"#utility.yul\":1296:1604   */\n          swap2\n          swap1\n          pop\n          jump\t// out\n            /* \"#utility.yul\":1610:1749   */\n        tag_20:\n            /* \"#utility.yul\":1699:1705   */\n          dup3\n            /* \"#utility.yul\":1694:1697   */\n          dup2\n            /* \"#utility.yul\":1689:1692   */\n          dup4\n            /* \"#utility.yul\":1683:1706   */\n          mcopy\n            /* \"#utility.yul\":1740:1741   */\n          0x00\n            /* \"#utility.yul\":1731:1737   */\n          dup4\n            /* \"#utility.yul\":1726:1729   */\n          dup4\n            /* \"#utility.yul\":1722:1738   */\n          add\n            /* \"#utility.yul\":1715:1742   */\n          mstore\n            /* \"#utility.yul\":1610:1749   */\n          pop\n          pop\n          pop\n          jump\t// out\n            /* \"#utility.yul\":1755:2189   */\n        tag_21:\n            /* \"#utility.yul\":1844:1849   */\n          0x00\n            /* \"#utility.yul\":1869:1935   */\n          tag_63\n            /* \"#utility.yul\":1885:1934   */\n          tag_64\n            /* \"#utility.yul\":1927:1933   */\n          dup5\n            /* \"#utility.yul\":1885:1934   */\n          tag_19\n          jump\t// in\n        tag_64:\n            /* \"#utility.yul\":1869:1935   */\n          tag_18\n          jump\t// in\n        tag_63:\n            /* \"#utility.yul\":1860:1935   */\n          swap1\n          pop\n            /* \"#utility.yul\":1958:1964   */\n          dup3\n            /* \"#utility.yul\":1951:1956   */\n          dup2\n            /* \"#utility.yul\":1944:1965   */\n          mstore\n            /* \"#utility.yul\":1996:2000   */\n          0x20\n            /* \"#utility.yul\":1989:1994   */\n          dup2\n            /* \"#utility.yul\":1985:2001   */\n          add\n            /* \"#utility.yul\":2034:2037   */\n          dup5\n            /* \"#utility.yul\":2025:2031   */\n          dup5\n            /* \"#utility.yul\":2020:2023   */\n          dup5\n            /* \"#utility.yul\":2016:2032   */\n          add\n            /* \"#utility.yul\":2013:2038   */\n          gt\n            /* \"#utility.yul\":2010:2122   */\n          iszero\n          tag_65\n          jumpi\n            /* \"#utility.yul\":2041:2120   */\n          tag_66\n          tag_14\n          jump\t// in\n        tag_66:\n            /* \"#utility.yul\":2010:2122   */\n        tag_65:\n            /* \"#utility.yul\":2131:2183   */\n          tag_67\n            /* \"#utility.yul\":2176:2182   */\n          dup5\n            /* \"#utility.yul\":2171:2174   */\n          dup3\n            /* \"#utility.yul\":2166:2169   */\n          dup6\n            /* \"#utility.yul\":2131:2183   */\n          tag_20\n          jump\t// in\n        tag_67:\n            /* \"#utility.yul\":1850:2189   */\n          pop\n            /* \"#utility.yul\":1755:2189   */\n          swap4\n          swap3\n          pop\n          pop\n          pop\n          jump\t// out\n            /* \"#utility.yul\":2209:2564   */\n        tag_22:\n            /* \"#utility.yul\":2276:2281   */\n          0x00\n            /* \"#utility.yul\":2325:2328   */\n          dup3\n            /* \"#utility.yul\":2318:2322   */\n          0x1f\n            /* \"#utility.yul\":2310:2316   */\n          dup4\n            /* \"#utility.yul\":2306:2323   */\n          add\n            /* \"#utility.yul\":2302:2329   */\n          slt\n            /* \"#utility.yul\":2292:2414   */\n          tag_69\n          jumpi\n            /* \"#utility.yul\":2333:2412   */\n          tag_70\n          tag_13\n          jump\t// in\n        tag_70:\n            /* \"#utility.yul\":2292:2414   */\n        tag_69:\n            /* \"#utility.yul\":2443:2449   */\n          dup2\n            /* \"#utility.yul\":2437:2450   */\n          mload\n            /* \"#utility.yul\":2468:2558   */\n          tag_71\n            /* \"#utility.yul\":2554:2557   */\n          dup5\n            /* \"#utility.yul\":2546:2552   */\n          dup3\n            /* \"#utility.yul\":2539:2543   */\n          0x20\n            /* \"#utility.yul\":2531:2537   */\n          dup7\n            /* \"#utility.yul\":2527:2544   */\n          add\n            /* \"#utility.yul\":2468:2558   */\n          tag_21\n          jump\t// in\n        tag_71:\n            /* \"#utility.yul\":2459:2558   */\n          swap2\n          pop\n            /* \"#utility.yul\":2282:2564   */\n          pop\n            /* \"#utility.yul\":2209:2564   */\n          swap3\n          swap2\n          pop\n          pop\n          jump\t// out\n            /* \"#utility.yul\":2570:3423   */\n        tag_3:\n            /* \"#utility.yul\":2669:2675   */\n          0x00\n            /* \"#utility.yul\":2677:2683   */\n          dup1\n            /* \"#utility.yul\":2726:2728   */\n          0x40\n            /* \"#utility.yul\":2714:2723   */\n          dup4\n            /* \"#utility.yul\":2705:2712   */\n          dup6\n            /* \"#utility.yul\":2701:2724   */\n          sub\n            /* \"#utility.yul\":2697:2729   */\n          slt\n            /* \"#utility.yul\":2694:2813   */\n          iszero\n          tag_73\n          jumpi\n            /* \"#utility.yul\":2732:2811   */\n          tag_74\n          tag_11\n          jump\t// in\n        tag_74:\n            /* \"#utility.yul\":2694:2813   */\n        tag_73:\n            /* \"#utility.yul\":2873:2874   */\n          0x00\n            /* \"#utility.yul\":2862:2871   */\n          dup4\n            /* \"#utility.yul\":2858:2875   */\n          add\n            /* \"#utility.yul\":2852:2876   */\n          mload\n            /* \"#utility.yul\":2903:2921   */\n          0xffffffffffffffff\n            /* \"#utility.yul\":2895:2901   */\n          dup2\n            /* \"#utility.yul\":2892:2922   */\n          gt\n            /* \"#utility.yul\":2889:3006   */\n          iszero\n          tag_75\n          jumpi\n            /* \"#utility.yul\":2925:3004   */\n          tag_76\n          tag_12\n          jump\t// in\n        tag_76:\n            /* \"#utility.yul\":2889:3006   */\n        tag_75:\n            /* \"#utility.yul\":3030:3104   */\n          tag_77\n            /* \"#utility.yul\":3096:3103   */\n          dup6\n            /* \"#utility.yul\":3087:3093   */\n          dup3\n            /* \"#utility.yul\":3076:3085   */\n          dup7\n            /* \"#utility.yul\":3072:3094   */\n          add\n            /* \"#utility.yul\":3030:3104   */\n          tag_22\n          jump\t// in\n        tag_77:\n            /* \"#utility.yul\":3020:3104   */\n          swap3\n          pop\n            /* \"#utility.yul\":2823:3114   */\n          pop\n            /* \"#utility.yul\":3174:3176   */\n          0x20\n            /* \"#utility.yul\":3163:3172   */\n          dup4\n            /* \"#utility.yul\":3159:3177   */\n          add\n            /* \"#utility.yul\":3153:3178   */\n          mload\n            /* \"#utility.yul\":3205:3223   */\n          0xffffffffffffffff\n            /* \"#utility.yul\":3197:3203   */\n          dup2\n            /* \"#utility.yul\":3194:3224   */\n          gt\n            /* \"#utility.yul\":3191:3308   */\n          iszero\n          tag_78\n          jumpi\n            /* \"#utility.yul\":3227:3306   */\n          tag_79\n          tag_12\n          jump\t// in\n        tag_79:\n            /* \"#utility.yul\":3191:3308   */\n        tag_78:\n            /* \"#utility.yul\":3332:3406   */\n          tag_80\n            /* \"#utility.yul\":3398:3405   */\n          dup6\n            /* \"#utility.yul\":3389:3395   */\n          dup3\n            /* \"#utility.yul\":3378:3387   */\n          dup7\n            /* \"#utility.yul\":3374:3396   */\n          add\n            /* \"#utility.yul\":3332:3406   */\n          tag_22\n          jump\t// in\n        tag_80:\n            /* \"#utility.yul\":3322:3406   */\n          swap2\n          pop\n            /* \"#utility.yul\":3124:3416   */\n          pop\n            /* \"#utility.yul\":2570:3423   */\n          swap3\n          pop\n          swap3\n          swap1\n          pop\n          jump\t// out\n            /* \"#utility.yul\":3429:3528   */\n        tag_23:\n            /* \"#utility.yul\":3481:3487   */\n          0x00\n            /* \"#utility.yul\":3515:3520   */\n          dup2\n            /* \"#utility.yul\":3509:3521   */\n          mload\n            /* \"#utility.yul\":3499:3521   */\n          swap1\n          pop\n            /* \"#utility.yul\":3429:3528   */\n          swap2\n          swap1\n          pop\n          jump\t// out\n            /* \"#utility.yul\":3534:3714   */\n        tag_24:\n            /* \"#utility.yul\":3582:3659   */\n          0x4e487b7100000000000000000000000000000000000000000000000000000000\n            /* \"#utility.yul\":3579:3580   */\n          0x00\n            /* \"#utility.yul\":3572:3660   */\n          mstore\n            /* \"#utility.yul\":3679:3683   */\n          0x22\n            /* \"#utility.yul\":3676:3677   */\n          0x04\n            /* \"#utility.yul\":3669:3684   */\n          mstore\n            /* \"#utility.yul\":3703:3707   */\n          0x24\n            /* \"#utility.yul\":3700:3701   */\n          0x00\n            /* \"#utility.yul\":3693:3708   */\n          revert\n            /* \"#utility.yul\":3720:4040   */\n        tag_25:\n            /* \"#utility.yul\":3764:3770   */\n          0x00\n            /* \"#utility.yul\":3801:3802   */\n          0x02\n            /* \"#utility.yul\":3795:3799   */\n          dup3\n            /* \"#utility.yul\":3791:3803   */\n          div\n            /* \"#utility.yul\":3781:3803   */\n          swap1\n          pop\n            /* \"#utility.yul\":3848:3849   */\n          0x01\n            /* \"#utility.yul\":3842:3846   */\n          dup3\n            /* \"#utility.yul\":3838:3850   */\n          and\n            /* \"#utility.yul\":3869:3887   */\n          dup1\n            /* \"#utility.yul\":3859:3940   */\n          tag_84\n          jumpi\n            /* \"#utility.yul\":3925:3929   */\n          0x7f\n            /* \"#utility.yul\":3917:3923   */\n          dup3\n            /* \"#utility.yul\":3913:3930   */\n          and\n            /* \"#utility.yul\":3903:3930   */\n          swap2\n          pop\n            /* \"#utility.yul\":3859:3940   */\n        tag_84:\n            /* \"#utility.yul\":3987:3989   */\n          0x20\n            /* \"#utility.yul\":3979:3985   */\n          dup3\n            /* \"#utility.yul\":3976:3990   */\n          lt\n            /* \"#utility.yul\":3956:3974   */\n          dup2\n            /* \"#utility.yul\":3953:3991   */\n          sub\n            /* \"#utility.yul\":3950:4034   */\n          tag_85\n          jumpi\n            /* \"#utility.yul\":4006:4024   */\n          tag_86\n          tag_24\n          jump\t// in\n        tag_86:\n            /* \"#utility.yul\":3950:4034   */\n        tag_85:\n            /* \"#utility.yul\":3771:4040   */\n          pop\n            /* \"#utility.yul\":3720:4040   */\n          swap2\n          swap1\n          pop\n          jump\t// out\n            /* \"#utility.yul\":4046:4187   */\n        tag_26:\n            /* \"#utility.yul\":4095:4099   */\n          0x00\n            /* \"#utility.yul\":4118:4121   */\n          dup2\n            /* \"#utility.yul\":4110:4121   */\n          swap1\n          pop\n            /* \"#utility.yul\":4141:4144   */\n          dup2\n            /* \"#utility.yul\":4138:4139   */\n          0x00\n            /* \"#utility.yul\":4131:4145   */\n          mstore\n            /* \"#utility.yul\":4175:4179   */\n          0x20\n            /* \"#utility.yul\":4172:4173   */\n          0x00\n            /* \"#utility.yul\":4162:4180   */\n          keccak256\n            /* \"#utility.yul\":4154:4180   */\n          swap1\n          pop\n            /* \"#utility.yul\":4046:4187   */\n          swap2\n          swap1\n          pop\n          jump\t// out\n            /* \"#utility.yul\":4193:4286   */\n        tag_27:\n            /* \"#utility.yul\":4230:4236   */\n          0x00\n            /* \"#utility.yul\":4277:4279   */\n          0x20\n            /* \"#utility.yul\":4272:4274   */\n          0x1f\n            /* \"#utility.yul\":4265:4270   */\n          dup4\n            /* \"#utility.yul\":4261:4275   */\n          add\n            /* \"#utility.yul\":4257:4280   */\n          div\n            /* \"#utility.yul\":4247:4280   */\n          swap1\n          pop\n            /* \"#utility.yul\":4193:4286   */\n          swap2\n          swap1\n          pop\n          jump\t// out\n            /* \"#utility.yul\":4292:4399   */\n        tag_28:\n            /* \"#utility.yul\":4336:4344   */\n          0x00\n            /* \"#utility.yul\":4386:4391   */\n          dup3\n            /* \"#utility.yul\":4380:4384   */\n          dup3\n            /* \"#utility.yul\":4376:4392   */\n          shl\n            /* \"#utility.yul\":4355:4392   */\n          swap1\n          pop\n            /* \"#utility.yul\":4292:4399   */\n          swap3\n          swap2\n          pop\n          pop\n          jump\t// out\n            /* \"#utility.yul\":4405:4798   */\n        tag_29:\n            /* \"#utility.yul\":4474:4480   */\n          0x00\n            /* \"#utility.yul\":4524:4525   */\n          0x08\n            /* \"#utility.yul\":4512:4522   */\n          dup4\n            /* \"#utility.yul\":4508:4526   */\n          mul\n            /* \"#utility.yul\":4547:4644   */\n          tag_91\n            /* \"#utility.yul\":4577:4643   */\n          0xffffffffffffffffffffffffffffffffffffffffffffffffffffffffffffffff\n            /* \"#utility.yul\":4566:4575   */\n          dup3\n            /* \"#utility.yul\":4547:4644   */\n          tag_28\n          jump\t// in\n        tag_91:\n            /* \"#utility.yul\":4665:4704   */\n          tag_92\n            /* \"#utility.yul\":4695:4703   */\n          dup7\n            /* \"#utility.yul\":4684:4693   */\n          dup4\n            /* \"#utility.yul\":4665:4704   */\n          tag_28\n          jump\t// in\n        tag_92:\n            /* \"#utility.yul\":4653:4704   */\n          swap6\n          pop\n            /* \"#utility.yul\":4737:4741   */\n          dup1\n            /* \"#utility.yul\":4733:4742   */\n          not\n            /* \"#utility.yul\":4726:4731   */\n          dup5\n            /* \"#utility.yul\":4722:4743   */\n          and\n            /* \"#utility.yul\":4713:4743   */\n          swap4\n          pop\n            /* \"#utility.yul\":4786:4790   */\n          dup1\n            /* \"#utility.yul\":4776:4784   */\n          dup7\n            /* \"#utility.yul\":4772:4791   */\n          and\n            /* \"#utility.yul\":4765:4770   */\n          dup5\n            /* \"#utility.yul\":4762:4792   */\n          or\n            /* \"#utility.yul\":4752:4792   */\n          swap3\n          pop\n            /* \"#utility.yul\":4481:4798   */\n          pop\n          pop\n            /* \"#utility.yul\":4405:4798   */\n          swap4\n          swap3\n          pop\n          pop\n          pop\n          jump\t// out\n            /* \"#utility.yul\":4804:4881   */\n        tag_30:\n            /* \"#utility.yul\":4841:4848   */\n          0x00\n            /* \"#utility.yul\":4870:4875   */\n          dup2\n            /* \"#utility.yul\":4859:4875   */\n          swap1\n          pop\n            /* \"#utility.yul\":4804:4881   */\n          swap2\n          swap1\n          pop\n          jump\t// out\n            /* \"#utility.yul\":4887:4947   */\n        tag_31:\n            /* \"#utility.yul\":4915:4918   */\n          0x00\n            /* \"#utility.yul\":4936:4941   */\n          dup2\n            /* \"#utility.yul\":4929:4941   */\n          swap1\n          pop\n            /* \"#utility.yul\":4887:4947   */\n          swap2\n          swap1\n          pop\n          jump\t// out\n            /* \"#utility.yul\":4953:5095   */\n        tag_32:\n            /* \"#utility.yul\":5003:5012   */\n          0x00\n            /* \"#utility.yul\":5036:5089   */\n          tag_96\n            /* \"#utility.yul\":5054:5088   */\n          tag_97\n            /* \"#utility.yul\":5063:5087   */\n          tag_98\n            /* \"#utility.yul\":5081:5086   */\n          dup5\n            /* \"#utility.yul\":5063:5087   */\n          tag_30\n          jump\t// in\n        tag_98:\n            /* \"#utility.yul\":5054:5088   */\n          tag_31\n          jump\t// in\n        tag_97:\n            /* \"#utility.yul\":5036:5089   */\n          tag_30\n          jump\t// in\n        tag_96:\n            /* \"#utility.yul\":5023:5089   */\n          swap1\n          pop\n            /* \"#utility.yul\":4953:5095   */\n          swap2\n          swap1\n          pop\n          jump\t// out\n            /* \"#utility.yul\":5101:5176   */\n        tag_33:\n            /* \"#utility.yul\":5144:5147   */\n          0x00\n            /* \"#utility.yul\":5165:5170   */\n          dup2\n            /* \"#utility.yul\":5158:5170   */\n          swap1\n          pop\n            /* \"#utility.yul\":5101:5176   */\n          swap2\n          swap1\n          pop\n          jump\t// out\n            /* \"#utility.yul\":5182:5451   */\n        tag_34:\n            /* \"#utility.yul\":5292:5331   */\n          tag_101\n            /* \"#utility.yul\":5323:5330   */\n          dup4\n            /* \"#utility.yul\":5292:5331   */\n          tag_32\n          jump\t// in\n        tag_101:\n            /* \"#utility.yul\":5353:5444   */\n          tag_102\n            /* \"#utility.yul\":5402:5443   */\n          tag_103\n            /* \"#utility.yul\":5426:5442   */\n          dup3\n            /* \"#utility.yul\":5402:5443   */\n          tag_33\n          jump\t// in\n        tag_103:\n            /* \"#utility.yul\":5394:5400   */\n          dup5\n            /* \"#utility.yul\":5387:5391   */\n          dup5\n            /* \"#utility.yul\":5381:5392   */\n          sload\n            /* \"#utility.yul\":5353:5444   */\n          tag_29\n          jump\t// in\n        tag_102:\n            /* \"#utility.yul\":5347:5351   */\n          dup3\n            /* \"#utility.yul\":5340:5445   */\n          sstore\n            /* \"#utility.yul\":5258:5451   */\n          pop\n            /* \"#utility.yul\":5182:5451   */\n          pop\n          pop\n          pop\n          jump\t// out\n            /* \"#utility.yul\":5457:5530   */\n        tag_35:\n            /* \"#utility.yul\":5502:5505   */\n          0x00\n            /* \"#utility.yul\":5457:5530   */\n          swap1\n          jump\t// out\n            /* \"#utility.yul\":5536:5725   */\n        tag_36:\n            /* \"#utility.yul\":5613:5645   */\n          tag_106\n          tag_35\n          jump\t// in\n        tag_106:\n            /* \"#utility.yul\":5654:5719   */\n          tag_107\n            /* \"#utility.yul\":5712:5718   */\n          dup2\n            /* \"#utility.yul\":5704:5710   */\n          dup5\n            /* \"#utility.yul\":5698:5702   */\n          dup5\n            /* \"#utility.yul\":5654:5719   */\n          tag_34\n          jump\t// in\n        tag_107:\n            /* \"#utility.yul\":5589:5725   */\n          pop\n            /* \"#utility.yul\":5536:5725   */\n          pop\n          pop\n          jump\t// out\n            /* \"#utility.yul\":5731:5917   */\n        tag_37:\n            /* \"#utility.yul\":5791:5911   */\n        tag_109:\n            /* \"#utility.yul\":5808:5811   */\n          dup2\n            /* \"#utility.yul\":5801:5806   */\n          dup2\n            /* \"#utility.yul\":5798:5812   */\n          lt\n            /* \"#utility.yul\":5791:5911   */\n          iszero\n          tag_111\n          jumpi\n            /* \"#utility.yul\":5862:5901   */\n          tag_112\n            /* \"#utility.yul\":5899:5900   */\n          0x00\n            /* \"#utility.yul\":5892:5897   */\n          dup3\n            /* \"#utility.yul\":5862:5901   */\n          tag_36\n          jump\t// in\n        tag_112:\n            /* \"#utility.yul\":5835:5836   */\n          0x01\n            /* \"#utility.yul\":5828:5833   */\n          dup2\n            /* \"#utility.yul\":5824:5837   */\n          add\n            /* \"#utility.yul\":5815:5837   */\n          swap1\n          pop\n            /* \"#utility.yul\":5791:5911   */\n          jump(tag_109)\n        tag_111:\n            /* \"#utility.yul\":5731:5917   */\n          pop\n          pop\n          jump\t// out\n            /* \"#utility.yul\":5923:6466   */\n        tag_38:\n            /* \"#utility.yul\":6024:6026   */\n          0x1f\n            /* \"#utility.yul\":6019:6022   */\n          dup3\n            /* \"#utility.yul\":6016:6027   */\n          gt\n            /* \"#utility.yul\":6013:6459   */\n          iszero\n          tag_114\n          jumpi\n            /* \"#utility.yul\":6058:6096   */\n          tag_115\n            /* \"#utility.yul\":6090:6095   */\n          dup2\n            /* \"#utility.yul\":6058:6096   */\n          tag_26\n          jump\t// in\n        tag_115:\n            /* \"#utility.yul\":6142:6171   */\n          tag_116\n            /* \"#utility.yul\":6160:6170   */\n          dup5\n            /* \"#utility.yul\":6142:6171   */\n          tag_27\n          jump\t// in\n        tag_116:\n            /* \"#utility.yul\":6132:6140   */\n          dup2\n            /* \"#utility.yul\":6128:6172   */\n          add\n            /* \"#utility.yul\":6325:6327   */\n          0x20\n            /* \"#utility.yul\":6313:6323   */\n          dup6\n            /* \"#utility.yul\":6310:6328   */\n          lt\n            /* \"#utility.yul\":6307:6356   */\n          iszero\n          tag_117\n          jumpi\n            /* \"#utility.yul\":6346:6354   */\n          dup2\n            /* \"#utility.yul\":6331:6354   */\n          swap1\n          pop\n            /* \"#utility.yul\":6307:6356   */\n        tag_117:\n            /* \"#utility.yul\":6369:6449   */\n          tag_118\n            /* \"#utility.yul\":6425:6447   */\n          tag_119\n            /* \"#utility.yul\":6443:6446   */\n          dup6\n            /* \"#utility.yul\":6425:6447   */\n          tag_27\n          jump\t// in\n        tag_119:\n            /* \"#utility.yul\":6415:6423   */\n          dup4\n            /* \"#utility.yul\":6411:6448   */\n          add\n            /* \"#utility.yul\":6398:6409   */\n          dup3\n            /* \"#utility.yul\":6369:6449   */\n          tag_37\n          jump\t// in\n        tag_118:\n            /* \"#utility.yul\":6028:6459   */\n          pop\n          pop\n            /* \"#utility.yul\":6013:6459   */\n        tag_114:\n            /* \"#utility.yul\":5923:6466   */\n          pop\n          pop\n          pop\n          jump\t// out\n            /* \"#utility.yul\":6472:6589   */\n        tag_39:\n            /* \"#utility.yul\":6526:6534   */\n          0x00\n            /* \"#utility.yul\":6576:6581   */\n          dup3\n            /* \"#utility.yul\":6570:6574   */\n          dup3\n            /* \"#utility.yul\":6566:6582   */\n          shr\n            /* \"#utility.yul\":6545:6582   */\n          swap1\n          pop\n            /* \"#utility.yul\":6472:6589   */\n          swap3\n          swap2\n          pop\n          pop\n          jump\t// out\n            /* \"#utility.yul\":6595:6764   */\n        tag_40:\n            /* \"#utility.yul\":6639:6645   */\n          0x00\n            /* \"#utility.yul\":6672:6723   */\n          tag_122\n            /* \"#utility.yul\":6720:6721   */\n          0x00\n            /* \"#utility.yul\":6716:6722   */\n          not\n            /* \"#utility.yul\":6708:6713   */\n          dup5\n            /* \"#utility.yul\":6705:6706   */\n          0x08\n            /* \"#utility.yul\":6701:6714   */\n          mul\n            /* \"#utility.yul\":6672:6723   */\n          tag_39\n          jump\t// in\n        tag_122:\n            /* \"#utility.yul\":6668:6724   */\n          not\n            /* \"#utility.yul\":6753:6757   */\n          dup1\n            /* \"#utility.yul\":6747:6751   */\n          dup4\n            /* \"#utility.yul\":6743:6758   */\n          and\n            /* \"#utility.yul\":6733:6758   */\n          swap2\n          pop\n            /* \"#utility.yul\":6646:6764   */\n          pop\n            /* \"#utility.yul\":6595:6764   */\n          swap3\n          swap2\n          pop\n          pop\n          jump\t// out\n            /* \"#utility.yul\":6769:7064   */\n        tag_41:\n            /* \"#utility.yul\":6845:6849   */\n          0x00\n            /* \"#utility.yul\":6991:7020   */\n          tag_124\n            /* \"#utility.yul\":7016:7019   */\n          dup4\n            /* \"#utility.yul\":7010:7014   */\n          dup4\n            /* \"#utility.yul\":6991:7020   */\n          tag_40\n          jump\t// in\n        tag_124:\n            /* \"#utility.yul\":6983:7020   */\n          swap2\n          pop\n            /* \"#utility.yul\":7053:7056   */\n          dup3\n            /* \"#utility.yul\":7050:7051   */\n          0x02\n            /* \"#utility.yul\":7046:7057   */\n          mul\n            /* \"#utility.yul\":7040:7044   */\n          dup3\n            /* \"#utility.yul\":7037:7058   */\n          or\n            /* \"#utility.yul\":7029:7058   */\n          swap1\n          pop\n            /* \"#utility.yul\":6769:7064   */\n          swap3\n          swap2\n          pop\n          pop\n          jump\t// out\n            /* \"#utility.yul\":7069:8464   */\n        tag_7:\n            /* \"#utility.yul\":7186:7223   */\n          tag_126\n            /* \"#utility.yul\":7219:7222   */\n          dup3\n            /* \"#utility.yul\":7186:7223   */\n          tag_23\n          jump\t// in\n        tag_126:\n            /* \"#utility.yul\":7288:7306   */\n          0xffffffffffffffff\n            /* \"#utility.yul\":7280:7286   */\n          dup2\n            /* \"#utility.yul\":7277:7307   */\n          gt\n            /* \"#utility.yul\":7274:7330   */\n          iszero\n          tag_127\n          jumpi\n            /* \"#utility.yul\":7310:7328   */\n          tag_128\n          tag_16\n          jump\t// in\n        tag_128:\n            /* \"#utility.yul\":7274:7330   */\n        tag_127:\n            /* \"#utility.yul\":7354:7392   */\n          tag_129\n            /* \"#utility.yul\":7386:7390   */\n          dup3\n            /* \"#utility.yul\":7380:7391   */\n          sload\n            /* \"#utility.yul\":7354:7392   */\n          tag_25\n          jump\t// in\n        tag_129:\n            /* \"#utility.yul\":7439:7506   */\n          tag_130\n            /* \"#utility.yul\":7499:7505   */\n          dup3\n            /* \"#utility.yul\":7491:7497   */\n          dup3\n            /* \"#utility.yul\":7485:7489   */\n          dup6\n            /* \"#utility.yul\":7439:7506   */\n          tag_38\n          jump\t// in\n        tag_130:\n            /* \"#utility.yul\":7533:7534   */\n          0x00\n            /* \"#utility.yul\":7557:7561   */\n          0x20\n            /* \"#utility.yul\":7544:7561   */\n          swap1\n          pop\n            /* \"#utility.yul\":7589:7591   */\n          0x1f\n            /* \"#utility.yul\":7581:7587   */\n          dup4\n            /* \"#utility.yul\":7578:7592   */\n          gt\n            /* \"#utility.yul\":7606:7607   */\n          0x01\n            /* \"#utility.yul\":7601:8219   */\n          dup2\n          eq\n          tag_132\n          jumpi\n            /* \"#utility.yul\":8263:8264   */\n          0x00\n            /* \"#utility.yul\":8280:8286   */\n          dup5\n            /* \"#utility.yul\":8277:8354   */\n          iszero\n          tag_133\n          jumpi\n            /* \"#utility.yul\":8329:8338   */\n          dup3\n            /* \"#utility.yul\":8324:8327   */\n          dup8\n            /* \"#utility.yul\":8320:8339   */\n          add\n            /* \"#utility.yul\":8314:8340   */\n          mload\n            /* \"#utility.yul\":8305:8340   */\n          swap1\n          pop\n            /* \"#utility.yul\":8277:8354   */\n        tag_133:\n            /* \"#utility.yul\":8380:8447   */\n          tag_134\n            /* \"#utility.yul\":8440:8446   */\n          dup6\n            /* \"#utility.yul\":8433:8438   */\n          dup3\n            /* \"#utility.yul\":8380:8447   */\n          tag_41\n          jump\t// in\n        tag_134:\n            /* \"#utility.yul\":8374:8378   */\n          dup7\n            /* \"#utility.yul\":8367:8448   */\n          sstore\n            /* \"#utility.yul\":8236:8458   */\n          pop\n            /* \"#utility.yul\":7571:8458   */\n          jump(tag_131)\n            /* \"#utility.yul\":7601:8219   */\n        tag_132:\n            /* \"#utility.yul\":7653:7657   */\n          0x1f\n            /* \"#utility.yul\":7649:7658   */\n          not\n            /* \"#utility.yul\":7641:7647   */\n          dup5\n            /* \"#utility.yul\":7637:7659   */\n          and\n            /* \"#utility.yul\":7687:7724   */\n          tag_135\n            /* \"#utility.yul\":7719:7723   */\n          dup7\n            /* \"#utility.yul\":7687:7724   */\n          tag_26\n          jump\t// in\n        tag_135:\n            /* \"#utility.yul\":7746:7747   */\n          0x00\n            /* \"#utility.yul\":7760:7968   */\n        tag_136:\n            /* \"#utility.yul\":7774:7781   */\n          dup3\n            /* \"#utility.yul\":7771:7772   */\n          dup2\n            /* \"#utility.yul\":7768:7782   */\n          lt\n            /* \"#utility.yul\":7760:7968   */\n          iszero\n          tag_138\n          jumpi\n            /* \"#utility.yul\":7853:7862   */\n          dup5\n            /* \"#utility.yul\":7848:7851   */\n          dup10\n            /* \"#utility.yul\":7844:7863   */\n          add\n            /* \"#utility.yul\":7838:7864   */\n          mload\n            /* \"#utility.yul\":7830:7836   */\n          dup3\n            /* \"#utility.yul\":7823:7865   */\n          sstore\n            /* \"#utility.yul\":7904:7905   */\n          0x01\n            /* \"#utility.yul\":7896:7902   */\n          dup3\n            /* \"#utility.yul\":7892:7906   */\n          add\n            /* \"#utility.yul\":7882:7906   */\n          swap2\n          pop\n            /* \"#utility.yul\":7951:7953   */\n          0x20\n            /* \"#utility.yul\":7940:7949   */\n          dup6\n            /* \"#utility.yul\":7936:7954   */\n          add\n            /* \"#utility.yul\":7923:7954   */\n          swap5\n          pop\n            /* \"#utility.yul\":7797:7801   */\n          0x20\n            /* \"#utility.yul\":7794:7795   */\n          dup2\n            /* \"#utility.yul\":7790:7802   */\n          add\n            /* \"#utility.yul\":7785:7802   */\n          swap1\n          pop\n            /* \"#utility.yul\":7760:7968   */\n          jump(tag_136)\n        tag_138:\n            /* \"#utility.yul\":7996:8002   */\n          dup7\n            /* \"#utility.yul\":7987:7994   */\n          dup4\n            /* \"#utility.yul\":7984:8003   */\n          lt\n            /* \"#utility.yul\":7981:8160   */\n          iszero\n          tag_139\n          jumpi\n            /* \"#utility.yul\":8054:8063   */\n          dup5\n            /* \"#utility.yul\":8049:8052   */\n          dup10\n            /* \"#utility.yul\":8045:8064   */\n          add\n            /* \"#utility.yul\":8039:8065   */\n          mload\n            /* \"#utility.yul\":8097:8145   */\n          tag_140\n            /* \"#utility.yul\":8139:8143   */\n          0x1f\n            /* \"#utility.yul\":8131:8137   */\n          dup10\n            /* \"#utility.yul\":8127:8144   */\n          and\n            /* \"#utility.yul\":8116:8125   */\n          dup3\n            /* \"#utility.yul\":8097:8145   */\n          tag_40\n          jump\t// in\n        tag_140:\n            /* \"#utility.yul\":8089:8095   */\n          dup4\n            /* \"#utility.yul\":8082:8146   */\n          sstore\n            /* \"#utility.yul\":8004:8160   */\n          pop\n            /* \"#utility.yul\":7981:8160   */\n        tag_139:\n            /* \"#utility.yul\":8206:8207   */\n          0x01\n            /* \"#utility.yul\":8202:8203   */\n          0x02\n            /* \"#utility.yul\":8194:8200   */\n          dup9\n            /* \"#utility.yul\":8190:8204   */\n          mul\n            /* \"#utility.yul\":8186:8208   */\n          add\n            /* \"#utility.yul\":8180:8184   */\n          dup9\n            /* \"#utility.yul\":8173:8209   */\n          sstore\n            /* \"#utility.yul\":7608:8219   */\n          pop\n          pop\n          pop\n            /* \"#utility.yul\":7571:8458   */\n        tag_131:\n          pop\n            /* \"#utility.yul\":7161:8464   */\n          pop\n          pop\n          pop\n            /* \"#utility.yul\":7069:8464   */\n          pop\n          pop\n          jump\t// out\n            /* \"contracts/5_Assert.sol\":70:254  contract Assert{... */\n        tag_9:\n          dataSize(sub_0)\n          dup1\n          dataOffset(sub_0)\n          0x00\n          codecopy\n          0x00\n          return\n        stop\n\n        sub_0: assembly {\n                /* \"contracts/5_Assert.sol\":70:254  contract Assert{... */\n              mstore(0x40, 0x80)\n              callvalue\n              dup1\n              iszero\n              tag_1\n              jumpi\n              0x00\n              dup1\n              revert\n            tag_1:\n              pop\n              jumpi(tag_2, lt(calldatasize, 0x04))\n              shr(0xe0, calldataload(0x00))\n              dup1\n              0x06fdde03\n              eq\n              tag_3\n              jumpi\n              dup1\n              0x95d89b41\n              eq\n              tag_4\n              jumpi\n            tag_2:\n              0x00\n              dup1\n              revert\n                /* \"contracts/5_Assert.sol\":91:109  string public name */\n            tag_3:\n              tag_5\n              tag_6\n              jump\t// in\n            tag_5:\n              mload(0x40)\n              tag_7\n              swap2\n              swap1\n              tag_8\n              jump\t// in\n            tag_7:\n              mload(0x40)\n              dup1\n              swap2\n              sub\n              swap1\n              return\n                /* \"contracts/5_Assert.sol\":115:135  string public symbol */\n            tag_4:\n              tag_9\n              tag_10\n              jump\t// in\n            tag_9:\n              mload(0x40)\n              tag_11\n              swap2\n              swap1\n              tag_8\n              jump\t// in\n            tag_11:\n              mload(0x40)\n              dup1\n              swap2\n              sub\n              swap1\n              return\n                /* \"contracts/5_Assert.sol\":91:109  string public name */\n            tag_6:\n              0x00\n              dup1\n              sload\n              tag_12\n              swap1\n              tag_13\n              jump\t// in\n            tag_12:\n              dup1\n              0x1f\n              add\n              0x20\n              dup1\n              swap2\n              div\n              mul\n              0x20\n              add\n              mload(0x40)\n              swap1\n              dup2\n              add\n              0x40\n              mstore\n              dup1\n              swap3\n              swap2\n              swap1\n              dup2\n              dup2\n              mstore\n              0x20\n              add\n              dup3\n              dup1\n              sload\n              tag_14\n              swap1\n              tag_13\n              jump\t// in\n            tag_14:\n              dup1\n              iszero\n              tag_15\n              jumpi\n              dup1\n              0x1f\n              lt\n              tag_16\n              jumpi\n              0x0100\n              dup1\n              dup4\n              sload\n              div\n              mul\n              dup4\n              mstore\n              swap2\n              0x20\n              add\n              swap2\n              jump(tag_15)\n            tag_16:\n              dup3\n              add\n              swap2\n              swap1\n              0x00\n              mstore\n              keccak256(0x00, 0x20)\n              swap1\n            tag_17:\n              dup2\n              sload\n              dup2\n              mstore\n              swap1\n              0x01\n              add\n              swap1\n              0x20\n              add\n              dup1\n              dup4\n              gt\n              tag_17\n              jumpi\n              dup3\n              swap1\n              sub\n              0x1f\n              and\n              dup3\n              add\n              swap2\n            tag_15:\n              pop\n              pop\n              pop\n              pop\n              pop\n              dup2\n              jump\t// out\n                /* \"contracts/5_Assert.sol\":115:135  string public symbol */\n            tag_10:\n              0x01\n              dup1\n              sload\n              tag_18\n              swap1\n              tag_13\n              jump\t// in\n            tag_18:\n              dup1\n              0x1f\n              add\n              0x20\n              dup1\n              swap2\n              div\n              mul\n              0x20\n              add\n              mload(0x40)\n              swap1\n              dup2\n              add\n              0x40\n              mstore\n              dup1\n              swap3\n              swap2\n              swap1\n              dup2\n              dup2\n              mstore\n              0x20\n              add\n              dup3\n              dup1\n              sload\n              tag_19\n              swap1\n              tag_13\n              jump\t// in\n            tag_19:\n              dup1\n              iszero\n              tag_20\n              jumpi\n              dup1\n              0x1f\n              lt\n              tag_21\n              jumpi\n              0x0100\n              dup1\n              dup4\n              sload\n              div\n              mul\n              dup4\n              mstore\n              swap2\n              0x20\n              add\n              swap2\n              jump(tag_20)\n            tag_21:\n              dup3\n              add\n              swap2\n              swap1\n              0x00\n              mstore\n              keccak256(0x00, 0x20)\n              swap1\n            tag_22:\n              dup2\n              sload\n              dup2\n              mstore\n              swap1\n              0x01\n              add\n              swap1\n              0x20\n              add\n              dup1\n              dup4\n              gt\n              tag_22\n              jumpi\n              dup3\n              swap1\n              sub\n              0x1f\n              and\n              dup3\n              add\n              swap2\n            tag_20:\n              pop\n              pop\n              pop\n              pop\n              pop\n              dup2\n              jump\t// out\n                /* \"#utility.yul\":7:106   */\n            tag_23:\n                /* \"#utility.yul\":59:65   */\n              0x00\n                /* \"#utility.yul\":93:98   */\n              dup2\n                /* \"#utility.yul\":87:99   */\n              mload\n                /* \"#utility.yul\":77:99   */\n              swap1\n              pop\n                /* \"#utility.yul\":7:106   */\n              swap2\n              swap1\n              pop\n              jump\t// out\n                /* \"#utility.yul\":112:281   */\n            tag_24:\n                /* \"#utility.yul\":196:207   */\n              0x00\n                /* \"#utility.yul\":230:236   */\n              dup3\n                /* \"#utility.yul\":225:228   */\n              dup3\n                /* \"#utility.yul\":218:237   */\n              mstore\n                /* \"#utility.yul\":270:274   */\n              0x20\n                /* \"#utility.yul\":265:268   */\n              dup3\n                /* \"#utility.yul\":261:275   */\n              add\n                /* \"#utility.yul\":246:275   */\n              swap1\n              pop\n                /* \"#utility.yul\":112:281   */\n              swap3\n              swap2\n              pop\n              pop\n              jump\t// out\n                /* \"#utility.yul\":287:426   */\n            tag_25:\n                /* \"#utility.yul\":376:382   */\n              dup3\n                /* \"#utility.yul\":371:374   */\n              dup2\n                /* \"#utility.yul\":366:369   */\n              dup4\n                /* \"#utility.yul\":360:383   */\n              mcopy\n                /* \"#utility.yul\":417:418   */\n              0x00\n                /* \"#utility.yul\":408:414   */\n              dup4\n                /* \"#utility.yul\":403:406   */\n              dup4\n                /* \"#utility.yul\":399:415   */\n              add\n                /* \"#utility.yul\":392:419   */\n              mstore\n                /* \"#utility.yul\":287:426   */\n              pop\n              pop\n              pop\n              jump\t// out\n                /* \"#utility.yul\":432:534   */\n            tag_26:\n                /* \"#utility.yul\":473:479   */\n              0x00\n                /* \"#utility.yul\":524:526   */\n              0x1f\n                /* \"#utility.yul\":520:527   */\n              not\n                /* \"#utility.yul\":515:517   */\n              0x1f\n                /* \"#utility.yul\":508:513   */\n              dup4\n                /* \"#utility.yul\":504:518   */\n              add\n                /* \"#utility.yul\":500:528   */\n              and\n                /* \"#utility.yul\":490:528   */\n              swap1\n              pop\n                /* \"#utility.yul\":432:534   */\n              swap2\n              swap1\n              pop\n              jump\t// out\n                /* \"#utility.yul\":540:917   */\n            tag_27:\n                /* \"#utility.yul\":628:631   */\n              0x00\n                /* \"#utility.yul\":656:695   */\n              tag_35\n                /* \"#utility.yul\":689:694   */\n              dup3\n                /* \"#utility.yul\":656:695   */\n              tag_23\n              jump\t// in\n            tag_35:\n                /* \"#utility.yul\":711:782   */\n              tag_36\n                /* \"#utility.yul\":775:781   */\n              dup2\n                /* \"#utility.yul\":770:773   */\n              dup6\n                /* \"#utility.yul\":711:782   */\n              tag_24\n              jump\t// in\n            tag_36:\n                /* \"#utility.yul\":704:782   */\n              swap4\n              pop\n                /* \"#utility.yul\":791:856   */\n              tag_37\n                /* \"#utility.yul\":849:855   */\n              dup2\n                /* \"#utility.yul\":844:847   */\n              dup6\n                /* \"#utility.yul\":837:841   */\n              0x20\n                /* \"#utility.yul\":830:835   */\n              dup7\n                /* \"#utility.yul\":826:842   */\n              add\n                /* \"#utility.yul\":791:856   */\n              tag_25\n              jump\t// in\n            tag_37:\n                /* \"#utility.yul\":881:910   */\n              tag_38\n                /* \"#utility.yul\":903:909   */\n              dup2\n                /* \"#utility.yul\":881:910   */\n              tag_26\n              jump\t// in\n            tag_38:\n                /* \"#utility.yul\":876:879   */\n              dup5\n                /* \"#utility.yul\":872:911   */\n              add\n                /* \"#utility.yul\":865:911   */\n              swap2\n              pop\n                /* \"#utility.yul\":632:917   */\n              pop\n                /* \"#utility.yul\":540:917   */\n              swap3\n              swap2\n              pop\n              pop\n              jump\t// out\n                /* \"#utility.yul\":923:1236   */\n            tag_8:\n                /* \"#utility.yul\":1036:1040   */\n              0x00\n                /* \"#utility.yul\":1074:1076   */\n              0x20\n                /* \"#utility.yul\":1063:1072   */\n              dup3\n                /* \"#utility.yul\":1059:1077   */\n              add\n                /* \"#utility.yul\":1051:1077   */\n              swap1\n              pop\n                /* \"#utility.yul\":1123:1132   */\n              dup2\n                /* \"#utility.yul\":1117:1121   */\n              dup2\n                /* \"#utility.yul\":1113:1133   */\n              sub\n                /* \"#utility.yul\":1109:1110   */\n              0x00\n                /* \"#utility.yul\":1098:1107   */\n              dup4\n                /* \"#utility.yul\":1094:1111   */\n              add\n                /* \"#utility.yul\":1087:1134   */\n              mstore\n                /* \"#utility.yul\":1151:1229   */\n              tag_40\n                /* \"#utility.yul\":1224:1228   */\n              dup2\n                /* \"#utility.yul\":1215:1221   */\n              dup5\n                /* \"#utility.yul\":1151:1229   */\n              tag_27\n              jump\t// in\n            tag_40:\n                /* \"#utility.yul\":1143:1229   */\n              swap1\n              pop\n                /* \"#utility.yul\":923:1236   */\n              swap3\n              swap2\n              pop\n              pop\n              jump\t// out\n                /* \"#utility.yul\":1242:1422   */\n            tag_28:\n                /* \"#utility.yul\":1290:1367   */\n              0x4e487b7100000000000000000000000000000000000000000000000000000000\n                /* \"#utility.yul\":1287:1288   */\n              0x00\n                /* \"#utility.yul\":1280:1368   */\n              mstore\n                /* \"#utility.yul\":1387:1391   */\n              0x22\n                /* \"#utility.yul\":1384:1385   */\n              0x04\n                /* \"#utility.yul\":1377:1392   */\n              mstore\n                /* \"#utility.yul\":1411:1415   */\n              0x24\n                /* \"#utility.yul\":1408:1409   */\n              0x00\n                /* \"#utility.yul\":1401:1416   */\n              revert\n                /* \"#utility.yul\":1428:1748   */\n            tag_13:\n                /* \"#utility.yul\":1472:1478   */\n              0x00\n                /* \"#utility.yul\":1509:1510   */\n              0x02\n                /* \"#utility.yul\":1503:1507   */\n              dup3\n                /* \"#utility.yul\":1499:1511   */\n              div\n                /* \"#utility.yul\":1489:1511   */\n              swap1\n              pop\n                /* \"#utility.yul\":1556:1557   */\n              0x01\n                /* \"#utility.yul\":1550:1554   */\n              dup3\n                /* \"#utility.yul\":1546:1558   */\n              and\n                /* \"#utility.yul\":1577:1595   */\n              dup1\n                /* \"#utility.yul\":1567:1648   */\n              tag_43\n              jumpi\n                /* \"#utility.yul\":1633:1637   */\n              0x7f\n                /* \"#utility.yul\":1625:1631   */\n              dup3\n                /* \"#utility.yul\":1621:1638   */\n              and\n                /* \"#utility.yul\":1611:1638   */\n              swap2\n              pop\n                /* \"#utility.yul\":1567:1648   */\n            tag_43:\n                /* \"#utility.yul\":1695:1697   */\n              0x20\n                /* \"#utility.yul\":1687:1693   */\n              dup3\n                /* \"#utility.yul\":1684:1698   */\n              lt\n                /* \"#utility.yul\":1664:1682   */\n              dup2\n                /* \"#utility.yul\":1661:1699   */\n              sub\n                /* \"#utility.yul\":1658:1742   */\n              tag_44\n              jumpi\n                /* \"#utility.yul\":1714:1732   */\n              tag_45\n              tag_28\n              jump\t// in\n            tag_45:\n                /* \"#utility.yul\":1658:1742   */\n            tag_44:\n                /* \"#utility.yul\":1479:1748   */\n              pop\n                /* \"#utility.yul\":1428:1748   */\n              swap2\n              swap1\n              pop\n              jump\t// out\n\n            auxdata: 0xa264697066735822122013592e544b49a36875abb768573aba1b6f9153092b99f6b42f1cea8e0cc3859f64736f6c634300081a0033\n        }\n    }\n\n    auxdata: 0xa26469706673582212207ea486d69fdc5a3d7474f0a5a6ae0e2c14ac4219fbf381b3f5a400db182cc95c64736f6c634300081a0033\n}\n",
				"bytecode": {
					"linkReferences": {},
					"object": "60806040525f80553480156011575f80fd5b503360045f6101000a81548173ffffffffffffffffffffffffffffffffffffffff021916908373ffffffffffffffffffffffffffffffffffffffff160217905550610eaa8061005f5f395ff3fe608060405234801561000f575f80fd5b5060043610610055575f3560e01c806329b54674146100595780634efe4227146100755780638da5cb5b146100a5578063f139f35c146100c3578063ffa18649146100f3575b5f80fd5b610073600480360381019061006e9190610430565b610123565b005b61008f600480360381019061008a9190610500565b6101b6565b60405161009c919061053a565b60405180910390f35b6100ad6101e6565b6040516100ba919061053a565b60405180910390f35b6100dd60048036038101906100d89190610500565b61020b565b6040516100ea91906105b3565b60405180910390f35b61010d60048036038101906101089190610606565b6102a6565b60405161011a919061053a565b60405180910390f35b60045f9054906101000a900473ffffffffffffffffffffffffffffffffffffffff1673ffffffffffffffffffffffffffffffffffffffff163373ffffffffffffffffffffffffffffffffffffffff161461017b575f80fd5b5f828260405161018a906102d6565b610195929190610631565b604051809103905ff0801580156101ae573d5f803e3d5ffd5b509050505050565b6002602052805f5260405f205f915054906101000a900473ffffffffffffffffffffffffffffffffffffffff1681565b60045f9054906101000a900473ffffffffffffffffffffffffffffffffffffffff1681565b6001602052805f5260405f205f91509050805461022790610693565b80601f016020809104026020016040519081016040528092919081815260200182805461025390610693565b801561029e5780601f106102755761010080835404028352916020019161029e565b820191905f5260205f20905b81548152906001019060200180831161028157829003601f168201915b505050505081565b6003602052805f5260405f205f915054906101000a900473ffffffffffffffffffffffffffffffffffffffff1681565b6107b1806106c483390190565b5f604051905090565b5f80fd5b5f80fd5b5f80fd5b5f80fd5b5f601f19601f8301169050919050565b7f4e487b71000000000000000000000000000000000000000000000000000000005f52604160045260245ffd5b610342826102fc565b810181811067ffffffffffffffff821117156103615761036061030c565b5b80604052505050565b5f6103736102e3565b905061037f8282610339565b919050565b5f67ffffffffffffffff82111561039e5761039d61030c565b5b6103a7826102fc565b9050602081019050919050565b828183375f83830152505050565b5f6103d46103cf84610384565b61036a565b9050828152602081018484840111156103f0576103ef6102f8565b5b6103fb8482856103b4565b509392505050565b5f82601f830112610417576104166102f4565b5b81356104278482602086016103c2565b91505092915050565b5f8060408385031215610446576104456102ec565b5b5f83013567ffffffffffffffff811115610463576104626102f0565b5b61046f85828601610403565b925050602083013567ffffffffffffffff8111156104905761048f6102f0565b5b61049c85828601610403565b9150509250929050565b5f73ffffffffffffffffffffffffffffffffffffffff82169050919050565b5f6104cf826104a6565b9050919050565b6104df816104c5565b81146104e9575f80fd5b50565b5f813590506104fa816104d6565b92915050565b5f60208284031215610515576105146102ec565b5b5f610522848285016104ec565b91505092915050565b610534816104c5565b82525050565b5f60208201905061054d5f83018461052b565b92915050565b5f81519050919050565b5f82825260208201905092915050565b8281835e5f83830152505050565b5f61058582610553565b61058f818561055d565b935061059f81856020860161056d565b6105a8816102fc565b840191505092915050565b5f6020820190508181035f8301526105cb818461057b565b905092915050565b5f819050919050565b6105e5816105d3565b81146105ef575f80fd5b50565b5f81359050610600816105dc565b92915050565b5f6020828403121561061b5761061a6102ec565b5b5f610628848285016105f2565b91505092915050565b5f6040820190508181035f830152610649818561057b565b9050818103602083015261065d818461057b565b90509392505050565b7f4e487b71000000000000000000000000000000000000000000000000000000005f52602260045260245ffd5b5f60028204905060018216806106aa57607f821691505b6020821081036106bd576106bc610666565b5b5091905056fe608060405234801561000f575f80fd5b506040516107b13803806107b1833981810160405281019061003191906101a4565b815f908161003f9190610427565b50806001908161004f9190610427565b5050506104f6565b5f604051905090565b5f80fd5b5f80fd5b5f80fd5b5f80fd5b5f601f19601f8301169050919050565b7f4e487b71000000000000000000000000000000000000000000000000000000005f52604160045260245ffd5b6100b682610070565b810181811067ffffffffffffffff821117156100d5576100d4610080565b5b80604052505050565b5f6100e7610057565b90506100f382826100ad565b919050565b5f67ffffffffffffffff82111561011257610111610080565b5b61011b82610070565b9050602081019050919050565b8281835e5f83830152505050565b5f610148610143846100f8565b6100de565b9050828152602081018484840111156101645761016361006c565b5b61016f848285610128565b509392505050565b5f82601f83011261018b5761018a610068565b5b815161019b848260208601610136565b91505092915050565b5f80604083850312156101ba576101b9610060565b5b5f83015167ffffffffffffffff8111156101d7576101d6610064565b5b6101e385828601610177565b925050602083015167ffffffffffffffff81111561020457610203610064565b5b61021085828601610177565b9150509250929050565b5f81519050919050565b7f4e487b71000000000000000000000000000000000000000000000000000000005f52602260045260245ffd5b5f600282049050600182168061026857607f821691505b60208210810361027b5761027a610224565b5b50919050565b5f819050815f5260205f209050919050565b5f6020601f8301049050919050565b5f82821b905092915050565b5f600883026102dd7fffffffffffffffffffffffffffffffffffffffffffffffffffffffffffffffff826102a2565b6102e786836102a2565b95508019841693508086168417925050509392505050565b5f819050919050565b5f819050919050565b5f61032b610326610321846102ff565b610308565b6102ff565b9050919050565b5f819050919050565b61034483610311565b61035861035082610332565b8484546102ae565b825550505050565b5f90565b61036c610360565b61037781848461033b565b505050565b5b8181101561039a5761038f5f82610364565b60018101905061037d565b5050565b601f8211156103df576103b081610281565b6103b984610293565b810160208510156103c8578190505b6103dc6103d485610293565b83018261037c565b50505b505050565b5f82821c905092915050565b5f6103ff5f19846008026103e4565b1980831691505092915050565b5f61041783836103f0565b9150826002028217905092915050565b6104308261021a565b67ffffffffffffffff81111561044957610448610080565b5b6104538254610251565b61045e82828561039e565b5f60209050601f83116001811461048f575f841561047d578287015190505b610487858261040c565b8655506104ee565b601f19841661049d86610281565b5f5b828110156104c45784890151825560018201915060208501945060208101905061049f565b868310156104e157848901516104dd601f8916826103f0565b8355505b6001600288020188555050505b505050505050565b6102ae806105035f395ff3fe608060405234801561000f575f80fd5b5060043610610034575f3560e01c806306fdde031461003857806395d89b4114610056575b5f80fd5b610040610074565b60405161004d91906101fb565b60405180910390f35b61005e6100ff565b60405161006b91906101fb565b60405180910390f35b5f805461008090610248565b80601f01602080910402602001604051908101604052809291908181526020018280546100ac90610248565b80156100f75780601f106100ce576101008083540402835291602001916100f7565b820191905f5260205f20905b8154815290600101906020018083116100da57829003601f168201915b505050505081565b6001805461010c90610248565b80601f016020809104026020016040519081016040528092919081815260200182805461013890610248565b80156101835780601f1061015a57610100808354040283529160200191610183565b820191905f5260205f20905b81548152906001019060200180831161016657829003601f168201915b505050505081565b5f81519050919050565b5f82825260208201905092915050565b8281835e5f83830152505050565b5f601f19601f8301169050919050565b5f6101cd8261018b565b6101d78185610195565b93506101e78185602086016101a5565b6101f0816101b3565b840191505092915050565b5f6020820190508181035f83015261021381846101c3565b905092915050565b7f4e487b71000000000000000000000000000000000000000000000000000000005f52602260045260245ffd5b5f600282049050600182168061025f57607f821691505b6020821081036102725761027161021b565b5b5091905056fea264697066735822122013592e544b49a36875abb768573aba1b6f9153092b99f6b42f1cea8e0cc3859f64736f6c634300081a0033a26469706673582212207ea486d69fdc5a3d7474f0a5a6ae0e2c14ac4219fbf381b3f5a400db182cc95c64736f6c634300081a0033",
					"opcodes": "PUSH1 0x80 PUSH1 0x40 MSTORE PUSH0 DUP1 SSTORE CALLVALUE DUP1 ISZERO PUSH1 0x11 JUMPI PUSH0 DUP1 REVERT JUMPDEST POP CALLER PUSH1 0x4 PUSH0 PUSH2 0x100 EXP DUP2 SLOAD DUP2 PUSH20 0xFFFFFFFFFFFFFFFFFFFFFFFFFFFFFFFFFFFFFFFF MUL NOT AND SWAP1 DUP4 PUSH20 0xFFFFFFFFFFFFFFFFFFFFFFFFFFFFFFFFFFFFFFFF AND MUL OR SWAP1 SSTORE POP PUSH2 0xEAA DUP1 PUSH2 0x5F PUSH0 CODECOPY PUSH0 RETURN INVALID PUSH1 0x80 PUSH1 0x40 MSTORE CALLVALUE DUP1 ISZERO PUSH2 0xF JUMPI PUSH0 DUP1 REVERT JUMPDEST POP PUSH1 0x4 CALLDATASIZE LT PUSH2 0x55 JUMPI PUSH0 CALLDATALOAD PUSH1 0xE0 SHR DUP1 PUSH4 0x29B54674 EQ PUSH2 0x59 JUMPI DUP1 PUSH4 0x4EFE4227 EQ PUSH2 0x75 JUMPI DUP1 PUSH4 0x8DA5CB5B EQ PUSH2 0xA5 JUMPI DUP1 PUSH4 0xF139F35C EQ PUSH2 0xC3 JUMPI DUP1 PUSH4 0xFFA18649 EQ PUSH2 0xF3 JUMPI JUMPDEST PUSH0 DUP1 REVERT JUMPDEST PUSH2 0x73 PUSH1 0x4 DUP1 CALLDATASIZE SUB DUP2 ADD SWAP1 PUSH2 0x6E SWAP2 SWAP1 PUSH2 0x430 JUMP JUMPDEST PUSH2 0x123 JUMP JUMPDEST STOP JUMPDEST PUSH2 0x8F PUSH1 0x4 DUP1 CALLDATASIZE SUB DUP2 ADD SWAP1 PUSH2 0x8A SWAP2 SWAP1 PUSH2 0x500 JUMP JUMPDEST PUSH2 0x1B6 JUMP JUMPDEST PUSH1 0x40 MLOAD PUSH2 0x9C SWAP2 SWAP1 PUSH2 0x53A JUMP JUMPDEST PUSH1 0x40 MLOAD DUP1 SWAP2 SUB SWAP1 RETURN JUMPDEST PUSH2 0xAD PUSH2 0x1E6 JUMP JUMPDEST PUSH1 0x40 MLOAD PUSH2 0xBA SWAP2 SWAP1 PUSH2 0x53A JUMP JUMPDEST PUSH1 0x40 MLOAD DUP1 SWAP2 SUB SWAP1 RETURN JUMPDEST PUSH2 0xDD PUSH1 0x4 DUP1 CALLDATASIZE SUB DUP2 ADD SWAP1 PUSH2 0xD8 SWAP2 SWAP1 PUSH2 0x500 JUMP JUMPDEST PUSH2 0x20B JUMP JUMPDEST PUSH1 0x40 MLOAD PUSH2 0xEA SWAP2 SWAP1 PUSH2 0x5B3 JUMP JUMPDEST PUSH1 0x40 MLOAD DUP1 SWAP2 SUB SWAP1 RETURN JUMPDEST PUSH2 0x10D PUSH1 0x4 DUP1 CALLDATASIZE SUB DUP2 ADD SWAP1 PUSH2 0x108 SWAP2 SWAP1 PUSH2 0x606 JUMP JUMPDEST PUSH2 0x2A6 JUMP JUMPDEST PUSH1 0x40 MLOAD PUSH2 0x11A SWAP2 SWAP1 PUSH2 0x53A JUMP JUMPDEST PUSH1 0x40 MLOAD DUP1 SWAP2 SUB SWAP1 RETURN JUMPDEST PUSH1 0x4 PUSH0 SWAP1 SLOAD SWAP1 PUSH2 0x100 EXP SWAP1 DIV PUSH20 0xFFFFFFFFFFFFFFFFFFFFFFFFFFFFFFFFFFFFFFFF AND PUSH20 0xFFFFFFFFFFFFFFFFFFFFFFFFFFFFFFFFFFFFFFFF AND CALLER PUSH20 0xFFFFFFFFFFFFFFFFFFFFFFFFFFFFFFFFFFFFFFFF AND EQ PUSH2 0x17B JUMPI PUSH0 DUP1 REVERT JUMPDEST PUSH0 DUP3 DUP3 PUSH1 0x40 MLOAD PUSH2 0x18A SWAP1 PUSH2 0x2D6 JUMP JUMPDEST PUSH2 0x195 SWAP3 SWAP2 SWAP1 PUSH2 0x631 JUMP JUMPDEST PUSH1 0x40 MLOAD DUP1 SWAP2 SUB SWAP1 PUSH0 CREATE DUP1 ISZERO DUP1 ISZERO PUSH2 0x1AE JUMPI RETURNDATASIZE PUSH0 DUP1 RETURNDATACOPY RETURNDATASIZE PUSH0 REVERT JUMPDEST POP SWAP1 POP POP POP POP JUMP JUMPDEST PUSH1 0x2 PUSH1 0x20 MSTORE DUP1 PUSH0 MSTORE PUSH1 0x40 PUSH0 KECCAK256 PUSH0 SWAP2 POP SLOAD SWAP1 PUSH2 0x100 EXP SWAP1 DIV PUSH20 0xFFFFFFFFFFFFFFFFFFFFFFFFFFFFFFFFFFFFFFFF AND DUP2 JUMP JUMPDEST PUSH1 0x4 PUSH0 SWAP1 SLOAD SWAP1 PUSH2 0x100 EXP SWAP1 DIV PUSH20 0xFFFFFFFFFFFFFFFFFFFFFFFFFFFFFFFFFFFFFFFF AND DUP2 JUMP JUMPDEST PUSH1 0x1 PUSH1 0x20 MSTORE DUP1 PUSH0 MSTORE PUSH1 0x40 PUSH0 KECCAK256 PUSH0 SWAP2 POP SWAP1 POP DUP1 SLOAD PUSH2 0x227 SWAP1 PUSH2 0x693 JUMP JUMPDEST DUP1 PUSH1 0x1F ADD PUSH1 0x20 DUP1 SWAP2 DIV MUL PUSH1 0x20 ADD PUSH1 0x40 MLOAD SWAP1 DUP2 ADD PUSH1 0x40 MSTORE DUP1 SWAP3 SWAP2 SWAP1 DUP2 DUP2 MSTORE PUSH1 0x20 ADD DUP3 DUP1 SLOAD PUSH2 0x253 SWAP1 PUSH2 0x693 JUMP JUMPDEST DUP1 ISZERO PUSH2 0x29E JUMPI DUP1 PUSH1 0x1F LT PUSH2 0x275 JUMPI PUSH2 0x100 DUP1 DUP4 SLOAD DIV MUL DUP4 MSTORE SWAP2 PUSH1 0x20 ADD SWAP2 PUSH2 0x29E JUMP JUMPDEST DUP3 ADD SWAP2 SWAP1 PUSH0 MSTORE PUSH1 0x20 PUSH0 KECCAK256 SWAP1 JUMPDEST DUP2 SLOAD DUP2 MSTORE SWAP1 PUSH1 0x1 ADD SWAP1 PUSH1 0x20 ADD DUP1 DUP4 GT PUSH2 0x281 JUMPI DUP3 SWAP1 SUB PUSH1 0x1F AND DUP3 ADD SWAP2 JUMPDEST POP POP POP POP POP DUP2 JUMP JUMPDEST PUSH1 0x3 PUSH1 0x20 MSTORE DUP1 PUSH0 MSTORE PUSH1 0x40 PUSH0 KECCAK256 PUSH0 SWAP2 POP SLOAD SWAP1 PUSH2 0x100 EXP SWAP1 DIV PUSH20 0xFFFFFFFFFFFFFFFFFFFFFFFFFFFFFFFFFFFFFFFF AND DUP2 JUMP JUMPDEST PUSH2 0x7B1 DUP1 PUSH2 0x6C4 DUP4 CODECOPY ADD SWAP1 JUMP JUMPDEST PUSH0 PUSH1 0x40 MLOAD SWAP1 POP SWAP1 JUMP JUMPDEST PUSH0 DUP1 REVERT JUMPDEST PUSH0 DUP1 REVERT JUMPDEST PUSH0 DUP1 REVERT JUMPDEST PUSH0 DUP1 REVERT JUMPDEST PUSH0 PUSH1 0x1F NOT PUSH1 0x1F DUP4 ADD AND SWAP1 POP SWAP2 SWAP1 POP JUMP JUMPDEST PUSH32 0x4E487B7100000000000000000000000000000000000000000000000000000000 PUSH0 MSTORE PUSH1 0x41 PUSH1 0x4 MSTORE PUSH1 0x24 PUSH0 REVERT JUMPDEST PUSH2 0x342 DUP3 PUSH2 0x2FC JUMP JUMPDEST DUP2 ADD DUP2 DUP2 LT PUSH8 0xFFFFFFFFFFFFFFFF DUP3 GT OR ISZERO PUSH2 0x361 JUMPI PUSH2 0x360 PUSH2 0x30C JUMP JUMPDEST JUMPDEST DUP1 PUSH1 0x40 MSTORE POP POP POP JUMP JUMPDEST PUSH0 PUSH2 0x373 PUSH2 0x2E3 JUMP JUMPDEST SWAP1 POP PUSH2 0x37F DUP3 DUP3 PUSH2 0x339 JUMP JUMPDEST SWAP2 SWAP1 POP JUMP JUMPDEST PUSH0 PUSH8 0xFFFFFFFFFFFFFFFF DUP3 GT ISZERO PUSH2 0x39E JUMPI PUSH2 0x39D PUSH2 0x30C JUMP JUMPDEST JUMPDEST PUSH2 0x3A7 DUP3 PUSH2 0x2FC JUMP JUMPDEST SWAP1 POP PUSH1 0x20 DUP2 ADD SWAP1 POP SWAP2 SWAP1 POP JUMP JUMPDEST DUP3 DUP2 DUP4 CALLDATACOPY PUSH0 DUP4 DUP4 ADD MSTORE POP POP POP JUMP JUMPDEST PUSH0 PUSH2 0x3D4 PUSH2 0x3CF DUP5 PUSH2 0x384 JUMP JUMPDEST PUSH2 0x36A JUMP JUMPDEST SWAP1 POP DUP3 DUP2 MSTORE PUSH1 0x20 DUP2 ADD DUP5 DUP5 DUP5 ADD GT ISZERO PUSH2 0x3F0 JUMPI PUSH2 0x3EF PUSH2 0x2F8 JUMP JUMPDEST JUMPDEST PUSH2 0x3FB DUP5 DUP3 DUP6 PUSH2 0x3B4 JUMP JUMPDEST POP SWAP4 SWAP3 POP POP POP JUMP JUMPDEST PUSH0 DUP3 PUSH1 0x1F DUP4 ADD SLT PUSH2 0x417 JUMPI PUSH2 0x416 PUSH2 0x2F4 JUMP JUMPDEST JUMPDEST DUP2 CALLDATALOAD PUSH2 0x427 DUP5 DUP3 PUSH1 0x20 DUP7 ADD PUSH2 0x3C2 JUMP JUMPDEST SWAP2 POP POP SWAP3 SWAP2 POP POP JUMP JUMPDEST PUSH0 DUP1 PUSH1 0x40 DUP4 DUP6 SUB SLT ISZERO PUSH2 0x446 JUMPI PUSH2 0x445 PUSH2 0x2EC JUMP JUMPDEST JUMPDEST PUSH0 DUP4 ADD CALLDATALOAD PUSH8 0xFFFFFFFFFFFFFFFF DUP2 GT ISZERO PUSH2 0x463 JUMPI PUSH2 0x462 PUSH2 0x2F0 JUMP JUMPDEST JUMPDEST PUSH2 0x46F DUP6 DUP3 DUP7 ADD PUSH2 0x403 JUMP JUMPDEST SWAP3 POP POP PUSH1 0x20 DUP4 ADD CALLDATALOAD PUSH8 0xFFFFFFFFFFFFFFFF DUP2 GT ISZERO PUSH2 0x490 JUMPI PUSH2 0x48F PUSH2 0x2F0 JUMP JUMPDEST JUMPDEST PUSH2 0x49C DUP6 DUP3 DUP7 ADD PUSH2 0x403 JUMP JUMPDEST SWAP2 POP POP SWAP3 POP SWAP3 SWAP1 POP JUMP JUMPDEST PUSH0 PUSH20 0xFFFFFFFFFFFFFFFFFFFFFFFFFFFFFFFFFFFFFFFF DUP3 AND SWAP1 POP SWAP2 SWAP1 POP JUMP JUMPDEST PUSH0 PUSH2 0x4CF DUP3 PUSH2 0x4A6 JUMP JUMPDEST SWAP1 POP SWAP2 SWAP1 POP JUMP JUMPDEST PUSH2 0x4DF DUP2 PUSH2 0x4C5 JUMP JUMPDEST DUP2 EQ PUSH2 0x4E9 JUMPI PUSH0 DUP1 REVERT JUMPDEST POP JUMP JUMPDEST PUSH0 DUP2 CALLDATALOAD SWAP1 POP PUSH2 0x4FA DUP2 PUSH2 0x4D6 JUMP JUMPDEST SWAP3 SWAP2 POP POP JUMP JUMPDEST PUSH0 PUSH1 0x20 DUP3 DUP5 SUB SLT ISZERO PUSH2 0x515 JUMPI PUSH2 0x514 PUSH2 0x2EC JUMP JUMPDEST JUMPDEST PUSH0 PUSH2 0x522 DUP5 DUP3 DUP6 ADD PUSH2 0x4EC JUMP JUMPDEST SWAP2 POP POP SWAP3 SWAP2 POP POP JUMP JUMPDEST PUSH2 0x534 DUP2 PUSH2 0x4C5 JUMP JUMPDEST DUP3 MSTORE POP POP JUMP JUMPDEST PUSH0 PUSH1 0x20 DUP3 ADD SWAP1 POP PUSH2 0x54D PUSH0 DUP4 ADD DUP5 PUSH2 0x52B JUMP JUMPDEST SWAP3 SWAP2 POP POP JUMP JUMPDEST PUSH0 DUP2 MLOAD SWAP1 POP SWAP2 SWAP1 POP JUMP JUMPDEST PUSH0 DUP3 DUP3 MSTORE PUSH1 0x20 DUP3 ADD SWAP1 POP SWAP3 SWAP2 POP POP JUMP JUMPDEST DUP3 DUP2 DUP4 MCOPY PUSH0 DUP4 DUP4 ADD MSTORE POP POP POP JUMP JUMPDEST PUSH0 PUSH2 0x585 DUP3 PUSH2 0x553 JUMP JUMPDEST PUSH2 0x58F DUP2 DUP6 PUSH2 0x55D JUMP JUMPDEST SWAP4 POP PUSH2 0x59F DUP2 DUP6 PUSH1 0x20 DUP7 ADD PUSH2 0x56D JUMP JUMPDEST PUSH2 0x5A8 DUP2 PUSH2 0x2FC JUMP JUMPDEST DUP5 ADD SWAP2 POP POP SWAP3 SWAP2 POP POP JUMP JUMPDEST PUSH0 PUSH1 0x20 DUP3 ADD SWAP1 POP DUP2 DUP2 SUB PUSH0 DUP4 ADD MSTORE PUSH2 0x5CB DUP2 DUP5 PUSH2 0x57B JUMP JUMPDEST SWAP1 POP SWAP3 SWAP2 POP POP JUMP JUMPDEST PUSH0 DUP2 SWAP1 POP SWAP2 SWAP1 POP JUMP JUMPDEST PUSH2 0x5E5 DUP2 PUSH2 0x5D3 JUMP JUMPDEST DUP2 EQ PUSH2 0x5EF JUMPI PUSH0 DUP1 REVERT JUMPDEST POP JUMP JUMPDEST PUSH0 DUP2 CALLDATALOAD SWAP1 POP PUSH2 0x600 DUP2 PUSH2 0x5DC JUMP JUMPDEST SWAP3 SWAP2 POP POP JUMP JUMPDEST PUSH0 PUSH1 0x20 DUP3 DUP5 SUB SLT ISZERO PUSH2 0x61B JUMPI PUSH2 0x61A PUSH2 0x2EC JUMP JUMPDEST JUMPDEST PUSH0 PUSH2 0x628 DUP5 DUP3 DUP6 ADD PUSH2 0x5F2 JUMP JUMPDEST SWAP2 POP POP SWAP3 SWAP2 POP POP JUMP JUMPDEST PUSH0 PUSH1 0x40 DUP3 ADD SWAP1 POP DUP2 DUP2 SUB PUSH0 DUP4 ADD MSTORE PUSH2 0x649 DUP2 DUP6 PUSH2 0x57B JUMP JUMPDEST SWAP1 POP DUP2 DUP2 SUB PUSH1 0x20 DUP4 ADD MSTORE PUSH2 0x65D DUP2 DUP5 PUSH2 0x57B JUMP JUMPDEST SWAP1 POP SWAP4 SWAP3 POP POP POP JUMP JUMPDEST PUSH32 0x4E487B7100000000000000000000000000000000000000000000000000000000 PUSH0 MSTORE PUSH1 0x22 PUSH1 0x4 MSTORE PUSH1 0x24 PUSH0 REVERT JUMPDEST PUSH0 PUSH1 0x2 DUP3 DIV SWAP1 POP PUSH1 0x1 DUP3 AND DUP1 PUSH2 0x6AA JUMPI PUSH1 0x7F DUP3 AND SWAP2 POP JUMPDEST PUSH1 0x20 DUP3 LT DUP2 SUB PUSH2 0x6BD JUMPI PUSH2 0x6BC PUSH2 0x666 JUMP JUMPDEST JUMPDEST POP SWAP2 SWAP1 POP JUMP INVALID PUSH1 0x80 PUSH1 0x40 MSTORE CALLVALUE DUP1 ISZERO PUSH2 0xF JUMPI PUSH0 DUP1 REVERT JUMPDEST POP PUSH1 0x40 MLOAD PUSH2 0x7B1 CODESIZE SUB DUP1 PUSH2 0x7B1 DUP4 CODECOPY DUP2 DUP2 ADD PUSH1 0x40 MSTORE DUP2 ADD SWAP1 PUSH2 0x31 SWAP2 SWAP1 PUSH2 0x1A4 JUMP JUMPDEST DUP2 PUSH0 SWAP1 DUP2 PUSH2 0x3F SWAP2 SWAP1 PUSH2 0x427 JUMP JUMPDEST POP DUP1 PUSH1 0x1 SWAP1 DUP2 PUSH2 0x4F SWAP2 SWAP1 PUSH2 0x427 JUMP JUMPDEST POP POP POP PUSH2 0x4F6 JUMP JUMPDEST PUSH0 PUSH1 0x40 MLOAD SWAP1 POP SWAP1 JUMP JUMPDEST PUSH0 DUP1 REVERT JUMPDEST PUSH0 DUP1 REVERT JUMPDEST PUSH0 DUP1 REVERT JUMPDEST PUSH0 DUP1 REVERT JUMPDEST PUSH0 PUSH1 0x1F NOT PUSH1 0x1F DUP4 ADD AND SWAP1 POP SWAP2 SWAP1 POP JUMP JUMPDEST PUSH32 0x4E487B7100000000000000000000000000000000000000000000000000000000 PUSH0 MSTORE PUSH1 0x41 PUSH1 0x4 MSTORE PUSH1 0x24 PUSH0 REVERT JUMPDEST PUSH2 0xB6 DUP3 PUSH2 0x70 JUMP JUMPDEST DUP2 ADD DUP2 DUP2 LT PUSH8 0xFFFFFFFFFFFFFFFF DUP3 GT OR ISZERO PUSH2 0xD5 JUMPI PUSH2 0xD4 PUSH2 0x80 JUMP JUMPDEST JUMPDEST DUP1 PUSH1 0x40 MSTORE POP POP POP JUMP JUMPDEST PUSH0 PUSH2 0xE7 PUSH2 0x57 JUMP JUMPDEST SWAP1 POP PUSH2 0xF3 DUP3 DUP3 PUSH2 0xAD JUMP JUMPDEST SWAP2 SWAP1 POP JUMP JUMPDEST PUSH0 PUSH8 0xFFFFFFFFFFFFFFFF DUP3 GT ISZERO PUSH2 0x112 JUMPI PUSH2 0x111 PUSH2 0x80 JUMP JUMPDEST JUMPDEST PUSH2 0x11B DUP3 PUSH2 0x70 JUMP JUMPDEST SWAP1 POP PUSH1 0x20 DUP2 ADD SWAP1 POP SWAP2 SWAP1 POP JUMP JUMPDEST DUP3 DUP2 DUP4 MCOPY PUSH0 DUP4 DUP4 ADD MSTORE POP POP POP JUMP JUMPDEST PUSH0 PUSH2 0x148 PUSH2 0x143 DUP5 PUSH2 0xF8 JUMP JUMPDEST PUSH2 0xDE JUMP JUMPDEST SWAP1 POP DUP3 DUP2 MSTORE PUSH1 0x20 DUP2 ADD DUP5 DUP5 DUP5 ADD GT ISZERO PUSH2 0x164 JUMPI PUSH2 0x163 PUSH2 0x6C JUMP JUMPDEST JUMPDEST PUSH2 0x16F DUP5 DUP3 DUP6 PUSH2 0x128 JUMP JUMPDEST POP SWAP4 SWAP3 POP POP POP JUMP JUMPDEST PUSH0 DUP3 PUSH1 0x1F DUP4 ADD SLT PUSH2 0x18B JUMPI PUSH2 0x18A PUSH2 0x68 JUMP JUMPDEST JUMPDEST DUP2 MLOAD PUSH2 0x19B DUP5 DUP3 PUSH1 0x20 DUP7 ADD PUSH2 0x136 JUMP JUMPDEST SWAP2 POP POP SWAP3 SWAP2 POP POP JUMP JUMPDEST PUSH0 DUP1 PUSH1 0x40 DUP4 DUP6 SUB SLT ISZERO PUSH2 0x1BA JUMPI PUSH2 0x1B9 PUSH2 0x60 JUMP JUMPDEST JUMPDEST PUSH0 DUP4 ADD MLOAD PUSH8 0xFFFFFFFFFFFFFFFF DUP2 GT ISZERO PUSH2 0x1D7 JUMPI PUSH2 0x1D6 PUSH2 0x64 JUMP JUMPDEST JUMPDEST PUSH2 0x1E3 DUP6 DUP3 DUP7 ADD PUSH2 0x177 JUMP JUMPDEST SWAP3 POP POP PUSH1 0x20 DUP4 ADD MLOAD PUSH8 0xFFFFFFFFFFFFFFFF DUP2 GT ISZERO PUSH2 0x204 JUMPI PUSH2 0x203 PUSH2 0x64 JUMP JUMPDEST JUMPDEST PUSH2 0x210 DUP6 DUP3 DUP7 ADD PUSH2 0x177 JUMP JUMPDEST SWAP2 POP POP SWAP3 POP SWAP3 SWAP1 POP JUMP JUMPDEST PUSH0 DUP2 MLOAD SWAP1 POP SWAP2 SWAP1 POP JUMP JUMPDEST PUSH32 0x4E487B7100000000000000000000000000000000000000000000000000000000 PUSH0 MSTORE PUSH1 0x22 PUSH1 0x4 MSTORE PUSH1 0x24 PUSH0 REVERT JUMPDEST PUSH0 PUSH1 0x2 DUP3 DIV SWAP1 POP PUSH1 0x1 DUP3 AND DUP1 PUSH2 0x268 JUMPI PUSH1 0x7F DUP3 AND SWAP2 POP JUMPDEST PUSH1 0x20 DUP3 LT DUP2 SUB PUSH2 0x27B JUMPI PUSH2 0x27A PUSH2 0x224 JUMP JUMPDEST JUMPDEST POP SWAP2 SWAP1 POP JUMP JUMPDEST PUSH0 DUP2 SWAP1 POP DUP2 PUSH0 MSTORE PUSH1 0x20 PUSH0 KECCAK256 SWAP1 POP SWAP2 SWAP1 POP JUMP JUMPDEST PUSH0 PUSH1 0x20 PUSH1 0x1F DUP4 ADD DIV SWAP1 POP SWAP2 SWAP1 POP JUMP JUMPDEST PUSH0 DUP3 DUP3 SHL SWAP1 POP SWAP3 SWAP2 POP POP JUMP JUMPDEST PUSH0 PUSH1 0x8 DUP4 MUL PUSH2 0x2DD PUSH32 0xFFFFFFFFFFFFFFFFFFFFFFFFFFFFFFFFFFFFFFFFFFFFFFFFFFFFFFFFFFFFFFFF DUP3 PUSH2 0x2A2 JUMP JUMPDEST PUSH2 0x2E7 DUP7 DUP4 PUSH2 0x2A2 JUMP JUMPDEST SWAP6 POP DUP1 NOT DUP5 AND SWAP4 POP DUP1 DUP7 AND DUP5 OR SWAP3 POP POP POP SWAP4 SWAP3 POP POP POP JUMP JUMPDEST PUSH0 DUP2 SWAP1 POP SWAP2 SWAP1 POP JUMP JUMPDEST PUSH0 DUP2 SWAP1 POP SWAP2 SWAP1 POP JUMP JUMPDEST PUSH0 PUSH2 0x32B PUSH2 0x326 PUSH2 0x321 DUP5 PUSH2 0x2FF JUMP JUMPDEST PUSH2 0x308 JUMP JUMPDEST PUSH2 0x2FF JUMP JUMPDEST SWAP1 POP SWAP2 SWAP1 POP JUMP JUMPDEST PUSH0 DUP2 SWAP1 POP SWAP2 SWAP1 POP JUMP JUMPDEST PUSH2 0x344 DUP4 PUSH2 0x311 JUMP JUMPDEST PUSH2 0x358 PUSH2 0x350 DUP3 PUSH2 0x332 JUMP JUMPDEST DUP5 DUP5 SLOAD PUSH2 0x2AE JUMP JUMPDEST DUP3 SSTORE POP POP POP POP JUMP JUMPDEST PUSH0 SWAP1 JUMP JUMPDEST PUSH2 0x36C PUSH2 0x360 JUMP JUMPDEST PUSH2 0x377 DUP2 DUP5 DUP5 PUSH2 0x33B JUMP JUMPDEST POP POP POP JUMP JUMPDEST JUMPDEST DUP2 DUP2 LT ISZERO PUSH2 0x39A JUMPI PUSH2 0x38F PUSH0 DUP3 PUSH2 0x364 JUMP JUMPDEST PUSH1 0x1 DUP2 ADD SWAP1 POP PUSH2 0x37D JUMP JUMPDEST POP POP JUMP JUMPDEST PUSH1 0x1F DUP3 GT ISZERO PUSH2 0x3DF JUMPI PUSH2 0x3B0 DUP2 PUSH2 0x281 JUMP JUMPDEST PUSH2 0x3B9 DUP5 PUSH2 0x293 JUMP JUMPDEST DUP2 ADD PUSH1 0x20 DUP6 LT ISZERO PUSH2 0x3C8 JUMPI DUP2 SWAP1 POP JUMPDEST PUSH2 0x3DC PUSH2 0x3D4 DUP6 PUSH2 0x293 JUMP JUMPDEST DUP4 ADD DUP3 PUSH2 0x37C JUMP JUMPDEST POP POP JUMPDEST POP POP POP JUMP JUMPDEST PUSH0 DUP3 DUP3 SHR SWAP1 POP SWAP3 SWAP2 POP POP JUMP JUMPDEST PUSH0 PUSH2 0x3FF PUSH0 NOT DUP5 PUSH1 0x8 MUL PUSH2 0x3E4 JUMP JUMPDEST NOT DUP1 DUP4 AND SWAP2 POP POP SWAP3 SWAP2 POP POP JUMP JUMPDEST PUSH0 PUSH2 0x417 DUP4 DUP4 PUSH2 0x3F0 JUMP JUMPDEST SWAP2 POP DUP3 PUSH1 0x2 MUL DUP3 OR SWAP1 POP SWAP3 SWAP2 POP POP JUMP JUMPDEST PUSH2 0x430 DUP3 PUSH2 0x21A JUMP JUMPDEST PUSH8 0xFFFFFFFFFFFFFFFF DUP2 GT ISZERO PUSH2 0x449 JUMPI PUSH2 0x448 PUSH2 0x80 JUMP JUMPDEST JUMPDEST PUSH2 0x453 DUP3 SLOAD PUSH2 0x251 JUMP JUMPDEST PUSH2 0x45E DUP3 DUP3 DUP6 PUSH2 0x39E JUMP JUMPDEST PUSH0 PUSH1 0x20 SWAP1 POP PUSH1 0x1F DUP4 GT PUSH1 0x1 DUP2 EQ PUSH2 0x48F JUMPI PUSH0 DUP5 ISZERO PUSH2 0x47D JUMPI DUP3 DUP8 ADD MLOAD SWAP1 POP JUMPDEST PUSH2 0x487 DUP6 DUP3 PUSH2 0x40C JUMP JUMPDEST DUP7 SSTORE POP PUSH2 0x4EE JUMP JUMPDEST PUSH1 0x1F NOT DUP5 AND PUSH2 0x49D DUP7 PUSH2 0x281 JUMP JUMPDEST PUSH0 JUMPDEST DUP3 DUP2 LT ISZERO PUSH2 0x4C4 JUMPI DUP5 DUP10 ADD MLOAD DUP3 SSTORE PUSH1 0x1 DUP3 ADD SWAP2 POP PUSH1 0x20 DUP6 ADD SWAP5 POP PUSH1 0x20 DUP2 ADD SWAP1 POP PUSH2 0x49F JUMP JUMPDEST DUP7 DUP4 LT ISZERO PUSH2 0x4E1 JUMPI DUP5 DUP10 ADD MLOAD PUSH2 0x4DD PUSH1 0x1F DUP10 AND DUP3 PUSH2 0x3F0 JUMP JUMPDEST DUP4 SSTORE POP JUMPDEST PUSH1 0x1 PUSH1 0x2 DUP9 MUL ADD DUP9 SSTORE POP POP POP JUMPDEST POP POP POP POP POP POP JUMP JUMPDEST PUSH2 0x2AE DUP1 PUSH2 0x503 PUSH0 CODECOPY PUSH0 RETURN INVALID PUSH1 0x80 PUSH1 0x40 MSTORE CALLVALUE DUP1 ISZERO PUSH2 0xF JUMPI PUSH0 DUP1 REVERT JUMPDEST POP PUSH1 0x4 CALLDATASIZE LT PUSH2 0x34 JUMPI PUSH0 CALLDATALOAD PUSH1 0xE0 SHR DUP1 PUSH4 0x6FDDE03 EQ PUSH2 0x38 JUMPI DUP1 PUSH4 0x95D89B41 EQ PUSH2 0x56 JUMPI JUMPDEST PUSH0 DUP1 REVERT JUMPDEST PUSH2 0x40 PUSH2 0x74 JUMP JUMPDEST PUSH1 0x40 MLOAD PUSH2 0x4D SWAP2 SWAP1 PUSH2 0x1FB JUMP JUMPDEST PUSH1 0x40 MLOAD DUP1 SWAP2 SUB SWAP1 RETURN JUMPDEST PUSH2 0x5E PUSH2 0xFF JUMP JUMPDEST PUSH1 0x40 MLOAD PUSH2 0x6B SWAP2 SWAP1 PUSH2 0x1FB JUMP JUMPDEST PUSH1 0x40 MLOAD DUP1 SWAP2 SUB SWAP1 RETURN JUMPDEST PUSH0 DUP1 SLOAD PUSH2 0x80 SWAP1 PUSH2 0x248 JUMP JUMPDEST DUP1 PUSH1 0x1F ADD PUSH1 0x20 DUP1 SWAP2 DIV MUL PUSH1 0x20 ADD PUSH1 0x40 MLOAD SWAP1 DUP2 ADD PUSH1 0x40 MSTORE DUP1 SWAP3 SWAP2 SWAP1 DUP2 DUP2 MSTORE PUSH1 0x20 ADD DUP3 DUP1 SLOAD PUSH2 0xAC SWAP1 PUSH2 0x248 JUMP JUMPDEST DUP1 ISZERO PUSH2 0xF7 JUMPI DUP1 PUSH1 0x1F LT PUSH2 0xCE JUMPI PUSH2 0x100 DUP1 DUP4 SLOAD DIV MUL DUP4 MSTORE SWAP2 PUSH1 0x20 ADD SWAP2 PUSH2 0xF7 JUMP JUMPDEST DUP3 ADD SWAP2 SWAP1 PUSH0 MSTORE PUSH1 0x20 PUSH0 KECCAK256 SWAP1 JUMPDEST DUP2 SLOAD DUP2 MSTORE SWAP1 PUSH1 0x1 ADD SWAP1 PUSH1 0x20 ADD DUP1 DUP4 GT PUSH2 0xDA JUMPI DUP3 SWAP1 SUB PUSH1 0x1F AND DUP3 ADD SWAP2 JUMPDEST POP POP POP POP POP DUP2 JUMP JUMPDEST PUSH1 0x1 DUP1 SLOAD PUSH2 0x10C SWAP1 PUSH2 0x248 JUMP JUMPDEST DUP1 PUSH1 0x1F ADD PUSH1 0x20 DUP1 SWAP2 DIV MUL PUSH1 0x20 ADD PUSH1 0x40 MLOAD SWAP1 DUP2 ADD PUSH1 0x40 MSTORE DUP1 SWAP3 SWAP2 SWAP1 DUP2 DUP2 MSTORE PUSH1 0x20 ADD DUP3 DUP1 SLOAD PUSH2 0x138 SWAP1 PUSH2 0x248 JUMP JUMPDEST DUP1 ISZERO PUSH2 0x183 JUMPI DUP1 PUSH1 0x1F LT PUSH2 0x15A JUMPI PUSH2 0x100 DUP1 DUP4 SLOAD DIV MUL DUP4 MSTORE SWAP2 PUSH1 0x20 ADD SWAP2 PUSH2 0x183 JUMP JUMPDEST DUP3 ADD SWAP2 SWAP1 PUSH0 MSTORE PUSH1 0x20 PUSH0 KECCAK256 SWAP1 JUMPDEST DUP2 SLOAD DUP2 MSTORE SWAP1 PUSH1 0x1 ADD SWAP1 PUSH1 0x20 ADD DUP1 DUP4 GT PUSH2 0x166 JUMPI DUP3 SWAP1 SUB PUSH1 0x1F AND DUP3 ADD SWAP2 JUMPDEST POP POP POP POP POP DUP2 JUMP JUMPDEST PUSH0 DUP2 MLOAD SWAP1 POP SWAP2 SWAP1 POP JUMP JUMPDEST PUSH0 DUP3 DUP3 MSTORE PUSH1 0x20 DUP3 ADD SWAP1 POP SWAP3 SWAP2 POP POP JUMP JUMPDEST DUP3 DUP2 DUP4 MCOPY PUSH0 DUP4 DUP4 ADD MSTORE POP POP POP JUMP JUMPDEST PUSH0 PUSH1 0x1F NOT PUSH1 0x1F DUP4 ADD AND SWAP1 POP SWAP2 SWAP1 POP JUMP JUMPDEST PUSH0 PUSH2 0x1CD DUP3 PUSH2 0x18B JUMP JUMPDEST PUSH2 0x1D7 DUP2 DUP6 PUSH2 0x195 JUMP JUMPDEST SWAP4 POP PUSH2 0x1E7 DUP2 DUP6 PUSH1 0x20 DUP7 ADD PUSH2 0x1A5 JUMP JUMPDEST PUSH2 0x1F0 DUP2 PUSH2 0x1B3 JUMP JUMPDEST DUP5 ADD SWAP2 POP POP SWAP3 SWAP2 POP POP JUMP JUMPDEST PUSH0 PUSH1 0x20 DUP3 ADD SWAP1 POP DUP2 DUP2 SUB PUSH0 DUP4 ADD MSTORE PUSH2 0x213 DUP2 DUP5 PUSH2 0x1C3 JUMP JUMPDEST SWAP1 POP SWAP3 SWAP2 POP POP JUMP JUMPDEST PUSH32 0x4E487B7100000000000000000000000000000000000000000000000000000000 PUSH0 MSTORE PUSH1 0x22 PUSH1 0x4 MSTORE PUSH1 0x24 PUSH0 REVERT JUMPDEST PUSH0 PUSH1 0x2 DUP3 DIV SWAP1 POP PUSH1 0x1 DUP3 AND DUP1 PUSH2 0x25F JUMPI PUSH1 0x7F DUP3 AND SWAP2 POP JUMPDEST PUSH1 0x20 DUP3 LT DUP2 SUB PUSH2 0x272 JUMPI PUSH2 0x271 PUSH2 0x21B JUMP JUMPDEST JUMPDEST POP SWAP2 SWAP1 POP JUMP INVALID LOG2 PUSH5 0x6970667358 0x22 SLT KECCAK256 SGT MSIZE 0x2E SLOAD 0x4B BLOBHASH LOG3 PUSH9 0x75ABB768573ABA1B6F SWAP2 MSTORE8 MULMOD 0x2B SWAP10 0xF6 0xB4 0x2F SHR 0xEA DUP15 0xC 0xC3 DUP6 SWAP16 PUSH5 0x736F6C6343 STOP ADDMOD BYTE STOP CALLER LOG2 PUSH5 0x6970667358 0x22 SLT KECCAK256 PUSH31 0xA486D69FDC5A3D7474F0A5A6AE0E2C14AC4219FBF381B3F5A400DB182CC95C PUSH5 0x736F6C6343 STOP ADDMOD BYTE STOP CALLER "
				},
				"gasEstimates": {
					"creation": {
						"codeDepositCost": "750800",
						"executionCost": "30054",
						"totalCost": "780854"
					},
					"external": {
						"addr(uint256)": "2893",
						"addr_name(address)": "infinite",
						"newAssert(string,string)": "infinite",
						"owner()": "2530",
						"receiver_addr(address)": "infinite"
					}
				},
				"methodIdentifiers": {
					"addr(uint256)": "ffa18649",
					"addr_name(address)": "f139f35c",
					"newAssert(string,string)": "29b54674",
					"owner()": "8da5cb5b",
					"receiver_addr(address)": "4efe4227"
				}
			},
			"storageLayout": {
				"storage": [
					{
						"astId": 28,
						"contract": "contracts/6_AssertFactory.sol:AssertFactory",
						"label": "index",
						"offset": 0,
						"slot": "0",
						"type": "t_uint256"
					},
					{
						"astId": 32,
						"contract": "contracts/6_AssertFactory.sol:AssertFactory",
						"label": "addr_name",
						"offset": 0,
						"slot": "1",
						"type": "t_mapping(t_address,t_string_storage)"
					},
					{
						"astId": 36,
						"contract": "contracts/6_AssertFactory.sol:AssertFactory",
						"label": "receiver_addr",
						"offset": 0,
						"slot": "2",
						"type": "t_mapping(t_address,t_address)"
					},
					{
						"astId": 40,
						"contract": "contracts/6_AssertFactory.sol:AssertFactory",
						"label": "addr",
						"offset": 0,
						"slot": "3",
						"type": "t_mapping(t_uint256,t_address)"
					},
					{
						"astId": 42,
						"contract": "contracts/6_AssertFactory.sol:AssertFactory",
						"label": "owner",
						"offset": 0,
						"slot": "4",
						"type": "t_address"
					}
				],
				"types": {
					"t_address": {
						"encoding": "inplace",
						"label": "address",
						"numberOfBytes": "20"
					},
					"t_mapping(t_address,t_address)": {
						"encoding": "mapping",
						"key": "t_address",
						"label": "mapping(address => address)",
						"numberOfBytes": "32",
						"value": "t_address"
					},
					"t_mapping(t_address,t_string_storage)": {
						"encoding": "mapping",
						"key": "t_address",
						"label": "mapping(address => string)",
						"numberOfBytes": "32",
						"value": "t_string_storage"
					},
					"t_mapping(t_uint256,t_address)": {
						"encoding": "mapping",
						"key": "t_uint256",
						"label": "mapping(uint256 => address)",
						"numberOfBytes": "32",
						"value": "t_address"
					},
					"t_string_storage": {
						"encoding": "bytes",
						"label": "string",
						"numberOfBytes": "32"
					},
					"t_uint256": {
						"encoding": "inplace",
						"label": "uint256",
						"numberOfBytes": "32"
					}
				}
			},
			"userdoc": {
				"kind": "user",
				"methods": {},
				"version": 1
			}
		}
	}
}