{
	"data": {
		"bytecode": {
			"linkReferences": {},
			"object": "608060405260aa60f81b5f806101000a81548160ff021916908360f81c02179055507f61000000000000000000000000000000000000000000000000000000000000005f60016101000a81548160ff021916908360f81c02179055507f61620000000000000000000000000000000000000000000000000000000000006001553480156089575f80fd5b5061026c806100975f395ff3fe608060405234801561000f575f80fd5b5060043610610055575f3560e01c80639ac58d5814610059578063e91df5d514610077578063ee49500214610095578063f8aab238146100b3578063fa9fe36e146100d1575b5f80fd5b6100616100ef565b60405161006e9190610199565b60405180910390f35b61007f610141565b60405161008c9190610199565b60405180910390f35b61009d610159565b6040516100aa91906101ec565b60405180910390f35b6100bb61016b565b6040516100c8919061021d565b60405180910390f35b6100d9610171565b6040516100e691906101ec565b60405180910390f35b5f7f65000000000000000000000000000000000000000000000000000000000000005f60016101000a81548160ff021916908360f81c02179055505f60019054906101000a905050600160ff16905090565b5f8060019054906101000a905050600160ff16905090565b5f60019054906101000a900460f81b81565b60015481565b5f8054906101000a900460f81b81565b5f819050919050565b61019381610181565b82525050565b5f6020820190506101ac5f83018461018a565b92915050565b5f7fff0000000000000000000000000000000000000000000000000000000000000082169050919050565b6101e6816101b2565b82525050565b5f6020820190506101ff5f8301846101dd565b92915050565b5f819050919050565b61021781610205565b82525050565b5f6020820190506102305f83018461020e565b9291505056fea2646970667358221220fa129d4661ff41e18e3e0b83121694897c90a22017110810ad1827b1d67682b064736f6c634300081a0033",
			"opcodes": "PUSH1 0x80 PUSH1 0x40 MSTORE PUSH1 0xAA PUSH1 0xF8 SHL PUSH0 DUP1 PUSH2 0x100 EXP DUP2 SLOAD DUP2 PUSH1 0xFF MUL NOT AND SWAP1 DUP4 PUSH1 0xF8 SHR MUL OR SWAP1 SSTORE POP PUSH32 0x6100000000000000000000000000000000000000000000000000000000000000 PUSH0 PUSH1 0x1 PUSH2 0x100 EXP DUP2 SLOAD DUP2 PUSH1 0xFF MUL NOT AND SWAP1 DUP4 PUSH1 0xF8 SHR MUL OR SWAP1 SSTORE POP PUSH32 0x6162000000000000000000000000000000000000000000000000000000000000 PUSH1 0x1 SSTORE CALLVALUE DUP1 ISZERO PUSH1 0x89 JUMPI PUSH0 DUP1 REVERT JUMPDEST POP PUSH2 0x26C DUP1 PUSH2 0x97 PUSH0 CODECOPY PUSH0 RETURN INVALID PUSH1 0x80 PUSH1 0x40 MSTORE CALLVALUE DUP1 ISZERO PUSH2 0xF JUMPI PUSH0 DUP1 REVERT JUMPDEST POP PUSH1 0x4 CALLDATASIZE LT PUSH2 0x55 JUMPI PUSH0 CALLDATALOAD PUSH1 0xE0 SHR DUP1 PUSH4 0x9AC58D58 EQ PUSH2 0x59 JUMPI DUP1 PUSH4 0xE91DF5D5 EQ PUSH2 0x77 JUMPI DUP1 PUSH4 0xEE495002 EQ PUSH2 0x95 JUMPI DUP1 PUSH4 0xF8AAB238 EQ PUSH2 0xB3 JUMPI DUP1 PUSH4 0xFA9FE36E EQ PUSH2 0xD1 JUMPI JUMPDEST PUSH0 DUP1 REVERT JUMPDEST PUSH2 0x61 PUSH2 0xEF JUMP JUMPDEST PUSH1 0x40 MLOAD PUSH2 0x6E SWAP2 SWAP1 PUSH2 0x199 JUMP JUMPDEST PUSH1 0x40 MLOAD DUP1 SWAP2 SUB SWAP1 RETURN JUMPDEST PUSH2 0x7F PUSH2 0x141 JUMP JUMPDEST PUSH1 0x40 MLOAD PUSH2 0x8C SWAP2 SWAP1 PUSH2 0x199 JUMP JUMPDEST PUSH1 0x40 MLOAD DUP1 SWAP2 SUB SWAP1 RETURN JUMPDEST PUSH2 0x9D PUSH2 0x159 JUMP JUMPDEST PUSH1 0x40 MLOAD PUSH2 0xAA SWAP2 SWAP1 PUSH2 0x1EC JUMP JUMPDEST PUSH1 0x40 MLOAD DUP1 SWAP2 SUB SWAP1 RETURN JUMPDEST PUSH2 0xBB PUSH2 0x16B JUMP JUMPDEST PUSH1 0x40 MLOAD PUSH2 0xC8 SWAP2 SWAP1 PUSH2 0x21D JUMP JUMPDEST PUSH1 0x40 MLOAD DUP1 SWAP2 SUB SWAP1 RETURN JUMPDEST PUSH2 0xD9 PUSH2 0x171 JUMP JUMPDEST PUSH1 0x40 MLOAD PUSH2 0xE6 SWAP2 SWAP1 PUSH2 0x1EC JUMP JUMPDEST PUSH1 0x40 MLOAD DUP1 SWAP2 SUB SWAP1 RETURN JUMPDEST PUSH0 PUSH32 0x6500000000000000000000000000000000000000000000000000000000000000 PUSH0 PUSH1 0x1 PUSH2 0x100 EXP DUP2 SLOAD DUP2 PUSH1 0xFF MUL NOT AND SWAP1 DUP4 PUSH1 0xF8 SHR MUL OR SWAP1 SSTORE POP PUSH0 PUSH1 0x1 SWAP1 SLOAD SWAP1 PUSH2 0x100 EXP SWAP1 POP POP PUSH1 0x1 PUSH1 0xFF AND SWAP1 POP SWAP1 JUMP JUMPDEST PUSH0 DUP1 PUSH1 0x1 SWAP1 SLOAD SWAP1 PUSH2 0x100 EXP SWAP1 POP POP PUSH1 0x1 PUSH1 0xFF AND SWAP1 POP SWAP1 JUMP JUMPDEST PUSH0 PUSH1 0x1 SWAP1 SLOAD SWAP1 PUSH2 0x100 EXP SWAP1 DIV PUSH1 0xF8 SHL DUP2 JUMP JUMPDEST PUSH1 0x1 SLOAD DUP2 JUMP JUMPDEST PUSH0 DUP1 SLOAD SWAP1 PUSH2 0x100 EXP SWAP1 DIV PUSH1 0xF8 SHL DUP2 JUMP JUMPDEST PUSH0 DUP2 SWAP1 POP SWAP2 SWAP1 POP JUMP JUMPDEST PUSH2 0x193 DUP2 PUSH2 0x181 JUMP JUMPDEST DUP3 MSTORE POP POP JUMP JUMPDEST PUSH0 PUSH1 0x20 DUP3 ADD SWAP1 POP PUSH2 0x1AC PUSH0 DUP4 ADD DUP5 PUSH2 0x18A JUMP JUMPDEST SWAP3 SWAP2 POP POP JUMP JUMPDEST PUSH0 PUSH32 0xFF00000000000000000000000000000000000000000000000000000000000000 DUP3 AND SWAP1 POP SWAP2 SWAP1 POP JUMP JUMPDEST PUSH2 0x1E6 DUP2 PUSH2 0x1B2 JUMP JUMPDEST DUP3 MSTORE POP POP JUMP JUMPDEST PUSH0 PUSH1 0x20 DUP3 ADD SWAP1 POP PUSH2 0x1FF PUSH0 DUP4 ADD DUP5 PUSH2 0x1DD JUMP JUMPDEST SWAP3 SWAP2 POP POP JUMP JUMPDEST PUSH0 DUP2 SWAP1 POP SWAP2 SWAP1 POP JUMP JUMPDEST PUSH2 0x217 DUP2 PUSH2 0x205 JUMP JUMPDEST DUP3 MSTORE POP POP JUMP JUMPDEST PUSH0 PUSH1 0x20 DUP3 ADD SWAP1 POP PUSH2 0x230 PUSH0 DUP4 ADD DUP5 PUSH2 0x20E JUMP JUMPDEST SWAP3 SWAP2 POP POP JUMP INVALID LOG2 PUSH5 0x6970667358 0x22 SLT KECCAK256 STATICCALL SLT SWAP14 CHAINID PUSH2 0xFF41 0xE1 DUP15 RETURNDATACOPY SIGNEXTEND DUP4 SLT AND SWAP5 DUP10 PUSH29 0x90A22017110810AD1827B1D67682B064736F6C634300081A0033000000 "
		},
		"gasEstimates": {
			"creation": {
				"codeDepositCost": "124000",
				"executionCost": "70863",
				"totalCost": "194863"
			},
			"external": {
				"b1()": "2538",
				"b32()": "2469",
				"get_len()": "26813",
				"get_len_only_read()": "2520",
				"length1()": "2529"
			}
		},
		"methodIdentifiers": {
			"b1()": "ee495002",
			"b32()": "f8aab238",
			"get_len()": "9ac58d58",
			"get_len_only_read()": "e91df5d5",
			"length1()": "fa9fe36e"
		}
	},
	"abi": [
		{
			"inputs": [],
			"name": "b1",
			"outputs": [
				{
					"internalType": "bytes1",
					"name": "",
					"type": "bytes1"
				}
			],
			"stateMutability": "view",
			"type": "function"
		},
		{
			"inputs": [],
			"name": "b32",
			"outputs": [
				{
					"internalType": "bytes32",
					"name": "",
					"type": "bytes32"
				}
			],
			"stateMutability": "view",
			"type": "function"
		},
		{
			"inputs": [],
			"name": "get_len",
			"outputs": [
				{
					"internalType": "uint256",
					"name": "",
					"type": "uint256"
				}
			],
			"stateMutability": "nonpayable",
			"type": "function"
		},
		{
			"inputs": [],
			"name": "get_len_only_read",
			"outputs": [
				{
					"internalType": "uint256",
					"name": "",
					"type": "uint256"
				}
			],
			"stateMutability": "view",
			"type": "function"
		},
		{
			"inputs": [],
			"name": "length1",
			"outputs": [
				{
					"internalType": "bytes1",
					"name": "",
					"type": "bytes1"
				}
			],
			"stateMutability": "view",
			"type": "function"
		}
	]
}